:020000040800F2
:1000000000500020310100085F310008994E0008BF
:100010005F3100085F3100085F3100080000000018
:100020000000000000000000000000005F31000838
:100030005F310008000000005F3100085F310008F8
:100040005F3100085F3100085F3100085F31000850
:100050005F3100085F3100085F3100085F31000840
:100060005F3100085F3100085F3100085F31000830
:100070005F3100085F3100085F3100085F31000820
:100080005F3100085F3100085F3100085F31000810
:100090005F3100085F3100085F3100085F31000800
:1000A0005F3100085F3100085F3100085F310008F0
:1000B0005F3100085F3100085F3100085F310008E0
:1000C0005F3100085F3100085F3100085F310008D0
:1000D0005F3100085F3100085F3100085F310008C0
:1000E0005F3100085F310008000000005F31000848
:1000F0005F3100085F3100085F3100085F310008A0
:100100005F3100085F3100085F3100085F3100088F
:100110005F3100085F3100085F3100085F3100087F
:100120005F3100085F3100085F3100085F3100086F
:1001300003F016F8084809490022814201D004C0A2
:10014000FBE707480749084A814202D008CA08C0AD
:10015000FAE700F00DF800DE0000002004000020A7
:100160000000002000000020A457000870477047DE
:1001700080B56F4600F001F8FEDE80B56F46ADF544
:100180001A7D02F0E8FF044602F0E1FF02F0E6FF0C
:1001900040F20100C2F200000578002D04BF0121E9
:1001A0000170E00708BF02F0D4FF002D40F0508539
:1001B00002F0D1FF044602F0CAFF02F0CFFF40F286
:1001C0000000C2F200000578002D04BF012101707B
:1001D000E00708BF02F0BDFF002D40F0458502F0AA
:1001E0001CFD15A802F01AFDDDE9170193ADCDE95C
:1001F0002A0148F28040C0F21E000121339049F2EA
:100200000000C0F2D0303291CDE9301044F6000049
:10021000C0F2E810DDE91B23CDE92C1041F20020EB
:10022000C0F27A00CDE92E23CDE9281028A928466E
:1002300002F068FE0DF184097A1E2946484602F054
:1002400045FD02F0DEFC8DF89D0002F006FD02F097
:10025000F9FC4FF6044040F60045CFF6FF70C4F2BB
:100260000105295828AC4FF00B0868F307112950F5
:10027000204602F0E0FC4FF4165002F0C1FC93AEB1
:1002800002462146304602F0D1FC0DF19D0B31466D
:100290004A46584600F04CFD286868F30300286081
:1002A000286868F307102860484600F0FDFC064601
:1002B0005846012402F0F2FC40F200430D21C4F242
:1002C0000003D86961F3C600D861D86961F3CE2014
:1002D000D861186840F08000186044F6D350C1F22D
:1002E0006200A6FB00014FF0FF3000EB5120490AED
:1002F000020C04EB1040B1FBF0F09A62811E4FF645
:10030000FF72914280F0BC840138D862186840F6D0
:100310001042C4F201024FF0005140F00400186096
:100320005C610326186844F6C06B4FF0000AC0F603
:10033000000B20F00400186048F220401C60C4F25A
:1003400000204FF00208046040F2FF79046144F697
:100350008074D86AC0F6000411606968013066F3E1
:10036000175169604FF08041116093AA696866F384
:100370001B616960ADF89E0043F6FF70C4F2000097
:100380004FF600768C9043F6FB70C3F6FE707D1E30
:100390008B9043F6F370C3F6F870C0F27F068A9034
:1003A00043F6E770C3F6EE70899043F6D770C3F654
:1003B000E070889043F6C370C3F6CD70879043F623
:1003C000AB70C3F6B770869043F68F70C3F69D701E
:1003D000859043F66F70C3F67F70849043F64B7040
:1003E000C3F65D70839043F62370C3F63770829036
:1003F00043F6F760C3F60D70819043F6C760C3F60D
:10040000DF60809043F69360C3F6AE607F9043F662
:100410005C60C3F678607E9043F62060C3F63E6071
:100420007D9043F6E050C3F601607C9043F69D500A
:10043000C3F6BF507B9043F65650C3F67A507A907D
:1004400043F60B50C3F63150799043F6BC40C3F6E7
:10045000E440789043F66A40C3F69340779043F6C1
:100460001340C3F63F40769043F6B930C3F6E73009
:10047000759043F65B30C3F68B30749043F6FA20E8
:10048000C3F62B30739043F69420C3F6C7207290C6
:1004900043F62B20C3F66020719043F6BF10C3F6DD
:1004A000F510709043F64F10C3F687106F9043F627
:1004B000DB00C3F615106E9043F66300C3F6A00090
:1004C0006D9043F2E970C3F627006C9043F26A70B6
:1004D000C3F2AA706B9043F2E960C3F22A706A908B
:1004E00043F26360C3F2A660699043F2DB50C3F24B
:1004F0001F60689043F24F50C3F29550679043F2EB
:10050000BF40C3F20750669043F22D40C3F27640DD
:10051000659043F29730C3F2E230649043F2FE20DC
:10052000C3F24B30639043F26120C3F2B02062907B
:1005300043F2C210C3F21220619043F21F10C3F2C3
:100540007110609043F27A00C3F2CD005F9042F6E2
:10055000D170C3F226005E9042F62670C2F67C701F
:100560005D9042F67760C2F6CF605C9042F6C5506F
:10057000C2F61F605B9042F61150C2F66C505A9062
:1005800042F65A40C2F6B640599042F6A030C2F642
:10059000FD30589042F6E320C2F64230579042F6C2
:1005A0002420C2F68420569042F66210C2F6C31090
:1005B000559042F69D00C2F60010549042F2D6705B
:1005C000C2F63A00539042F20D70C2F2727052902D
:1005D00042F24160C2F2A760519042F27250C2F200
:1005E000DA50509042F2A140C2F20A504F9042F2CB
:1005F000CE30C2F238404E9042F2F920C2F264305E
:100600004D9042F22220C2F28E204C9042F24810CD
:10061000C2F2B5104B9042F26C00C2F2DA004A907E
:1006200041F68F70C1F6FE70499041F6AF60C1F699
:100630001F70489041F6CD50C1F63E60479041F69C
:10064000EA40C1F65C50469041F60540C1F677405D
:10065000459041F61E30C1F69130449041F6352068
:10066000C1F6A920439041F64A10C1F6C01042904D
:1006700041F65E00C1F6D500419041F27170C1F2C1
:10068000E870409041F28260C1F2FA603F9041F21E
:100690009250C1F20A603E9041F2A040C1F219505E
:1006A0003D9041F2AD30C1F227403C9041F2B9207B
:1006B000C1F233303B9041F2C310C1F23E203A9078
:1006C00041F2CD00C1F24810399040F6D570C1F228
:1006D0005100389040F6DD60C0F65970379040F612
:1006E000E350C0F66060369040F6E940C0F66650D0
:1006F000359040F6EE30C0F66C40349040F6F22073
:10070000C0F67030339040F6F610C0F67420329088
:1007100040F6F800C0F67710319040F2FB70C0F65A
:100720007A00309040F2FC60C0F27C702F9040F272
:10073000FE50C0F27D602E9040F2FF40C0F27E502D
:100740002D9040F2FF30C0F27F402C9040F20030FC
:10075000C0F280302B9040F20020C0F280202A901E
:1007600040F20010C0F2801029904FF40000289051
:10077000BDF89E008008D86305A88FAB10300290AA
:100780000DA81030049045E0781E8F90012044F6AB
:10079000C064949044F6D870C0F6000044F68071AE
:1007A000939093AA8FA8C0F60004C0F60001CDF87C
:1007B0005CA2CDF858A21546959402F062FD4FF662
:1007C0000076C0F27F06A7F1010BCDF83CB244F6EB
:1007D000C06B0120C0F6000B44F68074949045F283
:1007E0001800CDF854B20DF50F7BC0F60000C0F62E
:1007F00000049390584621462A46CDF85CA2CDF8D5
:1008000058A202F03EFD5B4644F6C06B2A467D1EB0
:10081000C0F6000B01202146949044F67870C0F693
:1008200000008F9593901846CDF85CA2CDE995BA5B
:1008300002F027FD05E0032102684068042940F02A
:10084000D28102F015FA0168CA07F4D18A0709D4E7
:100850004A0709D40A0709D4890609D404210429BE
:10086000EFD0C0E10021E7E70121E5E70221E3E75E
:10087000406893AA07F8310C0320949044F6B070B6
:10088000C0F60000214693908FA8959043F6D36060
:10089000C0F600008E9592900DF19E00919043F667
:1008A0005B60C0F60000CDF85CA29090A7F131002B
:1008B0008F908EA8CDF8588202F0E3FC17F8310C27
:1008C0006C2878D0742840F07B81584644F6C87173
:1008D000C0F60001CDE9950A8FA893AA4FF0010B4D
:1008E000939121468F95CDF85CA2CDF850B202F0DD
:1008F000C8FC40F2004640F610400DF1A00EC4F2D4
:100900000006C4F201006FF4C95543F243230CE022
:1009100040F610400BF1010BC4F201004FF0005102
:10092000BBF57A7F01603FF42FAF4FF400510160B7
:1009300041F688004CF6C35111E0CA184FF6E07C2E
:1009400002EA0C0212093EF80220524212B20138A9
:1009500009EBD20201F1040192B23264D8D00AB29A
:10096000AA42EADB002A14D48AB2B2F5C95F0B4668
:1009700006D943F243239A420DD243F24322531A3B
:100980004FF6E0721A4043F2432312093EF8022068
:10099000DCE74A42D2E744F66334A24201D2CA1AE3
:1009A000CCE746F28644A24203D246F28642521A6D
:1009B000C4E70022CAE744F6E07093AAC0F600003C
:1009C0008F9593908FA801252146CDF85CA2949530
:1009D000CDE995BA02F055FC40F61041C4F2010190
:1009E00040F600400135C4F2010041F6880BC068B2
:1009F00080044FF0005058BF4FF4005008604FF48F
:100A00008040086003954CF6C35528B285EAE03172
:100A1000A1EBE03290B2B0FA80F000F1600105F491
:100A2000004080294FEA00401BD0119201F11002D2
:100A3000CDF840A002F07803CDF83CA002F0070208
:100A4000CDF838A0CDF834A0049CA4EBD3031B68E8
:100A500003FA02F206EA0222A2EBC15101F1F241CD
:100A6000084300F0ABFAC0F3C7526AB106F1FF01C8
:100A700040F200440140FF2AC4F200040CD10220DD
:100A8000002908BF03200CE040F2004400200021B0
:100A90000023C4F2000452E0C30DDAB2702A04D27B
:100AA000002000210022002349E041F40001882AAF
:100AB00025D2C3F108024FF0FF3302F01F0293402A
:100AC00031EA03030DD0012696404FEA560E7345D6
:100AD00007D301EB060C0E4218BF6146734588BF71
:100AE00061464FF60076D140002848BF4942C0F227
:100AF0007F06F1B900200021002200231DE000281C
:100B000048BF4942B2F1880013D00991C0F3C30233
:100B1000CDF820A000F00700CDF81CA0CDF818A05B
:100B2000CDF814A0029B9A1A126802FA00F3DAB206
:100B300001E0CAB20B46C80F002103F47F4302381C
:100B400061F10001022828BF4046002918BF404635
:100B500002285CD143EA0200BBF1010B05F1290533
:100B600000B209EBD00080B220647FF44EAF40F6B3
:100B700010414FF08040C4F201010860039DB5F5BB
:100B80007A7F7FF42DAF781E8F90012044F6C064E9
:100B9000949044F6D8704FF6007644F68071C0F613
:100BA0000000C0F600049390C0F27F06CDF85CA26E
:100BB0008FA8CDF858A2C0F60001959493AA0EE034
:100BC000012093AA949045F20400C0F6000021464B
:100BD00093908FA88F95CDF85CA2CDE995BA154674
:100BE00002F04FFBEFE545F25C0045F24C03C0F626
:100BF00000008DF84C12009045F22000C0F6000075
:100C000093AAC0F600032B2102F0EDFAFEDE40B9F4
:100C100001210020949144F6C461C0F60001979030
:100C200007E001210020949144F6EC619790C0F612
:100C30000001969044F6C060C0F60000939144F61F
:100C40000071959093A8C0F6000102F09FFAFEDEB5
:100C500044F6107044F63C72C0F60000C0F6000284
:100C60002B2102F0A9FAFEDE44F6107044F64C7215
:100C7000C0F60000C0F600022B2102F09DFAFEDE55
:100C800045F2C81045F25013C0F6000028AA0090A3
:100C900045F22410C0F60000C0F600038DF8A04015
:100CA0002B2102F0A0FAFEDEF0B503AF4DF8048D63
:100CB00041F200058046C4F20205284601F0FEFF1D
:100CC000B0F1804F27D305F55F26B04223D204242C
:100CD0004001C4F2002401212150284601F0F0FF18
:100CE000B0F1804F17D3B04215D2400101212150FD
:100CF000284601F0E5FFB0F1804F0CD3B0423FBF72
:100D000040010021215040463EBF5DF8048BBDE804
:100D1000F04002F0F0B845F2CB0045F21412C0F6F4
:100D20000000C0F60002492102F046FAFEDE7047DC
:100D3000F0B503AF2DE9000786B041F20004064686
:100D4000C4F2020490462046894601F0BBFFB0F190
:100D5000804F75D304F55F25A84271D240F2380A5E
:100D60004001C4F2002A01214AF80010204601F097
:100D7000ABFFB0F1804F63D3A84261D240010121A3
:100D80004AF80010204601F09FFFB0F1804F57D382
:100D9000A84255D2400100214AF80010304634786C
:100DA00001F016FF01684FF6FB72CFF6FF02002C30
:100DB00001EA020108BF01F100710160D9E9006593
:100DC00001F056FF0446404602F093F866B3B0FBCC
:100DD000F6F0102840D315F47F01A06018BF012160
:100DE000C5F307200903022808BF01F50071002898
:100DF00018BF01F58061E06842F20C0220F4B050A7
:100E00000844E0602169E8B221F4405141EA003031
:100E1000206143F60C00C4F2010001681143016037
:100E200006B0BDE80007F0BD45F2103045F2F422EF
:100E3000C0F60000C0F60002192102F0BDF9FEDE86
:100E400045F2372045F28022C0F60000C0F60002CD
:100E5000492102F0B1F9FEDE01210020019145F2A5
:100E60004031C0F600010490039045F248300091F3
:100E700045F24831C0F60000C0F600010290684615
:100E800002F084F9FEDE7047F0B503AF4DF8048D33
:100E900082B000200C468029019002D28DF80440D7
:100EA00038E002202146B4F5006F0CD260F39F11A8
:100EB000C02040EA94108DF805108DF804004FF022
:100EC0000008012629E060F39F11B4F5803F0FD29E
:100ED0008DF80610E02141EA14318DF80410A109C3
:100EE0004FF0010860F39F118DF80510002614E003
:100EF0008DF80710A10960F39F118DF80610210BE2
:100F000060F39F118DF80510A00C1E2161F3DF0026
:100F10008DF8040000264FF000089DF8045001F001
:100F2000A7FE01680906FAD5802C45601BD39DF801
:100F3000054001F09DFE01680906FAD5446096B9A6
:100F40009DF8064001F094FE01680906FAD5B8F153
:100F5000000F446007D19DF8074001F089FE016849
:100F60000906FAD54460002002B05DF8048BF0BD9C
:100F700080B56F4682B000680A4645F2583101904C
:100F800001A8C0F6000102F07CF902B080BD9AB160
:100F9000F0B503AF4DF804BD8D180C46267801F06E
:100FA00067FE01680906FAD501344660AC42F5D106
:100FB0005DF804BBBDE8F04000207047F0B503AF1A
:100FC0002DE9000F85B0064603F0B6FC834640F6D7
:100FD000DB7026F00045C3F649700C46854218D2F6
:100FE000B5F1665F2DD230464FF0F74103F013FCA8
:100FF000044630464FF0607103F04AFFB5F5000F2C
:1010000028BF204604900498304605B0BDE8000F84
:10101000F0BD45F2D230C4F27B00854269D24CF675
:10102000E430C4F2160085427DD242F61852002EFA
:10103000C5F2444200F1788142F2FB13CBF6F9731A
:10104000E5E1584621465A46234603F0ECFC0246A9
:101050000B460646884603F0E6FC44F2A7624CF6CF
:101060008753CDE90210C8F63B42C3F6C66330464B
:10107000414603F0D8FC4EF27472F923CEF2CA2234
:10108000CBF62A7303F027F9CDE90010304641462C
:101090005A46234603F0C7FC4FF6B23241F2101312
:1010A00081468A46C8F66E12C3F6817330464146C1
:1010B00003F0B9FC4AF6774245F25553C5F2CB42EC
:1010C000CBF6C57303F007F902460B464846514676
:1010D00003F0A9FC5A46234603F0FDF8DDE902328D
:1010E00004460D464846514603F09DFCDDE90032BA
:1010F000FDE043F2D610C4F2E200854280F0838026
:101100004EF6E050C4F2AF00854280F0848042F297
:10111000D212002EC7F6337200F175814DF67C13A2
:10112000CCF2120304E142F2FB1142F61850C4F271
:101130000901C5F244405A462346B6F1FF3FC4BFF9
:1011400042F2FB11CCF2090103F0C5F802460B464E
:1011500006460C4603F067FC84F0004332468046A6
:101160000D4603F060FC4FF6B23241F21013814697
:101170008A46C8F66E12C3F681734046294603F0CC
:1011800052FC4AF6774245F25553C5F2CB42CBF6B4
:10119000C57303F0A0F802460B464846514603F0DB
:1011A00042FC3246234603F032FB8346039140461D
:1011B000294642462B4603F036FC02460B4648467B
:1011C000514603F030FC44F2A7624CF687530446C4
:1011D0000E46C8F63B42C3F6C6634046294603F0B6
:1011E00022FC4EF27472F923CEF2CA22CBF62A7395
:1011F00003F071F802460B462046314603F013FC1B
:101200005A46039B63E1E80DFE2875D93046314606
:1012100003F01EFB5FE142F2FB1142F61850C4F2EC
:101220001901C5F244405A462346B6F1FF3FC4BFF8
:1012300042F2FB11CCF2190103F04DF802460B46C5
:1012400004460D4603F0EFFB02460B460646884671
:1012500003F0E9FB44F2A7624CF68753CDE9021094
:10126000C8F63B42C3F6C6633046414603F0DBFB9B
:101270004EF27472F923CEF2CA22CBF62A7303F02F
:101280002AF883460191204629463246434603F018
:10129000CAFB4FF6B23241F2101381468A46C8F6B5
:1012A0006E12C3F681733046414603F0BCFB4AF62A
:1012B000774245F25553C5F2CB42CBF6C57303F0E6
:1012C0000AF802460B464846514603F0ACFB02467C
:1012D0000B462046294602F0FEFFDDE902320446B5
:1012E0000D464846514603F09EFB5A46019B03F0CB
:1012F0009AFB22462B46EAE0304601F0B7FB034654
:10130000084613F0030100F0EC80012900F0F180A1
:10131000022940F0F68082F0004105B0BDE8000FE0
:10132000BDE8F04000F0F1B842F2FB13C3F6F973E8
:101330005846214602F0CFFF02460B4603F073FBEE
:1013400002460B4604460D4603F06DFB45F68162EE
:101350004FF6FF7383468846CFF60C52CBF6DF7309
:101360002046294603F05FFB00230022C3F6F073FA
:1013700002F0B1FF43F6422245F253530646894636
:10138000CEF20512C3F6A5735846414603F04BFB57
:1013900002460B463046494602F09DFF81468A468A
:1013A000204629465A46434603F03DFB45F2690272
:1013B00049F2423306468846CEF2EE02C3F6F9639E
:1013C0002046294603F02FFB41F627624CF28703A3
:1013D000CEF60F02CBF6567302F07DFF02460B46A7
:1013E0003046414603F01FFB02460B464846514635
:1013F00002F071FF02F0D9FD80F00046304605B0E2
:10140000BDE8000FF0BD4DF67C13C4F21203584640
:10141000214602F060FF02460B4603F004FB024641
:101420000B4604460D4603F0FEFA45F681624FF680
:10143000FF7383468846CFF60C52CBF6DF73204607
:10144000294603F0F0FA00230022C3F6F07302F0FD
:1014500042FF43F6422245F2535306468946CEF2F6
:101460000512C3F6A5735846414603F0DCFA02465E
:101470000B463046494602F02EFF81468A462046FA
:1014800029465A46434603F0CEFA45F2690249F22C
:10149000423306468846CEF2EE02C3F6F963204692
:1014A000294603F0C0FA41F627624CF28703CEF6D4
:1014B0000F02CBF6567302F00EFF02460B46304683
:1014C000414603F0B0FA02460B464846514602F048
:1014D00002FF02F06AFD0646304605B0BDE8000F87
:1014E000F0BD114605B0BDE8000FBDE8F04000F0CA
:1014F0000CB8114605B0BDE8000FBDE8F04000F0A3
:101500006CB8114600F069F876E7F0B503AF2DE945
:10151000000F83B002460B460C46054603F083FAE3
:1015200002460B460646884603F07DFA44F2A7625F
:101530004CF68753CDE90110C8F63B42C3F6C663AB
:101540003046414603F06FFA4EF27472F923CEF240
:10155000CA22CBF62A7302F0BEFE834600913046C3
:1015600041462A46234603F05EFA4FF6B23241F274
:10157000101381468A46C8F66E12C3F68173304650
:10158000414603F050FA4AF6774245F25553C5F208
:10159000CB42CBF6C57302F09EFE02460B46484690
:1015A000514603F040FA2A46234602F094FEDDE954
:1015B000013204460D464846514603F034FA009B7A
:1015C0005A4603F030FA22462B4602F084FE02F01F
:1015D000ECFC03B0BDE8000FF0BDF0B503AF2DE9A2
:1015E000000F81B002460B4603F01DFA02460B467F
:1015F00004460D4603F017FA45F2690249F24233F8
:1016000083468846CEF2EE02C3F6F96320462946A9
:1016100003F009FA41F627624CF28703CEF60F0277
:10162000CBF6567302F057FE45F681624FF6FF7314
:1016300000908A46CFF60C52CBF6DF73204629463F
:1016400003F0F1F900230022C3F6F07302F043FE29
:1016500043F6422245F2535306468946CEF205121E
:10166000C3F6A5735846414603F0DDF902460B4622
:101670003046494602F02FFE064689462046294656
:101680005A46434603F0CFF9009A534603F0CBF98C
:1016900002460B463046494602F01DFE02F085FC2C
:1016A00001B0BDE8000FF0BDF0B503AF2DE9000FAC
:1016B000ADF5257D159016A80C46A021029203F0E9
:1016C00086F93EA8A02103F082F966A8A02103F0C4
:1016D0007EF98EA8502103F0DDFBD7F808904AF67A
:1016E000AB21C2F6AA21A4F1010AA9F10300002648
:1016F00080FB0101881000EBD170F96820EAE070EE
:101700001190A0EB0A0445F27030C0F6000050F8CA
:101710002110109101EB0A08084646454FF00005DC
:1017200038BF0125002C08D445F29030C0F60000E7
:1017300050F8240002F0DAFC01E00020002116AA93
:10174000464542F8360002EBC600416003D22E4403
:1017500001344645E1D9A9F11800139010984FF0D3
:10176000000B159E0BEB0A0883454FF000004FF06D
:1017700000054FF000044FF0000938BF012014901D
:10178000A8EB09030DF1580C06EBC90156F8390016
:101790005CF833200CEBC30349685B6803F043F942
:1017A00002460B462846214602F095FD0546D145E6
:1017B0004FF000000C4638BF0120D14502D28144D1
:1017C000D145DDD966A840F83B5000EBCB00446022
:1017D0001098834503D214998B448345C2D911983C
:1017E00040F2FE764FF60241CFF6FF71A0EB800487
:1017F000139800EBC40540F6FD308542B8BF28467B
:10180000A5F2FF32B54288BFA0F2FE724FF27040DF
:10181000CFF6FF7015F5396FC8BF284605F2C933FA
:1018200015F5F96F98BF00F2927328468D42069322
:10183000B8BF1846B5F5806F0992A8BF104615F5D8
:10184000F96F00F2FF3040F20002C3F6F0724FEA87
:1018500000534FF0587098BF00208D4240F20001B5
:10186000A8BF1046C7F6E071B54284BF0021C7F695
:10187000F071B5F5806FB8BF01460020002203F07B
:10188000D2F8CDE907108EA910980E9501EB8000D3
:1018900008380D90C5F1170000F01F000C90C5F13D
:1018A000180000F01F000B9001F108000590081FC0
:1018B00010990A90E000019000E0314666A80029E6
:1018C0000F9150F8312000EBC100D0F8048000F0F7
:1018D0008C800A9D0C46002312A834C01046414655
:1018E0000022C3F6706303F09EF800230022CCF2BE
:1018F000E01304460D4602F0E5FF814620462946E6
:1019000002F024FC00224FF6FF73064620462946CB
:10191000CFF6C072C4F2DF13B9F1000F08BF4FF069
:10192000004602F099FF00282046294622462B4611
:1019300018BF6FF0004602F070FF002818BF0026A5
:10194000304602F0D3FB00230022CCF2701389460C
:10195000834603F068F8024612980B46414602F0AF
:10196000BAFC00230022CCF2E01304460D4602F03C
:10197000A9FF80462046294602F0E8FB00224FF6E8
:10198000FF73064620462946CFF6C072C4F2DF1325
:10199000B8F1000F08BF4FF0004602F05DFF0028CD
:1019A0002046294622462B4618BF6FF00046149D5C
:1019B00002F033FF002818BF002645F8046F66A91F
:1019C000139E5A464B46741E51F8340001EBC40175
:1019D000496802F080FC022E38BF01240246884686
:1019E000022E02D3002C7FF476AF0E9EB6F5806FE8
:1019F00019DB414640F20008C7F6E07810460022A5
:101A0000434603F010F80022434604460D4603F017
:101A10000AF8024640F2FE70884686429CBFA846FD
:101A2000224609981DE04FF60240CFF6FF7086422D
:101A300016DA1046414600224FF0587302F0F3FFC9
:101A400000224FF0587304460D4602F0ECFF0246A8
:101A5000884616F5F96F84BFA8462246069800E02E
:101A6000304600F2FF30414603051046002202F0E6
:101A7000DAFF00224FF07F5383460C4602F0D3FF7B
:101A8000002200238146884602F0A3FF002859D196
:101A9000C8F30A5640F23240864253D800234846E3
:101AA000CCF23033414600221494B8F1FF3FC4BF5A
:101AB0000023C4F2303302F00EFC0B460021024634
:101AC000C4F230310020B8F1FF3FC4BF0021CCF296
:101AD000303102F000FC4A46434602F098FE0546CB
:101AE000CDE9A20140F2FF3086420ED2B8F1FF3FAD
:101AF00040F20008A2A8CBF6F0784FF00009D0E938
:101B00000001C8BF4FF000081BE00C4648464146A4
:101B10002A46234602F0DFFB00230022CBF6F073B7
:101B20000646139102F0D7FB814688462846214697
:101B30000022002302F090FE0028139804BF804684
:101B4000B146149C0023484641460022CCF22003B3
:101B500002F069FF02460B465846214602F0BBFBE5
:101B600000230022CCF2E01304460D4602F0AAFE48
:101B700006462046294602F0E9FA00224FF6FF7396
:101B8000814620462946CFF6C072C4F2DF13002EEC
:101B900008BF4FF0004902F05FFE002820462946AA
:101BA00022462B4618BF6FF0004902F036FE00288F
:101BB00018BF4FF00009484602F098FA02460B465B
:101BC0002046294602F023FE83460E980E46002842
:101BD00028DD0F9D0DF50E7C0B9B109C0CEB8500FA
:101BE00050F8041C41FA03F2914402FA03F3C91AB3
:101BF00040F8041C0C9841FA00F8B8F1000F40F3CB
:101C0000F780B6462DB3042D25D20020002615F00E
:101C1000030100F0AE805CF82020002E77D06FF03A
:101C20007F4377E0DDE90F5464D000235846314606
:101C30000022C3F6E0734FF0000802F043FE0028D4
:101C400000F0D6800DF50E7C4FF00208B646002D50
:101C5000D9D100268DE0059A25F003010020002649
:101C600008E06FF07F46F31A01265360043010320B
:101C70008142CCD052F8083C16B16FF07F4602E0AA
:101C800093B14FF08076F31A002642F8083C52F8E0
:101C9000043C76B113B14FF080760CE00126136856
:101CA00086B96FF07F4610E0012652F8043C002E02
:101CB000F0D16FF07F46F31A002642F8043C136817
:101CC000002EEED05BB14FF08076F31A0026136041
:101CD0005368002EC5D03BB14FF08076C3E7012694
:101CE0005368002EF7D1BCE7002604301032814241
:101CF000C0D18CE70DF50E7C0CEB850050F8040C80
:101D00004FEAE058B8F1000F3FF77BAF70E02AB31D
:101D10004FF080739A1A012600234CF820200129E5
:101D200027D0421C5CF822602BB1002E00F01481F9
:101D30004FF0807301E06FF07F439B1B4CF8223023
:101D400001260022022914D002305CF8201052B182
:101D500000293FF47EAF4FF0807206E00026012399
:101D60000129DED105E06FF07F420126511A4CF8BF
:101D700020100E98002808DD0E98012825D0022892
:101D80004FF6FF70C0F23F0025D009F10109B8F10C
:101D9000020F2CD100210020C3F6F0715A46734681
:101DA00002F035FDDDE90732A84604460D4602F093
:101DB0002EFD002E0E46834608BF2E4608BFA346C2
:101DC0004546109C4FF0020812E04FF6FF70C0F23B
:101DD0003F0000F580000CEB850151F8042C104009
:101DE00041F8040C09F10109B8F1020FD2D076468E
:101DF000584631460022002302F0EBFD002800F097
:101E0000B180691E8EAE8C4237D8002000228C42F1
:101E100038BF012256F821308C4240EA030029D213
:101E2000891A8C4226D84FF0000238BF012256F89A
:101E300021308C4240EA03001CD2891A8C4219D806
:101E40004FF0000238BF012256F821308C4240EAA0
:101E500003000FD2891A8C420CD84FF0000238BF11
:101E6000012256F821308C4240EA030002D2891A3E
:101E70008C42CBD9002840F0C0800D9900204A68E0
:101E80006AB90A686AB951F8042C62B9A1F1100262
:101E900051F8081C043000291146F0D004E001304C
:101EA00002E0023000E00330461905F10109B145B6
:101EB00031463FF603AD1396119845F29031C0F6C6
:101EC000000109EB0A0B484451F8200002F00EF91A
:101ED00016AA002400254FF0000842F83B0002EB50
:101EE000CB00B14541604FF0000038BF0120149095
:101EF000159EABEB08030DF1580C06EBC8015CF81E
:101F000033200CEBC30356F8380049685B6802F0D5
:101F10008AFD02460B462046294602F0DCF90446BB
:101F2000D0454FF000000D4638BF0120D04502D209
:101F30008044D045DCD966A8139E40F8394000EBB8
:101F4000C900B145456014984844BFF4B6ACB042EE
:101F50008146B1D93146B1E40026012202297FF43D
:101F6000F3AE06E70E984442B4F5806F1FDB002302
:101F70005846C7F6E0733146002202F054FD83460E
:101F800040F2FE700E4684425DD900235846C7F6E3
:101F9000E0733146002202F046FD834640F6FD30F4
:101FA0008442B8BF2046A0F2FE740E4656E04FF6BB
:101FB0000240CFF6FF70844250DA58463146002284
:101FC0004FF0587302F02FFD83460E4614F5F96F5B
:101FD00040D85846314600224FF0587302F023FD96
:101FE00083464FF2704014F5396FCFF6FF70D8BFBB
:101FF00004460E4604F2927430E0119906EB850017
:10200000BA68083801EB4101A2EBC10130390E91E9
:102010004168E9B90168002940F0E48450F8041CE3
:10202000002940F0E584A0F1100150F8080C0E9A48
:10203000043D00280846A2F160020E92E8D00E98F6
:1020400018300E90CEE04FF60140CFF6FF7003E05F
:10205000013DC7E040F2C9300E99441A04F2FF3046
:10206000314600220305584602F0DDFC0023002221
:10207000C4F2701383468A4602F024FCCDE903982B
:1020800028B9D946D046AB460DF50E7A7AE0002342
:102090005846C3F670635146002202F0C4FC002388
:1020A0000022CCF2E01304460D4602F00BFC814600
:1020B0002046294602F04AF800224FF6FF730646F2
:1020C000CFF6C072C4F2DF1320462946B9F1000FE3
:1020D00008BF4FF0004602F0BFFB0028204629460B
:1020E00022462B4618BF6FF0004602F096FB0028F0
:1020F00018BF0026304601F0F9FF00230022CCF281
:1021000070138146884602F08EFC02460B46584604
:10211000514602F0E0F800230022CCF2E01306461C
:102120000C4602F0CFFB83463046214602F00EF803
:1021300000224FF6FF73054630462146CFF6C072A7
:10214000C4F2DF13BBF1000FDDF83CB008BF4FF065
:10215000004502F081FB00283046214632462346E6
:1021600018BF6FF0004502F058FB0DF50E7A0028FD
:1021700018BF0025B8684AF82B500BF1010B0199E4
:1021800008440E9000224FF6FF73CFF6C072C4F2DF
:10219000DF134846414602F05FFB00230446CCF2C1
:1021A000E01348464146002202F08CFB05464846B3
:1021B000414601F0CBFF0646002D08BF4FF0004618
:1021C000484641464A464346002C18BF6FF0004639
:1021D00002F023FB002818BF00264AF82B605D465A
:1021E000DDE903980E9A0F95B2F5806F0EDB40F291
:1021F000FE70824220D940F6FD308242B8BF1046C0
:102200000021A0F2FE72C7F6F07123E04FF6024003
:10221000CFF6FF70824215DA12F5F96F16D84FF239
:10222000704012F5396FCFF6FF704FF00001C8BF54
:10223000104600F292720DE00021A2F2FF32C7F6C2
:10224000E07107E00021C3F6F07103E002F2C93249
:102250004FF05871002002F2FF321305002202F005
:10226000E2FB0F9E05460C46CDE90398701C10F06A
:10227000030BCDF830B05DD00DF50E7A5AF826007C
:1022800001F034FF02460B462846214602F0CBFB04
:102290000DF5CC7A0023C3F6706300224AF83600AD
:1022A0000AEBC60041602846214602F0BCFBA6F1BD
:1022B000010805460C46BBF1010F3CD08EA850F832
:1022C000280001F013FF02460B462846214602F083
:1022D000AAFB4AF838000AEBC80000234160C3F6A5
:1022E000706328462146002202F09DFBA6F10208F9
:1022F00005460C46BBF1020F1DD08EA850F82800F1
:1023000001F0F4FE02460B462846214602F08BFB04
:102310004AF838000AEBC80000234160C3F6706336
:1023200028462146002202F07EFBA6F1030805465E
:102330000C4600E0B046032E62D38EA800EB880B5B
:1023400066A800EBC80608F10108DBF8000001F000
:10235000CDFE02460B462846214602F064FB0023D0
:10236000C6E90001C3F6706328462146002299465B
:1023700002F059FB04465BF80C0C15900D465BE926
:1023800002A001F0B3FE02460B462046294602F0A9
:102390004AFB46E902012046294600224B4602F04C
:1023A00042FB044650460D4601F0A0FE02460B4695
:1023B0002046294602F037FB46E90401204629461B
:1023C00000224B4602F02FFB044615980D4601F003
:1023D0008DFE02460B462046294602F024FB46E9C4
:1023E00006012046294600224B4602F01CFBB8F1AC
:1023F0000408ABF1100BA6F1200605460C46A4D14B
:102400000F9D45F29841DDF830B00DF1F8090DF55A
:10241000CC7AC0F60001BBF1000F2A4625D00AEBAA
:10242000C50800246FF007060025881908EB06028E
:10243000D0E90201D2E9022302F0F5FA02460B4686
:102440002046294601F047FF0D4645F298410836DF
:102450000446C0F6000116F10800E6D0BBF1010FFA
:10246000CDE93E4504D10F9D6A1E032D5CD22CE1BF
:10247000A1F108091098A8F110064FF0000B4C4686
:1024800000254FF0000A002818BF0120159054F8CD
:10249000080F56F8082F6168736802F0C4FA024604
:1024A0000B465846294601F016FF834615980AF157
:1024B000010A0D468245EAD90C98CDE940B50228BB
:1024C00002D10F9DAA1E24E0DDF840A0A8F1180655
:1024D0004FF0000800250024BAF1020F28BF4FF08A
:1024E000020A59F8080F56F8082FD9F80410736833
:1024F00002F099FA02460B464046294601F0EBFEEF
:10250000013480460D465445EBD9CDE942850F9DF7
:10251000EA1E45F298410DF1F8090DF5CC7AC0F6A6
:102520000001032DC0F0D1800AEBC200A0F120030E
:10253000A0F108041593A0F118031493A0F110035F
:102540001393A1F1080A1098A5EB02084FF00009B7
:1025500056464FF0000B002512924045CDF84480BE
:1025600038BF80460E9456F8080F54F8082F71684B
:10257000636802F058FA02460B464846594601F095
:10258000AAFE013581468B464545ECD911993EA8F6
:10259000002400254E1C0D9640F8319000EBC10040
:1025A000D146C0F804B04FF000081098B04238BFD0
:1025B0000646DDF84CB059F8080F5BF8082FD9F83B
:1025C0000410DBF8043002F02EFA02460B462046D7
:1025D000294601F080FE08F1010804460D46B04589
:1025E000E9D90D993EA84FF0000B56464FF0000870
:1025F00040F8314000EBC10045600025119800F122
:1026000002091098CDF84490484538BF8146149C83
:1026100056F8080F54F8082F7168636802F003FA3F
:1026200002460B465846294601F055FE08F10108BE
:1026300083460D46C845EBD911993EA8002440F8C1
:1026400031B000EBC1004FF0000B4560002512983F
:10265000C11E0F981191A0EB01081098C14640458A
:1026600038BF8146159E5AF8080F56F8082FDAF839
:102670000410736802F0D7F902460B46204629463B
:1026800001F029FE0BF1010B04460D46CB45EAD9BA
:102690000DF1F809129A09EBC80045F2984149F882
:1026A0003840043AC0F60001456015980E9C203869
:1026B00015901498203C0F9D2038149013982038C2
:1026C0001390119800287FF43CAFF968481E022847
:1026D000C0F0BE80002900F0E880032940F0BE81F0
:1026E000BDB36E1E09EBC50059F8358059F836B0F8
:1026F000D0F8049015903EA800EBC6001490424616
:102700004B4644685846214601F0E5FD02463EA886
:102710008A46214640F836205846534602F077F85C
:1027200002460B46494640460DF1F80901F0D3FD3B
:1027300049F83500022D1498C0F804A0159841609E
:1027400038BF012602D3002E3546CAD10F9D022D77
:1027500010D200200021049EDDE93E23002E00F06F
:102760004D81DDE9406583F0004385F0004581F04F
:10277000004145E16E1E09EBC50059F8358059F856
:1027800036B0D0F8049015903EA800EBC600149027
:1027900042464B4644685846214601F09CFD02469D
:1027A0003EA88A46214640F836205846534602F055
:1027B0002EF802460B46494640460DF1F80901F055
:1027C0008AFD49F83500032D1498C0F804A0159827
:1027D000416038BF022602D3012E3546CAD80F9D6C
:1027E0000020049E002109EBC50359F835205B68E1
:1027F00001F071FD6C1E032D34BF0224022CABD3FB
:1028000009EBC40359F834205B6801F064FD651ED0
:10281000032C34BF0225022D9ED309EBC50359F8C2
:1028200035205B6801F057FD6C1E032D34BF022478
:10283000022C91D309EBC40359F834205B6801F0F2
:102840004AFD651E032C34BF0225012DCBD883E73A
:102850000C9E002E4ED009EBC50159F83500002220
:102860004968002301F037FD2C468446601E0D4662
:10287000012E44D059F8302009EBC00029464368A6
:10288000604601F028FD8446A01E0D46022E36D07B
:1028900059F8302009EBC00029464368604601F032
:1028A0001AFD8446E01E0D4629E00C9C002C00F029
:1028B000AF8009EBC50159F83500002249680023B3
:1028C00001F009FD6B1E012C00F0A58059F83320A2
:1028D00009EBC3035B6801F0FEFCAB1E022C00F0A9
:1028E0009A8059F8332009EBC3035B6801F0F3FCCD
:1028F000EB1E90E02C464FF0000C00252046032CE8
:102900001CD309EBC006441CD6E9002360462946C7
:1029100001F0E1FC56E9022301F0DDFC56E9042355
:1029200056E9068501F0D7FC42462B4601F0D3FC60
:10293000043CA6F1200684460D46E5D10498624683
:102940002B460028284618BF80F00040DDF808809C
:10295000C8E900C0DDE93E0101F059FF0F9ECEB38A
:102960000124254609EBC403B44238BF013559F8A8
:1029700034205B6801F0AFFCB4422BD2B54229D8B9
:102980002C4609EBC50338BF013459F835205B6884
:1029900001F0A1FCB5421DD2B4421BD8254609EB7B
:1029A000C40338BF013559F834205B6801F093FC4B
:1029B000B4420FD2B5420DD82C4609EBC50338BF3F
:1029C000013459F835205B6801F085FCB54201D22D
:1029D000B442C6D9049A002A18BF81F00041C8E960
:1029E00002013BE00E98023D18380E90FFF7FABB4B
:1029F0000E98033D30380E90FFF7F4BBDDE94065DB
:102A0000029CA6602061C4E90023E560616125E0C5
:102A1000002000212B46032D18D309EBC3065C1CB4
:102A2000D6E9002301F057FC56E9022301F053FCDC
:102A300056E9042356E9068501F04DFC42462B4633
:102A400001F049FC043CA6F12006E9D1049A002AD1
:102A500018BF81F00041029AC2E90001039800F01A
:102A600007000DF5257DBDE8000FF0BDF0B503AF03
:102A70002DE9000786B005460020CDE90400284670
:102A800001F05AFF8146884640F6DB7125F0004090
:102A9000C4F6C951884269D24CF6830245F63073B8
:102AA000C6F6C952C3F6E4734846414601F0BBFF7F
:102AB00000230022C4F2383301F00DFC0023002271
:102AC000CCF2383301F007FC00230022CCF2E013F3
:102AD00005460E4601F0F6FE82462846314601F0D4
:102AE00035FB00224FF6FF730446CFF6C072C4F2E6
:102AF000DF1328463146BAF1000F08BF4FF00044FB
:102B000001F0AAFE0028284631462A46334618BF5F
:102B10006FF0004401F081FE42F2FB130028CBF677
:102B2000F973284631464FF0A04218BF002401F047
:102B30007AFF02460B464846414601F0CCFB46F27E
:102B4000632241F2B40380468946C6F21A12CBF6DC
:102B500051632846314601F066FF02460B46404667
:102B6000494601F0B8FB03460A462BE0C10DFE2999
:102B700009D9484641464A46434601F048FE0346C5
:102B80000A4600241EE06FF0950101EBD054A0EB43
:102B9000C45001F0D1FECDE902010020CDE9004092
:102BA00002A804AA01210123FEF77EFD0446B5F127
:102BB000FF3F02DDDDE9043204E0DDE9043080F0AE
:102BC000004264422046194606B0BDE80007F0BD49
:102BD0000420C4F20100704744F6D4620B4645F26B
:102BE000D8410078C0F60002C0F60001002808BFF6
:102BF00011464FF00F02184608BF082200F0BFBE72
:102C0000704740F280100121C4F24220C0F88011C8
:102C1000016000210160012070477047002181623E
:102C20000162816101618160016070470A604968E9
:102C3000C0E90021704700214FF4E1328171026048
:102C40008180704740F288100121C4F24220C0F810
:102C50008011016000210160704740F28C10012159
:102C6000C4F24220C0F88011016000210160704769
:102C700043F60000C4F201007047007845F280324C
:102C80000B4645F20051C0F60001C0F6000251F8B3
:102C9000201052F82020184600F071BE04214FF297
:102CA000FF33C4F20101CFF6FF030A6800781A402F
:102CB000002808BF02F100720A6070471C3070479C
:102CC00010307047183070470C307047F0B503AFC4
:102CD0002DE9000F87B091F808B0BBF1000F0ED0BE
:102CE0004A7AD1E900430232002C04BF40F60013B7
:102CF000C0F23D0303FB02FA84F001050CE00A6810
:102D000022B1D1F804A00025012405E041F2002AF7
:102D10000125C0F27A0A00244A7B4AF20029039274
:102D200019268A7BC0F24A49CB7A04930B2A0B7B83
:102D300006931346059288BF1A260022BBF1000FA6
:102D40000ED06DB9AAF13775AAEB0903A5F5D845E0
:102D5000B3FA83F3B5FA85F55B096D0943EA050219
:102D600009F1010302929A4527D2059B334403F0EF
:102D70001F032AFA03F5069B053303F0070245F209
:102D800000130192C0F2252325FA02F29A4214D8C8
:102D9000039B0226053303F00708049B25FA08FC71
:102DA00006EB4303DBB2BCFBF3FE49F68073C0F2D3
:102DB000D5039E4598BFCC450BD945F2DC5045F272
:102DC0006862C0F60000C0F600028B2100F0F4F942
:102DD000FEDE43F200630026C0F26E139A4588BF00
:102DE00001264FF0300338BF4FF0FF36002E1CBFD6
:102DF000F6B2FF2E07D046F600463123C0F2DC269D
:102E0000B24588BF322342F2000641F20009C4F203
:102E10000206C4F202093360B4B1D9F8003043F4B9
:102E20008033C9F80030D9F800309B035FBFD9F870
:102E300000305FEA8333D9F800305FEA833303D48C
:102E4000D9F800309B03EED5BBF1000F24D04B7AAC
:102E5000240463F39544D9F8043023F47413234411
:102E6000C9F80430D9F8003043F08073C9F8003055
:102E7000019ED9F800309B015FBFD9F800305FEAAE
:102E80008313D9F800305FEA831303D4D9F80030F4
:102E90009B01EED5022400E0019E029BC0E9005296
:102EA0000122837502FA08F3B240C0E902CAC0F8F1
:102EB00010E043750275887A0C21CFF6BF710028A7
:102EC00018BF04F58004D9F804000840049940EACA
:102ED0008130039940EAC120069940EA0120059912
:102EE00040EA01102044C9F8040007B0BDE8000F13
:102EF000F0BD80687047017D013918BF012140682D
:102F000088407047F0B503AF2DE90007D1E900AC68
:102F100040F600130A6AC0F23D03BAF1000F18BF71
:102F20006346B2B1002B00F0E2804D6AB5FBF3F6C8
:102F3000721E0ED01024AB4288BF0124102A38BF65
:102F400034466343A4F102084FF0010E8A6862B967
:102F500013E041F20023BAF1000FC0F27A034FF000
:102F6000000E18BF63468A683AB1CA68002A00F0AA
:102F7000CA80B3FBF2F4022C32D24FF0070909F1F8
:102F8000190404F01F0223FA02F445F20012C0F201
:102F90002522944238BF2246D1E90465002E08BF9D
:102FA0001546002D00F097806219013AB2FBF5F545
:102FB000032D0ED24FF6F872C0F2FF0202EAC502EC
:102FC00040F20335C0F2040525FA02F68A6992B987
:102FD00019E0EA1E032A07D205268A695AB912E0C7
:102FE0002DD14FF00809CAE7AA1F0726062A38BFC5
:102FF00006268A693AB1CA69002A00F09080B4FBBB
:10300000F2F2022A14D203258A6A7AB1C96A002927
:1030100000F0918005F11D0202F01F0224FA02F275
:10302000B2FBF1F2032A06D2002115E0032113E0DE
:103030000AD10425E8E7052A0AD201210CE0062C72
:1030400026D24FF009099AE7062A26D20525DBE7A2
:103050000321082A38BF0221C1724AF20021C0F2BE
:103060004A4180F80E90591A80F8098080F808E0EB
:103070008EF00102C0E900AC4573067318BF012150
:1030800011438AF0010211438172BDE80007F0BDCF
:103090000C2C07D24FF00A0971E707250C2A38BF1C
:1030A0000625B1E7282C02D24FF00B0967E7602C08
:1030B00002D24FF00C090BE0C02C02D24FF00D09E8
:1030C00006E04FF00F09B4F5C07F38BF4FF00E098E
:1030D00009F11A0455E745F2805045F2AC52C0F6AA
:1030E0000000C0F60002192100F066F8FEDE45F28D
:1030F000805045F27052C0F60000C0F6000219215F
:1031000000F05AF8FEDE45F2805045F29C52C0F6BF
:103110000000C0F60002192100F04EF8FEDE45F274
:10312000805045F2BC52C0F60000C0F600021921E2
:1031300000F042F8FEDE45F2805045F2CC52C0F677
:103140000000C0F60002192100F036F8FEDE72B66B
:10315000704762B67047EFF3108070477047FEE724
:103160007047FEE70068FEE770474AF653004BF2EF
:1031700063214AF6BB5241F6D173CCF26940CFF6D7
:103180008501C9F29172C1F2CB23704780B56F46B9
:1031900086B0049045F2A860C0F60000039102904A
:1031A00045F27860C0F60000019001208DF814000F
:1031B00001A8FFF7D6FFFEDE80B56F4688B09446C3
:1031C0000122019206AA009245F278620023CDE91D
:1031D0000601C0F60002684661460493039302921A
:1031E000FFF7D4FFFEDE80B56F4690B00DF1080CFE
:1031F00006AC8CE80F0043F69770C0F600000F9005
:1032000004A80E9043F69F70C0F6000045F2BC6122
:103210000D9002A80C9002200CAB0090C0F60001AB
:103220002046022200F005F8B9682046FFF7AEFFFD
:10323000FEDE80B56F4686B0D7F808C0624524BF71
:103240000CF1010E964516D201210020019145F2A4
:103250008461C0F600010490039045F2786000910B
:1032600045F29471C0F60000C0F600010290684675
:10327000FFF78CFFFEDE4FF0000E80E80E5006B028
:1032800080BDF0B503AF2DE9000F8BB0924603224D
:10329000DAF8106007AB8DF8282020220692002271
:1032A000002E07C3049202926FD0DAF814000028AF
:1032B00000F09480DAF800404FEA401BDAF808503A
:1032C000013820F078404FF000084FF0000901303D
:1032D000019004EB0900426842B1DDE9070354F8AC
:1032E0000910DB689847002840F08B8006EB080047
:1032F0000069069006EB8900017F8DF82810D0E95F
:103300000221836909937AB1012A08D105EBC10230
:1033100043F26513C0F6000352689A4201D00022BE
:1033200003E055F8311009680122CDE9022156F871
:10333000082041687AB1012A08D105EBC10243F2A5
:103340006513C0F6000352689A4201D0002203E0E0
:1033500055F8311009680122CDE90421416955F879
:10336000310005EBC1014A6802A99047002848D105
:1033700008F1200809F10809C345AAD1DDF8049035
:10338000DAF8040081452FD340E0DAF80C0028B3C6
:10339000DAF80810C60001380DF108080C1DDAF83B
:1033A000001020F060400D1D00F101092A6832B1C3
:1033B000DDE90701CB6855F8041C984708BB54E9C0
:1033C000010241469047E0B90834083E05F108057E
:1033D000ECD1DAF80400814506D317E04FF000097C
:1033E000DAF80400814511D2DAF80000494650F8B5
:1033F000311000EBC9004268DDE90703DB6898473C
:1034000020B101200BB0BDE8000FF0BD00200BB0D3
:10341000BDE8000FF0BDD4D4F0B503AF2DE9000F27
:1034200085B0FE681D461446814600294BD0D9F868
:103430001C8018F0010000EB060A4FF02B0008BFBB
:103440004FF4881004905FEA4870D7F808B045D56B
:10345000102D73D2002D00F0998005F0030CAA08FE
:103460004FF0000000F0A380A0EB8202631CCDE9C6
:103470000265A6466FF003055E19043596F9034010
:1034800096F9041014F1410FC8BF013011F1410F3A
:10349000C8BF013096F9051011F1410FC8BF0130C6
:1034A00096F9061011F1410F02EB0501C8BF01307A
:1034B0000431E1D12A1D029E039D7446BCF1000F28
:1034C00040F079808FE0D9F81C8006F1010A2D20A8
:1034D00004905FEA4870D7F808B0B9D40024D9F84E
:1034E0000000002800F08580CDF80CB0D9F804B0B9
:1034F000D34511D95FEA087025D499F82000ABEBC9
:103500000A0ACDE90146AB46DFE800F08F028902E6
:1035100050464FF0000A88E028462346D9E9054581
:1035200000902946049A204600F0CEF850B34FF0A0
:103530000108404605B0BDE8000FF0BD2046294611
:1035400000F021FA4FE0D9F810002946029030200F
:10355000C9F810004FF0010899F820002346D9F867
:1035600014400190D9F8185089F820802046009125
:10357000049A294600F0A8F850B1404605B0BDE8CD
:10358000000FF0BDEB682046039941E000202AE0DF
:10359000ABEB0A00DDF80CA0B046461C013E6DD036
:1035A0002A692046302190470028F7D06CE000229D
:1035B000BCF1000F17D0A15611F1410FC8BF013067
:1035C000BCF1010F0FD0224492F9011011F1410F0B
:1035D000C8BF0130BCF1020F05D092F9021011F101
:1035E000410FC8BF01308244D9F8000000287FF4A1
:1035F0007BAF28462346D9E9054500902946049A21
:10360000204600F061F800283ED1EB68204659467C
:10361000324605B0BDE8000FBDE8F04018470AF19A
:1036200001014FEA5A004FEA510AD9E90458441CF3
:10363000D9F81860013C06D03269404629469047C7
:103640000028F7D020E0CDF800B04046049A31467B
:10365000019B00F039F8B8B9F3684046DDE9022172
:10366000984788B90024A24522D0326940462946AD
:10367000904701340028F6D0601E1AE0EB6820461F
:1036800051464246984730B14FF00108404605B0D8
:10369000BDE8000FF0BD01984FF0000889F8200048
:1036A0000298C9F81000404605B0BDE8000FF0BD13
:1036B00050464FF00008504538BF4FF001084046D3
:1036C00005B0BDE8000FF0BDF0B503AF4DF8048DB7
:1036D000D7F808801C460D460646B2F5881F08D06C
:1036E0002B6930461146984718B101205DF8048BCC
:1036F000F0BD44B1EB683046214642465DF8048B8C
:10370000BDE8F040184700205DF8048BF0BDD4D42C
:10371000F0B503AF2DE9000F81B08146D0F800C0AD
:1037200080688A465CEA000102D1D9E90501E8E037
:10373000002874D0D9F80C000AEB020E4FF0000BF1
:103740005146461C09E040EA8115A11CABEB040080
:10375000B5F5881F00EB010B61D0013E0C4628D067
:1037600074455CD0214611F9010BB0F1FF3FC5B2A1
:10377000ECDC607805F01F01DF2D00F03F00E2D99E
:10378000A378F02D03F03F0343EA80100DD3E378D4
:1037900001F0070103F03F0343EA801040EA81454E
:1037A000B5F5881F3BD0211DD0E740EA0135E11C6B
:1037B000CCE7744533D094F90000B0F1FF3F04DC4E
:1037C000C1B2E02928BFF02915D2BBF1000F09D002
:1037D000934506D21AF90B0010F1400F02DA0021CE
:1037E00001E0FCD1514600290CBF93468A46BCF14A
:1037F000000F18D182E0A37801F00701607803F090
:103800003F03E67800F03F009B0143EA003006F0FA
:103810003F03184440EA8140B0F5881FD5D1934654
:10382000BCF1000F6AD0D9F80480BBF1100F32D27E
:10383000BBF1000F34D00BF0030C5FEA9B024FF09A
:1038400000002FD0A0EB82020AF101036FF0030603
:103850009D19043695F9034095F9041014F1410FB0
:10386000C8BF013011F1410FC8BF013095F90510F3
:1038700011F1410FC8BF013095F9061011F1410F48
:1038800002EB0601C8BF01300431E1D1321DBCF1A9
:10389000000F0BD123E05046594600F074F81EE0AB
:1038A00000201CE00022BCF1000F18D01AF9021011
:1038B00011F1410FC8BF0130BCF1010F0FD05244CC
:1038C00092F9011011F1410FC8BF0130BCF1020F94
:1038D00005D092F9021011F1410FC8BF01308045A7
:1038E0000CD999F82010A8EB000300205446DFE81B
:1038F00001F013021013184600230DE0D9E9050169
:103900005A46CB68514601B0BDE8000FBDE8F04013
:103910001847591C58084B08D9E904A600F10108BA
:10392000D9F818500093B8F1010806D02A6930463A
:10393000514690470028F6D005E0EB683046214616
:103940005A46984720B1012001B0BDE8000FF0BDF4
:10395000DDF800800024A04508D02A693046514691
:10396000904701340028F6D0611E00E04146002057
:10397000414538BF012001B0BDE8000FF0BDD0E9DE
:103980000503DB681847F0B503AF2DE9000F82B0DF
:103990008146033020F00303A3EB090841450AD315
:1039A000A1EB080E5FEA9E0B05D00EF0030C4B4511
:1039B0005BD10020A0E089B301F0030C8B084FF02D
:1039C000000030D0A0EB830309F101066FF003057E
:1039D0007219043592F9031092F9044011F1410F64
:1039E000C8BF013014F1410FC8BF013092F9051072
:1039F00011F1410FC8BF013092F9061011F1410FCA
:103A000003EB0501C8BF01300431E1D12B1DBCF12E
:103A1000000F0CD102B0BDE8000FF0BD002002B0D5
:103A2000BDE8000FF0BD0023BCF1000FF2D019F982
:103A3000031011F1410FC8BF0130BCF1010FE9D0F3
:103A400003EB090292F9011011F1410FC8BF0130D7
:103A5000BCF1020FDED092F9021011F1410FC8BF84
:103A6000013002B0BDE8000FF0BD6FEA0900184454
:103A7000032802D20020002522E009F101010020E4
:103A80006FF003068D1995F9034095F9042014F1A0
:103A9000410FC8BF013012F1410FC8BF013095F985
:103AA000052012F1410FC8BF013095F9062012F12F
:103AB000410FC8BF013016F1080506F10406E1D137
:103AC0004B4519D019F9051011F1410FC8BF01304C
:103AD000B8F1010F10D005EB090191F9012012F1A5
:103AE000410FC8BF0130B8F1020F05D091F90210A3
:103AF00011F1410FC8BF013009EB08040022BCF1ED
:103B0000000F1AD02EF00301214491F9006016F144
:103B1000410FC8BF0122BCF1010F0ED091F9016025
:103B200016F1410FC8BF0132BCF1020F05D091F967
:103B3000021011F1410FC8BF013210444FF0FF19BC
:103B400011E0002209EA122122F0FF221144ABEB1E
:103B50000A0B08EB8A041AF0030501EB014100EBA4
:103B6000114040F04781BBF1000F3FF453AFBBF170
:103B7000C00FDA4628BF4FF0C00A1AF0FC03A04677
:103B80000193DED06FF00F0101EB8A020121302A90
:103B900001EB121106D20022464611F0030C40F050
:103BA000B480CFE721F00304002245464646009149
:103BB00096E80250043CD6F80C806FEA01094FEAFF
:103BC000D91343EA911121F0FE3111446FEA0C023E
:103BD0004FEAD21242EA9C1222F0FE3211446FEAFE
:103BE0000E024FEAD21242EA9E1222F0FE32114435
:103BF0006FEA08024FEAD21242EA981222F0FE322D
:103C0000114432696FEA02034FEAD31343EA921276
:103C100022F0FE32114472696FEA02034FEAD313B5
:103C200043EA921222F0FE321144B2696FEA0203B3
:103C30004FEAD31343EA921222F0FE321144F269A2
:103C40006FEA02034FEAD31343EA921222F0FE32E4
:103C50001144326A6FEA02034FEAD31343EA921225
:103C600022F0FE321144726A6FEA02034FEAD31364
:103C700043EA921222F0FE321144B26A6FEA020362
:103C80004FEAD31343EA921222F0FE321144F26A51
:103C90006FEA02034FEAD31343EA921222F0FE3294
:103CA0001144326B6FEA02034FEAD31343EA9212D4
:103CB00022F0FE321144726B6FEA02034FEAD31313
:103CC00043EA921222F0FE321144B26B6FEA020311
:103CD0004FEAD31343EA921222F0FE321144F26B00
:103CE00006F140066FEA02034FEAD31343EA921249
:103CF00022F0FE320A447FF45BAF0099A8464FF0F1
:103D0000FF1911F0030C3FF41DAF96E81A40BCF107
:103D1000010F6FEA01054FEAD51545EA911121F02F
:103D2000FE3111446FEA03024FEAD21242EA9312C3
:103D300022F0FE3211446FEA04024FEAD21242EA44
:103D4000941222F0FE3211446FEA0E024FEAD212B0
:103D500042EA9E1222F0FE320A443FF4F3AE06F12C
:103D6000100EBCF1020F9EE82A406FEA01044FEAF0
:103D7000D41444EA911121F0FE3111446FEA030298
:103D80004FEAD21242EA931222F0FE3211446FEA55
:103D900005024FEAD21242EA951222F0FE32114495
:103DA0006FEA0E024FEAD21242EA9E1222F0FE326F
:103DB0000A443FF4C7AE20366ACECC43E40944EA55
:103DC000911121F0FE311144DA43D20942EA9312F3
:103DD00022F0FE321144EA43D20942EA951222F05F
:103DE000FE321144F243D20942EA961222F0FE3228
:103DF0000A44A7E6019B012D58F823106FEA01023F
:103E00004FEAD21242EA911121F0FE3215D008EBAE
:103E10008301022D4B686FEA03064FEAD61646EA85
:103E2000931323F0FE331A4407D08968CB43DB0990
:103E300043EA911121F0FE310A44FF21C0F207014B
:103E400001EA122122F0FF22114401EB014100EBB3
:103E5000114002B0BDE8000FF0BD80B56F468CB0D8
:103E60000078632811D929224243130B642203FBF3
:103E7000120045F2CC62C0F60002C0B232F8100067
:103E8000242227F8020C184602E00A2806D226222D
:103E9000A7F1270340F03000985408E045F2CC62C7
:103EA000C0F6000232F81000252227F8020CC2F1F9
:103EB0002700A7F127031A440023CDE9002045F28B
:103EC00078620846C0F600020121FFF7A5FA0CB09F
:103ED00080BD80B56F468CB0008842F20F728C4670
:103EE000904220D9020940F247335A4342F21073FC
:103EF00041F27B4145F2CC6EC0F6000ED20C02FBC3
:103F0000130083B29B085943490C3EF8113027F83F
:103F1000043C642301FB1300232380B23EF810000D
:103F200027F8020C21E045F2CC626328C0F60002BB
:103F300017D9810841F27B4359436423490C01FBA3
:103F40001300252380B232F8100027F8020C08462F
:103F50000A2809D332F81010981EA7F1270211522F
:103F600009E027230A28F5D2024602F13001581E43
:103F7000A7F127021154C0F12701104445F27862DD
:103F80000023CDE90001C0F6000260460121FFF7E1
:103F900043FA0CB080BDD0E90002D26810470B464E
:103FA000D0E900121846FFF7B3BB21F0004303F13C
:103FB000304202F1016C03F1404202F1FE626245BF
:103FC0000ED2420F20F0604042EAC102B0F1805FA1
:103FD00019D902F18040013001F0004108437047D7
:103FE00040F2000C4242C7F6F07C7CEB030214D294
:103FF000400F40F2FF1240EAC10062F39F5001F00F
:1040000000410843704702F18040E5D102F001020F
:10401000104401F00041084370470022C4F2F072DE
:1040200093420AD240F28132A2EB1352342A0AD9C7
:10403000002001F00041084370474FF0FF4001F0BD
:10404000004108437047F0B503AF4DF8048D4FF0C1
:10405000010E0C464FEA135C6EF31F54C2F12003AD
:1040600020FA02F5B2F1200E24FA02F204FA03F368
:1040700045EA0308ACF1010558BF24FA0EF805F033
:104080003F05C5F12006B5F1200304FA05FC20FA2E
:1040900006F646EA0C0658BF00FA03F600FA05F0E9
:1040A00058BF0020304318BF0120BEF1000F40EA86
:1040B000080058BF002220F060434FEA587040EAE1
:1040C000C200B3F1805F5DF8048BBDE8F04004D915
:1040D000013001F00041084370477FF47DAF00F0EC
:1040E0000102104401F0004108437047002824D029
:1040F000014648BF414280B56F46B1FA81F2C2F134
:104100000B03B2F10B0E21FA03FC40F21D43A3EBAB
:10411000020358BF01FA0EFC1532BEF1000F0CEB82
:10412000035C01FA02F258BF0022BDE8804000F0B3
:1041300000404CEA00011046704700224FF0000C8E
:1041400000F000404CEA000110467047002321F0C7
:104150000042C3F6F0739A423CBF00207047002330
:10416000C4F2E0139A420FD21E22400DA2EB11526C
:1041700040EAC12002F01F0240F00040002920FA6E
:1041800002F048BF4042704700230138C7F6F07381
:1041900072EB03002EBF00206FF0004080EAE17058
:1041A00070470B4611461A4600F047B8D2B20429B0
:1041B00038BFFFF7F6BFD0B502AF4FF00133A1F122
:1041C000040E5343012404EB9E0414F003040AD0AC
:1041D0008446012C4CF8043B0DD160467146BEF17B
:1041E0000C0F19D202E0BEF10C0F15D2BDE8D04081
:1041F0006046FFF7D6BF022C436006D1083908306D
:104200008446BEF10C0F07D2F0E783600C390C3006
:104210008446BEF10C0FE9D31039C0E90033C0E980
:10422000023310300329F7D88446BDE8D0406046F9
:10423000FFF7B7BF0022FFF7B9BFD0B502AF0F2A13
:1042400035D9434213F0030E00EB0E0C0FD003469A
:1042500003F8011B63453FBF03F8011B634503F8E7
:10426000011B634503D203F8011B6345F0D3A2EBA6
:104270000E0E2EF003020CEB0203012A13DBCAB26E
:104280004FF0013462434CF8042B9C450BD24CF8A0
:10429000042B9C453CBF4CF8042B9C4503D24CF8A6
:1042A000042B9C45EFD30EF0030212B912E0034633
:1042B00082B11A4403F8011B93420BD203F8011B8D
:1042C00093423CBF03F8011B934203D203F8011B46
:1042D0009342EFD3D0BD00F0D4B8B0B502AF20F018
:1042E000004221F00043A2F1FF4515F1FF4F46D9EE
:1042F0000124A3F1FF45C8F28004A5423FD39342B5
:104300000B4684BF034608468646C0F3C75C6FF37E
:10431000DF5EC3F3C751BCF1000F3CD01A46002941
:104320006FF3DF5246D04FF0806444EAC20283EA62
:1043300000058C450DD0ACEB01011F2944D84B4240
:1043400003F01F0312FA03F322FA01F218BF42F03E
:10435000010244EACE0100F00043B5F1FF3F3BDD2E
:104360005018010142BF02F0010141EA50000CF176
:10437000010CBCF1FE0F3CDD43F0FF40B0BDB2F1DB
:10438000FF4F02D942F48000B0BDB3F1FF4F55D9C1
:1043900043F48000B0BDBEFA8EF202F11805C2F1FE
:1043A000090C05F01F050EFA05FE1A4600296FF3E9
:1043B000DF52B8D1B2FA82F101F11804C1F109015A
:1043C00004F01F04A240AEE7012244EACE0100F04F
:1043D0000043B5F1FF3FC3DC881A4FF0000E4CD00C
:1043E000BEEB906FC5D1B0FA80F10539ACEB010C92
:1043F00088404FF6FF71BCF1010FC0F27F0110DA67
:10440000ACF1010202F01F0210FA02F2CCF101023B
:104410004FF0000C02F01F0220FA02F018BF40F02B
:10442000010001EAD00141EACC5141EA030E00F05B
:10443000070104290ED90EF10100B0BDB2F1FF4F02
:104440000ED141408646B1F1004F16D10020C7F68B
:10445000C070B0BD11D1C00800F001007044B0BD03
:10446000B3F1FF4F01D10846B0BD22B1002B864603
:104470007FF445AF01E08E460BB17046B0BD0840F9
:10448000B0BDF0B503AF2DE9000F40F2000921F0F7
:104490000045C8F2100923F0004805EB0904461E48
:1044A0004FF0010C74EB090668D308EB0906B2EB78
:1044B0000C0476EB090661D3841A4FF0000675EB05
:1044C0000805944638BF0126002E1CBF84461046BE
:1044D0001A461CBF0A4619460B46C1F30A596FF328
:1044E0001F53C2F30A58B9F1000F64D01546B8F152
:1044F000000F6FF31F5500F0848082EA010EEA007E
:1045000042EA5C72DB0042F4000243EA507B4FEA6D
:10451000CC05C14500F09880A9EB08043F2C00F2BF
:104520009180C4F1200625FA04FC02FA06F64CEA52
:1045300006086642B4F1200C06F03F0658BF22FA86
:104540000CF8C6F1200302FA06FAE24025FA03F35A
:104550004AEA030AB6F1200358BF05FA03FA05FA3E
:1045600006F358BF002353EA0A0318BF012348EAA1
:104570000305BCF1000F58BF002265E040F2000EB9
:104580004442C7F6F07E7EEB050407D245F4002CCA
:10459000864670466146BDE8000FF0BD54427EEB92
:1045A000080480F0E18048F4002C9646704661468D
:1045B000BDE8000FF0BDB0FA80F6002B06F1200632
:1045C00018BFB3FA83F606F1350505F03F05C6F1CD
:1045D0000C09B5F1200403FA05FEC5F1200320FA09
:1045E00003F343EA0E0358BF00FA04F300FA05F0A0
:1045F00058BF00201546B8F1000F6FF31F557FF428
:104600007CAFBCFA8CF4002D04F1200818BFB5FA79
:1046100085F808F1350606F03F06C8F10C08B6F13A
:10462000200405FA06FEC6F120052CFA05F545EA38
:104630000E0558BF0CFA04F50CFA06FC58BF4FF0F3
:10464000000C5AE7002201254BF4000301F0004C56
:10465000C400BEF1FF3F0DDD29195341DA0130D509
:104660005FEA530305F001024FEA310109F1010944
:10467000114326E0611B4FF0000E934151EA030203
:1046800000F09B80BEEBD35F1BD1B1FA81F2002B0F
:1046900002F1200218BFB3FA83F2A2F10806C2F1B8
:1046A0002805A9EB0609B340283A21FA05F543EAA3
:1046B000050358BF01FA02F301FA06F158BF0021C1
:1046C0000EE040F2FE7291450ADD4CF0E0404FF002
:1046D000000E40F07F6C70466146BDE8000FF0BDF3
:1046E000B9F1010F30DAC9F10102A9F1010402F0B8
:1046F0003F0204F03F04C2F12005B2F1200E21FA7E
:1047000002F603FA04F003FA05F546EA0506C4F1D9
:10471000200558BF23FA0EF6D3404FF0000921FAC6
:1047200005F52843B4F1200558BF01FA05F001FA58
:1047300004F158BF0021084318BF0120BEF1000F4B
:1047400046EA000158BF0023CA0842EA437EC3F389
:10475000D30201F0070042EA095204284CEA020C95
:104760001ED91EF1010E21E085EA0E0404432BD16F
:10477000BCF1010682EA000269F580154B406B40EE
:10478000724086468C461A4302BF40F2000CC7F6C0
:10479000F87C4FF0000E70466146BDE8000FF0BD9A
:1047A0007FF4F7AE0EF001001EEB000E4CF1000C92
:1047B00070466146BDE8000FF0BD4FF0000C70463A
:1047C0006146BDE8000FF0BD88EA0E06164306D12B
:1047D00096469C4670466146BDE8000FF0BD50EA23
:1047E000050606D052EA080686468C467FF464AE7B
:1047F000CFE696469C4652EA080604BF02EA000E3F
:1048000003EA010C70466146BDE8000FF0BD83F07D
:104810000043FFF736BEFFF760BD80B56F4640F23C
:10482000000E23F0004C5242C7F6F07E7EEB0C02E5
:1048300021F000414FF000024FF0000338BF012289
:1048400040427EEB010038BF012343EA020080BDF5
:1048500081F00041FFF741BDF0B503AF4DF804BD55
:104860008446002421F0004EDCF10005C7F6F07408
:104870004FF0000074EB0E0517D323F000455642AD
:10488000AC4112D342EA0C0445EA0E0626430CD092
:1048900003EA0100B0F1FF3F0ADDB2EB0C024FF07A
:1048A000000073EB0101B8BF01205DF804BBF0BD4F
:1048B000BCEB02024FF000009941B8BF01205DF847
:1048C00004BBF0BDF0B503AF4DF804BD8446002530
:1048D00021F0004EDCF10004C7F6F0754FF0000047
:1048E00075EB0E0416D323F000445642A54111D3B4
:1048F00042EA0C0044EA0E0630430ED003EA0100FF
:10490000B0F1FF3F0DDDBCEB02024FF0000099411A
:10491000A8BF01205DF804BBF0BD01205DF804BB19
:10492000F0BDB2EB0C024FF0000073EB0101A8BF29
:1049300001205DF804BBF0BD20F00042A2F50001AB
:10494000B1F1FE4F09D24FF0605101EBD201520795
:1049500000F00040014310467047D10DFE290AD9EE
:1049600000214207C7F6F07141EAD00100F0004093
:104970000143104670471AB380B56F46B2FA82F30E
:10498000C3F10B01B3F10B0C22FA01F158BF02FA8B
:104990000CF181F4801E40F28931BCF1000FA1EBD3
:1049A000030103F115034EEA015102FA03F258BF65
:1049B0000022BDE8804000F00040014310467047EF
:1049C0000022002100F00040014310467047FFF72D
:1049D00031BCF0B503AF4DF804BD8446002521F08D
:1049E000004EDCF10004C7F6F0754FF0000075EBE7
:1049F0000E0411D323F000445642A5410CD342EAE1
:104A00000C0044EA0E06304309D08CEA02005940FB
:104A10000843B0FA80F040095DF804BBF0BD012006
:104A20005DF804BBF0BD00F0B3B8F0B503AF4DF8CE
:104A300004BD024648408C461346C2F3C75400F0FA
:104A40000040651E6FF3DF5C6FF3DF53C1F3C75E99
:104A5000FD2D9CBFAEF10105FD2D09D922F00046C8
:104A6000B6F1FF4F2BD942F480005DF804BBF0BDD6
:104A700000210EEB040256184FF0004141EA0C21D0
:104A800043F40002A1FB0212130222D45200A6F149
:104A90007F0342EAD1724900FE2B1EDC012B35DB7D
:104AA0004FF6FF76C0F27F06324042EAC35210430F
:104AB000B1F1004F3BD901305DF804BBF0BD21F0EE
:104AC0000045B5F1FF4F0DD941F480005DF804BBFE
:104AD000F0BDA6F17E03FE2BE0DD40F0FF405DF867
:104AE00004BBF0BDB6F1FF4F06D13DB301F000406D
:104AF00050405DF804BBF0BDB5F1FF4F24D1EEB1DD
:104B000002F0004048405DF804BBF0BDC3F101066F
:104B10001F2E1DD8013B21FA06F5114303F01F0398
:104B2000F240994029431043B1F1004FC3D80FD14F
:104B300002F0010108445DF804BBF0BD0020C7F697
:104B4000C0705DF804BBF0BD002E18BF002D02D16F
:104B50005DF804BBF0BDB6F5000F09D2B3FA83F1DE
:104B600001F11802C1F1090102F01F02934000E0B7
:104B70000021B5F5000FBFF47CAFBCFA8CF202F156
:104B80001805891A05F01F0509310CFA05FC70E7B4
:104B9000F0B503AF2DE9000F83B08E46C3F30A5181
:104BA00001914D1E83EA0E01994601F000410291E8
:104BB000CEF30A51F24684464FF0000060F1000641
:104BC000B1F10108009160F1000B40F2FD74B4EB0B
:104BD00008016FF31F596FF31F5A70EB0B0142D39B
:104BE000611B70EB06013ED34FF00008D1024FEA83
:104BF000C92444EA5252A1FB0CEB42F000464AF4AD
:104C0000801500244FF00009E6FB0CB4A1FB05233E
:104C100012EB0B0254EB0302E1FB05B449F1000275
:104C2000E6FB0542D102DDE90031194401EB08053C
:104C30002AD4610041EADB764FEA4B0141EADE7B90
:104C4000510041EAD4724FEA4E0EA5F2FF350299A7
:104C500040F2FE739D421FDC012D40DB6FF31F52BB
:104C600042EA055281E000262EF00045DCF1000109
:104C7000C7F6F07676EB050117D24EF400216046B8
:104C800003B0BDE8000FF0BDA5F2FE35264602993F
:104C900040F2FE739D42DFDD41F0E04040F07F6175
:104CA000002003B0BDE8000FF0BD23F000445142E6
:104CB00076EB040106D243F40021104603B0BDE8B0
:104CC000000FF0BD85EA060151EA0C016AD152EAF3
:104CD00004007CD003F0004080EA0E01CFE7C5F16C
:104CE00001043F2CCCD8C4F1200026FA04FCB4F116
:104CF00020092EFA04F802FA00F34CEA030C46EA03
:104D00000E03A5F101060BFA00F006F03F0540EA9C
:104D1000080058BF22FA09FCB9F1000F58BF2BFA5E
:104D200009F003FA05F6B5F1200858BF002646EA57
:104D3000000E42EA0B00B8F1000F22FA04F26646B8
:104D400000FA05F0C5F1200523FA05F540EA050053
:104D500058BF03FA08F02BFA04F3B9F1000F58BF5B
:104D6000002340EA030B58BF00221143DEF100028A
:104D70004FF0004070EB0B0206D2701C41F10001B5
:104D800003B0BDE8000FF0BD80EA0B0050EA0E0052
:104D900018D106F00100801941F1000103B0BDE80F
:104DA000000FF0BD84EA0601114318D15CEA05004A
:104DB0000DD00EF0004080EA0301104603B0BDE8BC
:104DC000000FF0BD304603B0BDE8000FF0BD00217C
:104DD0000020C7F6F87103B0BDE8000FF0BD5CEA33
:104DE000050127D052EA040124D0B5F5801F26D250
:104DF000BCFA8CF1BAF1000F01F1200118BFBAFA28
:104E00008AF101F1350303F03F03C1F10C08C3F14E
:104E100020050AFA03F62CFA05F545EA060AB3F16D
:104E2000200658BF0CFA06FA0CFA03FC58BF4FF0E4
:104E3000000C06E0029903B0BDE8000FF0BD4FF092
:104E40000008B4F5801FBFF4D1AEB2FA82F1B9F117
:104E5000000F01F1200118BFB9FA89F101F1350302
:104E600003F03F03A8EB0101C3F1200501F10C0899
:104E700009FA03F622FA05F545EA0609B3F1200618
:104E800058BF02FA06F902FA03F258BF0022ADE653
:104E9000FFF7CBBDFFF7CEB970460421084203D11E
:104EA000EFF3088000F004B8EFF3098000F000B8D9
:044EB000FEE7D4D471
:104EC0004E614E00C04E0008030000005374617232
:104ED0007420740A44697361626C6564537461720E
:104EE00074206C0A696E66696E697465E44E000828
:104EF000080000007372632F6D61696E2E7273007B
:104F0000F44E00080B0000007301000005000000D3
:104F100063616C6C656420604F7074696F6E3A3ABF
:104F2000756E77726170282960206F6E2061206035
:104F30004E6F6E65602076616C756500F44E0008FA
:104F40000B000000250000002C000000F44E0008BB
:104F50000B0000002700000027000000456E74656C
:104F60007220636F6D6D616E6420277427206F72ED
:104F700020276C27200A00005C4F00081A00000060
:104F80006F01000804000000040000008F0F0008FB
:104F9000890E0008710F00085265636569766564C3
:104FA000202C206D61782064757479200A0000003F
:104FB000984F000809000000A14F00080B000000F6
:104FC000AC4F000801000000CC4E000808000000B3
:104FD000656E6420740A0000D04F000806000000CF
:104FE000DC4E00080800000056616C696420636FA5
:104FF0006D6D616E64733A20277427206F722027CD
:105000006C270A00E84F00081B000000456E642072
:105010004C6F6F700A0000000C500008090000007F
:1050200063616C6C65642060526573756C743A3AA8
:10503000756E77726170282960206F6E20616E2016
:1050400060457272602076616C7565006D010008C4
:1050500001000000010000007B2C0008F44E000855
:105060000B00000036010000240000002F686F6D67
:10507000652F666162696F2F2E636172676F2F7291
:10508000656769737472792F7372632F696E6465D3
:10509000782E6372617465732E696F2D36663137B1
:1050A0006432326262613135303031662F73746D33
:1050B0003332663178782D68616C2D302E31302E88
:1050C000302F7372632F62622E7273617373657215
:1050D00074696F6E206661696C65643A202850457A
:1050E00052495F414444524553535F5354415254D3
:1050F0002E2E3D504552495F414444524553535F23
:10510000454E44292E636F6E7461696E7328266163
:10511000646472296C5000085F0000002D000000DC
:105120000500000063616C6C6564206052657375F6
:105130006C743A3A756E77726170282960206F6ED0
:1051400020616E2060457272602076616C7565002A
:105150002F0D00080100000001000000D92B0008FD
:105160002F686F6D652F666162696F2F2E636172A4
:10517000676F2F72656769737472792F7372632F0B
:10518000696E6465782E6372617465732E696F2D24
:1051900036663137643232626261313530303166C1
:1051A0002F73746D3332663178782D68616C2D30D1
:1051B0002E31302E302F7372632F74696D65722F0C
:1051C00070776D2E72730000605100086600000059
:1051D00048010000270000002F686F6D652F666191
:1051E00062696F2F2E636172676F2F7265676973D3
:1051F0007472792F7372632F696E6465782E63728F
:10520000617465732E696F2D366631376432326290
:1052100062613135303031662F73746D33326631EF
:1052200078782D68616C2D302E31302E302F7372CE
:10523000632F62622E7273617373657274696F6E2D
:10524000206661696C65643A2028504552495F4187
:105250004444524553535F53544152542E2E3D50B3
:105260004552495F414444524553535F454E44299A
:105270002E636F6E7461696E73282661646472298F
:10528000D85100085F0000002D000000050000005C
:105290002F686F6D652F666162696F2F2E63617273
:1052A000676F2F72656769737472792F7372632FDA
:1052B000696E6465782E6372617465732E696F2DF3
:1052C0003666313764323262626131353030316690
:1052D0002F73746D3332663178782D68616C2D30A0
:1052E0002E31302E302F7372632F73657269616CAB
:1052F0002E727300905200086300000078010000D5
:105300000F0000000000000000000000000000008E
:10531000617474656D707420746F2064697669645B
:1053200065206279207A65726F696D706F73736939
:10533000626C6520626175642072617465000000B2
:105340002953000814000000905200086300000078
:105350007901000005000000870E0008040000002D
:10536000040000008F0F0008890E0008710F00086C
:10537000030000000400000004000000060000001C
:105380000700000005000000070000000600000004
:1053900083F9A200444E6E00FC291500D157270066
:1053A000DD34F50062DBC0003C999500419043007C
:1053B0006351FE00BBDEAB00B761C5003A6E24004E
:1053C000D24D42004906E00009EA2E001C92D100AD
:1053D000EB1DFE0029B11C00E83EA700F535820058
:1053E00044BB2E009CE98400B4267000417E5F001F
:1053F000D6913900538339009CF439008B5F8400C7
:1054000028F9BD00F81F3B00DEFF97000F9805004C
:10541000112FEF000A5A8B006D1F6D00CF7E3600F2
:1054200009CB2700464FB7009E663F002DEA5F007C
:10543000BA277500E5EBC7003D7BF100F73907009F
:1054400092528A00FB6BEA001FB15F00085D8D007D
:10545000300356007BFC4600F0AB6B0020BCCF0055
:1054600036F49A00E3A91D005E619100081BE60076
:1054700085996500A0145F008D40680080D8FF000A
:1054800027734D0006063100CA561500C9A87300DF
:105490007BE260006B8CC00000000040FB21F93F04
:1054A000000000002D44743E000000809846F83C47
:1054B0000000006051CC783B00000080831BF03975
:1054C0000000004020257A38000000802282E33668
:1054D000000000001DF3693557726F6E67417574E7
:1054E0006F52656C6F61644672616D696E674E6F75
:1054F0006973654F76657272756E50617269747901
:10550000E7540008EE540008F3540008FA54000869
:105510002F686F6D652F666162696F2F2E636172F0
:10552000676F2F72656769737472792F7372632F57
:10553000696E6465782E6372617465732E696F2D70
:10554000366631376432326262613135303031660D
:105550002F73746D3332663178782D68616C2D301D
:105560002E31302E302F7372632F7263632E72735D
:1055700010550008600000002B0200000D00000024
:10558000617474656D707420746F206469766964E9
:1055900065206279207A65726F000000105500085E
:1055A00060000000450200001300000010550008D4
:1055B000600000006102000020000000105500089B
:1055C000600000006A02000013000000105500088F
:1055D000600000008002000013000000617373652A
:1055E0007274696F6E206661696C65643A207379C4
:1055F00073636C6B203C3D2037325F3030305F305E
:1056000030302026262068636C6B203C3D203732EA
:105610005F3030305F3030302026262070636C6B76
:1056200031203C3D2033365F3030305F3030302029
:1056300026265C6E202020202020202070636C6BAA
:1056400032203C3D2037325F3030305F3030302008
:10565000262620616463636C6B203C3D2031345FFF
:105660003030305F303030001055000860000000EE
:10567000BD02000009000000696E76616C6964205B
:1056800061726773785600080C0000006C696272E2
:105690006172792F636F72652F7372632F666D74F9
:1056A0002F6D6F642E7273006931000800000000D6
:1056B000010000006B3100083A2000007856000815
:1056C00000000000B8560008020000003030303101
:1056D000303230333034303530363037303830399E
:1056E0003130313131323133313431353136313796
:1056F000313831393230323132323233323432357C
:105700003236323732383239333033313332333361
:105710003334333533363337333833393430343147
:10572000343234333434343534363437343834392D
:105730003530353135323533353435353536353725
:10574000353835393630363136323633363436350B
:1057500036363637363836393730373137323733F1
:1057600037343735373637373738373938303831D7
:1057700038323833383438353836383738383839BD
:1057800039303931393239333934393539363937B5
:10579000393839398C5600081B00000035010000EB
:0457A0000D000000F8
:0400000508000131BD
:00000001FF
