:020000040800F2
:1000000000500020310100084D0D0008951B00082C
:100010004D0D00084D0D00084D0D000800000000BA
:100020000000000000000000000000004D0D00086E
:100030004D0D0008000000004D0D00084D0D00089A
:100040004D0D00084D0D00084D0D00084D0D000828
:100050004D0D00084D0D00084D0D00084D0D000818
:100060004D0D00084D0D00084D0D00084D0D000808
:100070004D0D00084D0D00084D0D00084D0D0008F8
:100080004D0D00084D0D00084D0D00084D0D0008E8
:100090004D0D00084D0D00084D0D00084D0D0008D8
:1000A0004D0D00084D0D00084D0D00084D0D0008C8
:1000B0004D0D00084D0D00084D0D00084D0D0008B8
:1000C0004D0D00084D0D00084D0D00084D0D0008A8
:1000D0004D0D00084D0D00084D0D00084D0D000898
:1000E0004D0D00084D0D0008000000004D0D0008EA
:1000F0004D0D00084D0D00084D0D00084D0D000878
:100100004D0D00084D0D00084D0D00084D0D000867
:100110004D0D00084D0D00084D0D00084D0D000857
:100120004D0D00084D0D00084D0D00084D0D000847
:1001300000F00DFE084809490022814201D004C0A8
:10014000FBE707480749084A814202D008CA08C0AD
:10015000FAE700F00DF800DE0000002004000020A7
:10016000000000200000002058220008704770475F
:1001700080B56F4600F001F8FEDE80B56F46AAB08C
:1001800000F0E0FD044600F0D3FD00F0DEFD40F29B
:100190000100C2F200000578002D04BF01210170AA
:1001A000E00708BF00F0C6FD002D40F0058100F01B
:1001B000C9FD044600F0BCFD00F0C7FD40F20000A0
:1001C000C2F200000578002D04BF01210170E00794
:1001D00008BF00F0AFFD002D40F0FA8000F015FBE5
:1001E0000DF10408404600F011FB13A9B8E87C00AB
:1001F0000DF18C0908467CC098E87C007CC048F270
:100200008040C0F21E001E9001201D90484600F064
:100210006AFC0DF134087A1E4946404600F04EFB58
:1002200000F0E7FA07F8290C00F034FB00F027FB98
:10023000C44649469CE87D007DC113A8494600F0AC
:100240002BFA40F600040B21C4F2010423AD6068D0
:1002500061F307106060284600F0E5FA4FF416508D
:1002600000F0C6FA20AE02462946304600F0D6FA23
:10027000A7F129003146424600F0CAF8206840F64E
:100280001045C4F20105032120F0F00020604FF07A
:100290000050286055F80C0C61F3175045F80C0C11
:1002A000404600F087FA00F084FA229022A80A2142
:1002B00000F0C0FAC1B2022940F0968041F6B03B8E
:1002C00041F63C460DF1800A23AC4FF00009C0F620
:1002D000000BC0F60006781E209041F634404FF027
:1002E0000108C0F600003146239050462246CDF862
:1002F0009C90CDF89080CDE925B900F0DAFD4FF45F
:100300000050286002E0B8F1640F18D008F101082D
:1003100041F688004CF6C35108E04A4292B2B2F569
:10032000CA4F40D2013801F10401ECD00AB2B2F157
:10033000FF3FF2DD8AB2B2F5CA4FF3D32AE0781E4E
:10034000209001203146249041F66040C0F6000024
:10035000224623905046CDF89C90CDE925B900F077
:10036000A8FD4FF000504CF6C351286041F68800BC
:1003700008E04A4292B2B2F5CA4F14D2013801F1F4
:100380000401A8D00AB2B2F1FF3FF2DD8AB2B2F5A1
:10039000CA4FF3D3D00941F6CC32C0F60002CA21CD
:1003A00000F018FDFEDED00941F6BC32C0F60002B6
:1003B000CA2100F00FFDFEDE41F6DC3041F60842B6
:1003C000C0F60000C0F600022B2100F0ECFCFEDEBF
:1003D00041F6DC3041F61842C0F60000C0F60002DB
:1003E0002B2100F0E0FCFEDE8DF88C0041F6A440ED
:1003F000C0F6000041F69443009041F6684023AAFD
:10040000C0F60000C0F600032B2100F004FDFEDE64
:10041000F0B503AF2DE9000F87B041F2000B06469F
:10042000C4F2020B90465846894600F043FA014652
:100430006FF31301B1F1804F70D138254001C4F240
:100440000025012440F2000A2C505846CFF6F07ADD
:1004500000F032FA00EA0A01B1F1804F5ED14001AA
:100460002C50584600F028FA00EA0A01B1F1804FFA
:1004700054D14001002129503046347800F095F9DC
:1004800001684FF6FB72CFF6FF02002C01EA020171
:1004900008BF01F100710160D9E9006400F005FABC
:1004A0000546404600F01DFB66B3B0FBF6F0102891
:1004B00040D314F47F01A86018BF0121C4F30720C2
:1004C0000903022808BF01F50071002818BF01F5D3
:1004D0008061E86842F20C0220F4B0500844E86001
:1004E0002969E0B221F4405141EA0030286143F625
:1004F0000C00C4F2010001681143016007B0BDE8BF
:10050000000FF0BD41F6E05041F6D052C0F60000B9
:10051000C0F60002192100F046FCFEDE41F6135041
:1005200041F65C52C0F60000C0F60002492100F01E
:100530003AFCFEDE00200121029141F61061059097
:10054000C0F60001049041F61860C0F60000019169
:1005500041F61861039001A8C0F6000100F00DFCFF
:10056000FEDE7047F0B503AF4DF8048D82B0002079
:100570000C468029019002D28DF8044038E0022018
:100580002146B4F5006F0CD260F39F11C02040EA01
:1005900094108DF805108DF804004FF00008012626
:1005A00029E060F39F11B4F5803F0FD28DF806105B
:1005B000E02141EA14318DF80410A1094FF001083F
:1005C00060F39F118DF80510002614E08DF80710D8
:1005D000A10960F39F118DF80610210B60F39F11A4
:1005E0008DF80510A00C1E2161F3DF008DF80400CA
:1005F00000264FF000089DF8045000F056F90168FD
:100600000906FAD5802C45601BD39DF8054000F003
:100610004CF901680906FAD5446096B99DF8064080
:1006200000F043F901680906FAD5B8F1000F4460FB
:1006300007D19DF8074000F038F901680906FAD59E
:100640004460002002B05DF8048BF0BD80B56F46B9
:1006500082B000680A4641F62861019001A8C0F600
:10066000000100F026FC02B080BD9AB1F0B503AFE6
:100670004DF804BD8D180C46267800F016F9016877
:100680000906FAD501344660AC42F5D15DF804BBE9
:10069000BDE8F04000207047F0B503AF2DE9000F32
:1006A00081B0044640F2A410884642F20845C4F2E4
:1006B00042200121C0F88011C4F201052A6808F126
:1006C0000C0B22F001022A6001600021016048F653
:1006D00059312868C0F24F1140F4F01020F00200A8
:1006E000286055F8040C20F4106000F5006045F80F
:1006F000040C686A20F470006862286840F0010009
:1007000028609BE8000E4FEA1920A0FB01010E09AA
:10071000304600F011FB42F2A050C0F226008245A4
:100720000BD2BAF1000F34D0B9FBFAF0B6EB400FA0
:1007300003D24000801B00F0FFFA286840F0080058
:1007400028602868000709D52868000744BF286882
:100750005FEA007002D528680007F2D4286840F0EC
:10076000040028602868400709D52868400744BF6E
:1007700028685FEA407002D528684007F2D4032059
:10078000208398E8070084E8070E01B0BDE8000F59
:10079000F0BD41F6406041F6B462C0F60000C0F61C
:1007A0000002192100F0FFFAFEDE0420C4F201006D
:1007B000704770474EF21001CEF200010A6842F015
:1007C00004020A600068704741F6C4620B4641F6B5
:1007D000CC610078C0F60002C0F60001002808BF16
:1007E00011464FF00F02184608BF082200F0DFBE86
:1007F000704740F280100121C4F24220C0F88011FD
:100800000160002101600120704770470021816272
:100810000162816101618160016070470A6049681D
:10082000C0E90021704700214FF4E132817102607C
:1008300081807047A9B10068B0FBF1F00021013858
:10084000B1EB106F1CBF012070474EF21002CEF2C8
:10085000000250609160106840F0010010600220BA
:10086000704780B56F4641F6607041F64872C0F639
:100870000000C0F60002192100F095FAFEDE40F2F9
:1008800088100121C4F24220C0F8801101600021CB
:100890000160704740F28C100121C4F24220C0F880
:1008A0008011016000210160704743F60000C4F22E
:1008B00001007047183070470C307047F0B503AF37
:1008C0002DE9000F87B091F808B0BBF1000F0ED0F2
:1008D0004A7AD1E900430232002C04BF40F60013EB
:1008E000C0F23D0303FB02FA84F001050CE00A6844
:1008F00022B1D1F804A00025012405E041F2002A2C
:100900000125C0F27A0A00244A7B4AF200290392A8
:1009100019268A7BC0F24A49CB7A04930B2A0B7BB7
:1009200006931346059288BF1A260022BBF1000FDA
:100930000ED06DB9AAF13775AAEB0903A5F5D84514
:10094000B3FA83F3B5FA85F55B096D0943EA05024D
:1009500009F1010302929A4527D2059B334403F023
:100960001F032AFA03F5069B053303F0070245F23D
:1009700000130192C0F2252325FA02F29A4214D8FC
:10098000039B0226053303F00708049B25FA08FCA5
:1009900006EB4303DBB2BCFBF3FE49F68073C0F207
:1009A000D5039E4598BFCC450BD942F24C0042F28C
:1009B000D802C0F60000C0F600028B2100F0F3F967
:1009C000FEDE43F200630026C0F26E139A4588BF34
:1009D00001264FF0300338BF4FF0FF36002E1CBF0A
:1009E000F6B2FF2E07D046F600463123C0F2DC26D1
:1009F000B24588BF322342F2000641F20009C4F238
:100A00000206C4F202093360B4B1D9F8003043F4ED
:100A10008033C9F80030D9F800309B035FBFD9F8A4
:100A200000305FEA8333D9F800305FEA833303D4C0
:100A3000D9F800309B03EED5BBF1000F24D04B7AE0
:100A4000240463F39544D9F8043023F47413234445
:100A5000C9F80430D9F8003043F08073C9F8003089
:100A6000019ED9F800309B015FBFD9F800305FEAE2
:100A70008313D9F800305FEA831303D4D9F8003028
:100A80009B01EED5022400E0019E029BC0E90052CA
:100A90000122837502FA08F3B240C0E902CAC0F825
:100AA00010E043750275887A0C21CFF6BF710028DB
:100AB00018BF04F58004D9F804000840049940EAFE
:100AC0008130039940EAC120069940EA0120059946
:100AD00040EA01102044C9F8040007B0BDE8000F47
:100AE000F0BD80687047F0B503AF2DE90007D1E98C
:100AF00000AC40F600130A6AC0F23D03BAF1000FE1
:100B000018BF6346B2B1002B00F0E2804D6AB5FB1E
:100B1000F3F6721E0ED01024AB4288BF0124102AB7
:100B200038BF34466343A4F102084FF0010E8A68CF
:100B300062B913E041F20023BAF1000FC0F27A0368
:100B40004FF0000E18BF63468A683AB1CA68002A9F
:100B500000F0CA80B3FBF2F4022C32D24FF0070946
:100B600009F1190404F01F0223FA02F445F20012FD
:100B7000C0F22522944238BF2246D1E90465002EF6
:100B800008BF1546002D00F097806219013AB2FBAC
:100B9000F5F5032D0ED24FF6F872C0F2FF0202EA0D
:100BA000C50240F20335C0F2040525FA02F68A694F
:100BB00092B919E0EA1E032A07D205268A695AB9B2
:100BC00012E02DD14FF00809CAE7AA1F0726062A0E
:100BD00038BF06268A693AB1CA69002A00F09080B7
:100BE000B4FBF2F2022A14D203258A6A7AB1C96AE6
:100BF000002900F0918005F11D0202F01F0224FA85
:100C000002F2B2FBF1F2032A06D2002115E0032121
:100C100013E00AD10425E8E7052A0AD201210CE0F5
:100C2000062C26D24FF009099AE7062A26D2052576
:100C3000DBE70321082A38BF0221C1724AF20021F2
:100C4000C0F24A4180F80E90591A80F8098080F865
:100C500008E08EF00102C0E900AC4573067318BFCE
:100C6000012111438AF0010211438172BDE800079E
:100C7000F0BD0C2C07D24FF00A0971E707250C2AAA
:100C800038BF0625B1E7282C02D24FF00B0967E7E1
:100C9000602C02D24FF00C090BE0C02C02D24FF0B6
:100CA0000D0906E04FF00F09B4F5C07F38BF4FF0D3
:100CB0000E0909F11A0455E741F6F07042F21C02E0
:100CC000C0F60000C0F60002192100F06CF8FEDE4C
:100CD00041F6F07041F6DC72C0F60000C0F600028A
:100CE000192100F060F8FEDE41F6F07042F20C02CD
:100CF000C0F60000C0F60002192100F054F8FEDE34
:100D000041F6F07042F22C02C0F60000C0F600027C
:100D1000192100F048F8FEDE41F6F07042F23C0284
:100D2000C0F60000C0F60002192100F03CF8FEDE1B
:100D300072B6704762B67047012101EB500001386E
:100D4000FDD17047EFF3108070477047FEE77047A2
:100D5000FEE70068FEE770474AF653004BF2632156
:100D60004AF6BB5241F6D173CCF26940CFF6850109
:100D7000C9F29172C1F2CB23704780B56F4686B03D
:100D8000049042F23810C0F600000391029042F243
:100D9000E800C0F60000019001208DF8140001A8C1
:100DA000FFF7D6FFFEDE80B56F4688B0944601227D
:100DB000019206AA009242F2E8020023CDE9060160
:100DC000C0F6000268466146049303930292FFF75F
:100DD000D4FFFEDE80B56F468EB0CDE9020141F64C
:100DE0008B2002A9C0F600000D9004ADCDE90B01E7
:100DF00003A842F25C110A9002200AAB144600904C
:100E0000C0F600012846022200F02BF828462146B1
:100E1000FFF7B3FFFEDE80B56F4690B00DF1080C12
:100E200006AC8CE80F0041F68130C0F600000F9050
:100E300004A80E9041F68930C0F6000042F270110D
:100E40000D9002A80C9002200CAB0090C0F600019F
:100E50002046022200F005F8B9682046FFF78DFF12
:100E6000FEDE80B56F4686B0D7F808C0624524BF65
:100E70000CF1010E964516D201210020019142F29B
:100E8000F401C0F600010490039042F2E8000091E2
:100E900042F24821C0F60000C0F600010290684608
:100EA000FFF76BFFFEDE4FF0000E80E80E5006B03D
:100EB00080BDF0B503AF2DE9000F8BB09246032241
:100EC000DAF8106007AB8DF8282020220692002265
:100ED000002E07C3049202926FD0DAF814000028A3
:100EE00000F09480DAF800404FEA401BDAF808502E
:100EF000013820F078404FF000084FF00009013031
:100F0000019004EB0900426842B1DDE9070354F89F
:100F10000910DB689847002840F08B8006EB08003A
:100F20000069069006EB8900017F8DF82810D0E952
:100F30000221836909937AB1012A08D105EBC10224
:100F400040F65353C0F6000352689A4201D0002283
:100F500003E055F8311009680122CDE9022156F865
:100F6000082041687AB1012A08D105EBC10240F698
:100F70005353C0F6000352689A4201D0002203E0A6
:100F800055F8311009680122CDE90421416955F86D
:100F9000310005EBC1014A6802A99047002848D1F9
:100FA00008F1200809F10809C345AAD1DDF8049029
:100FB000DAF8040081452FD340E0DAF80C0028B3BA
:100FC000DAF80810C60001380DF108080C1DDAF82F
:100FD000001020F060400D1D00F101092A6832B1B7
:100FE000DDE90701CB6855F8041C984708BB54E9B4
:100FF000010241469047E0B90834083E05F1080572
:10100000ECD1DAF80400814506D317E04FF000096F
:10101000DAF80400814511D2DAF80000494650F8A8
:10102000311000EBC9004268DDE90703DB6898472F
:1010300020B101200BB0BDE8000FF0BD00200BB0C7
:10104000BDE8000FF0BDD4D4F0B503AF2DE9000F1B
:1010500085B0FE681D461446814600294BD0D9F85C
:101060001C8018F0010000EB060A4FF02B0008BFAF
:101070004FF4881004905FEA4870D7F808B045D55F
:10108000102D73D2002D00F0998005F0030CAA08F2
:101090004FF0000000F0A380A0EB8202631CCDE9BA
:1010A0000265A6466FF003055E19043596F9034004
:1010B00096F9041014F1410FC8BF013011F1410F2E
:1010C000C8BF013096F9051011F1410FC8BF0130BA
:1010D00096F9061011F1410F02EB0501C8BF01306E
:1010E0000431E1D12A1D029E039D7446BCF1000F1C
:1010F00040F079808FE0D9F81C8006F1010A2D209C
:1011000004905FEA4870D7F808B0B9D40024D9F841
:101110000000002800F08580CDF80CB0D9F804B0AC
:10112000D34511D95FEA087025D499F82000ABEBBC
:101130000A0ACDE90146AB46DFE800F08F028902DA
:1011400050464FF0000A88E028462346D9E9054575
:1011500000902946049A204600F0CEF850B34FF094
:101160000108404605B0BDE8000FF0BD2046294605
:1011700000F021FA4FE0D9F8100029460290302003
:10118000C9F810004FF0010899F820002346D9F85B
:1011900014400190D9F8185089F820802046009119
:1011A000049A294600F0A8F850B1404605B0BDE8C1
:1011B000000FF0BDEB682046039941E000202AE0D3
:1011C000ABEB0A00DDF80CA0B046461C013E6DD02A
:1011D0002A692046302190470028F7D06CE0002291
:1011E000BCF1000F17D0A15611F1410FC8BF01305B
:1011F000BCF1010F0FD0224492F9011011F1410FFF
:10120000C8BF0130BCF1020F05D092F9021011F1F4
:10121000410FC8BF01308244D9F8000000287FF494
:101220007BAF28462346D9E9054500902946049A14
:10123000204600F061F800283ED1EB682046594670
:10124000324605B0BDE8000FBDE8F04018470AF18E
:1012500001014FEA5A004FEA510AD9E90458441CE7
:10126000D9F81860013C06D03269404629469047BB
:101270000028F7D020E0CDF800B04046049A31466F
:10128000019B00F039F8B8B9F3684046DDE9022166
:10129000984788B90024A24522D0326940462946A1
:1012A000904701340028F6D0601E1AE0EB68204613
:1012B00051464246984730B14FF00108404605B0CC
:1012C000BDE8000FF0BD01984FF0000889F820003C
:1012D0000298C9F81000404605B0BDE8000FF0BD07
:1012E00050464FF00008504538BF4FF001084046C7
:1012F00005B0BDE8000FF0BDF0B503AF4DF8048DAB
:10130000D7F808801C460D460646B2F5881F08D05F
:101310002B6930461146984718B101205DF8048BBF
:10132000F0BD44B1EB683046214642465DF8048B7F
:10133000BDE8F040184700205DF8048BF0BDD4D420
:10134000F0B503AF2DE9000F81B08146D0F800C0A1
:1013500080688A465CEA000102D1D9E90501E8E02B
:10136000002874D0D9F80C000AEB020E4FF0000BE5
:101370005146461C09E040EA8115A11CABEB040074
:10138000B5F5881F00EB010B61D0013E0C4628D05B
:1013900074455CD0214611F9010BB0F1FF3FC5B295
:1013A000ECDC607805F01F01DF2D00F03F00E2D992
:1013B000A378F02D03F03F0343EA80100DD3E378C8
:1013C00001F0070103F03F0343EA801040EA814542
:1013D000B5F5881F3BD0211DD0E740EA0135E11C5F
:1013E000CCE7744533D094F90000B0F1FF3F04DC42
:1013F000C1B2E02928BFF02915D2BBF1000F09D0F6
:10140000934506D21AF90B0010F1400F02DA0021C1
:1014100001E0FCD1514600290CBF93468A46BCF13D
:10142000000F18D182E0A37801F00701607803F083
:101430003F03E67800F03F009B0143EA003006F0EE
:101440003F03184440EA8140B0F5881FD5D1934648
:10145000BCF1000F6AD0D9F80480BBF1100F32D272
:10146000BBF1000F34D00BF0030C5FEA9B024FF08E
:1014700000002FD0A0EB82020AF101036FF00306F7
:101480009D19043695F9034095F9041014F1410FA4
:10149000C8BF013011F1410FC8BF013095F90510E7
:1014A00011F1410FC8BF013095F9061011F1410F3C
:1014B00002EB0601C8BF01300431E1D1321DBCF19D
:1014C000000F0BD123E05046594600F074F81EE09F
:1014D00000201CE00022BCF1000F18D01AF9021005
:1014E00011F1410FC8BF0130BCF1010F0FD05244C0
:1014F00092F9011011F1410FC8BF0130BCF1020F88
:1015000005D092F9021011F1410FC8BF013080459A
:101510000CD999F82010A8EB000300205446DFE80E
:1015200001F013021013184600230DE0D9E905015C
:101530005A46CB68514601B0BDE8000FBDE8F04007
:101540001847591C58084B08D9E904A600F10108AE
:10155000D9F818500093B8F1010806D02A6930462E
:10156000514690470028F6D005E0EB68304621460A
:101570005A46984720B1012001B0BDE8000FF0BDE8
:10158000DDF800800024A04508D02A693046514685
:10159000904701340028F6D0611E00E0414600204B
:1015A000414538BF012001B0BDE8000FF0BDD0E9D2
:1015B0000503DB681847F0B503AF2DE9000F82B0D3
:1015C0008146033020F00303A3EB090841450AD309
:1015D000A1EB080E5FEA9E0B05D00EF0030C4B4505
:1015E0005BD10020A0E089B301F0030C8B084FF021
:1015F000000030D0A0EB830309F101066FF0030572
:101600007219043592F9031092F9044011F1410F57
:10161000C8BF013014F1410FC8BF013092F9051065
:1016200011F1410FC8BF013092F9061011F1410FBD
:1016300003EB0501C8BF01300431E1D12B1DBCF122
:10164000000F0CD102B0BDE8000FF0BD002002B0C9
:10165000BDE8000FF0BD0023BCF1000FF2D019F976
:10166000031011F1410FC8BF0130BCF1010FE9D0E7
:1016700003EB090292F9011011F1410FC8BF0130CB
:10168000BCF1020FDED092F9021011F1410FC8BF78
:10169000013002B0BDE8000FF0BD6FEA0900184448
:1016A000032802D20020002522E009F101010020D8
:1016B0006FF003068D1995F9034095F9042014F194
:1016C000410FC8BF013012F1410FC8BF013095F979
:1016D000052012F1410FC8BF013095F9062012F123
:1016E000410FC8BF013016F1080506F10406E1D12B
:1016F0004B4519D019F9051011F1410FC8BF013040
:10170000B8F1010F10D005EB090191F9012012F198
:10171000410FC8BF0130B8F1020F05D091F9021096
:1017200011F1410FC8BF013009EB08040022BCF1E0
:10173000000F1AD02EF00301214491F9006016F138
:10174000410FC8BF0122BCF1010F0ED091F9016019
:1017500016F1410FC8BF0132BCF1020F05D091F95B
:10176000021011F1410FC8BF013210444FF0FF19B0
:1017700011E0002209EA122122F0FF221144ABEB12
:101780000A0B08EB8A041AF0030501EB014100EB98
:10179000114040F04781BBF1000F3FF453AFBBF164
:1017A000C00FDA4628BF4FF0C00A1AF0FC03A0466B
:1017B0000193DED06FF00F0101EB8A020121302A84
:1017C00001EB121106D20022464611F0030C40F044
:1017D000B480CFE721F0030400224546464600913D
:1017E00096E80250043CD6F80C806FEA01094FEAF3
:1017F000D91343EA911121F0FE3111446FEA0C0232
:101800004FEAD21242EA9C1222F0FE3211446FEAF1
:101810000E024FEAD21242EA9E1222F0FE32114428
:101820006FEA08024FEAD21242EA981222F0FE3220
:10183000114432696FEA02034FEAD31343EA92126A
:1018400022F0FE32114472696FEA02034FEAD313A9
:1018500043EA921222F0FE321144B2696FEA0203A7
:101860004FEAD31343EA921222F0FE321144F26996
:101870006FEA02034FEAD31343EA921222F0FE32D8
:101880001144326A6FEA02034FEAD31343EA921219
:1018900022F0FE321144726A6FEA02034FEAD31358
:1018A00043EA921222F0FE321144B26A6FEA020356
:1018B0004FEAD31343EA921222F0FE321144F26A45
:1018C0006FEA02034FEAD31343EA921222F0FE3288
:1018D0001144326B6FEA02034FEAD31343EA9212C8
:1018E00022F0FE321144726B6FEA02034FEAD31307
:1018F00043EA921222F0FE321144B26B6FEA020305
:101900004FEAD31343EA921222F0FE321144F26BF3
:1019100006F140066FEA02034FEAD31343EA92123C
:1019200022F0FE320A447FF45BAF0099A8464FF0E4
:10193000FF1911F0030C3FF41DAF96E81A40BCF1FB
:10194000010F6FEA01054FEAD51545EA911121F023
:10195000FE3111446FEA03024FEAD21242EA9312B7
:1019600022F0FE3211446FEA04024FEAD21242EA38
:10197000941222F0FE3211446FEA0E024FEAD212A4
:1019800042EA9E1222F0FE320A443FF4F3AE06F120
:10199000100EBCF1020F9EE82A406FEA01044FEAE4
:1019A000D41444EA911121F0FE3111446FEA03028C
:1019B0004FEAD21242EA931222F0FE3211446FEA49
:1019C00005024FEAD21242EA951222F0FE32114489
:1019D0006FEA0E024FEAD21242EA9E1222F0FE3263
:1019E0000A443FF4C7AE20366ACECC43E40944EA49
:1019F000911121F0FE311144DA43D20942EA9312E7
:101A000022F0FE321144EA43D20942EA951222F052
:101A1000FE321144F243D20942EA961222F0FE321B
:101A20000A44A7E6019B012D58F823106FEA010232
:101A30004FEAD21242EA911121F0FE3215D008EBA2
:101A40008301022D4B686FEA03064FEAD61646EA79
:101A5000931323F0FE331A4407D08968CB43DB0984
:101A600043EA911121F0FE310A44FF21C0F207013F
:101A700001EA122122F0FF22114401EB014100EBA7
:101A8000114002B0BDE8000FF0BDF0B503AF2DE985
:101A9000000F8DB0046842F28018A7F1430C0B468A
:101AA00042F210718C42C0F600083FD341F25979DE
:101AB0004EF2FF0E0020CDF2B71941F27B4A4FF0F3
:101AC000640BC0F2F55E0293A4FB09360CEB000533
:101AD0006246043874454FEA563303FB11461C46F0
:101AE0001FFA86FC4FEA9C01944601FB0AF14FEA7B
:101AF000514138F8112001FB1B61A5F8232089B260
:101B000038F81110A5F8251042F21071DCD81C46E7
:101B1000029B00F12701632C0BD820460A2819D319
:101B200038F8100002392CF8010017E02721632C47
:101B3000F3D9A0B241F27B428008023950436422BB
:101B4000400C00FB124292B238F812202CF801200F
:101B50000A28E5D2013930300CF80100C1F1270024
:101B600042F2E8026144C0F60002CDE900101846D6
:101B700001210023FFF768FA0DB0BDE8000FF0BDAA
:101B8000D0E90002D26810470B46D0E9001218468F
:101B9000FFF7D6BB70460421084203D1EFF308805B
:101BA00000F004B8EFF3098000F000B8FEE7D4D4E9
:101BB0007372632F6D61696E2E727300B01B000823
:101BC0000B000000B800000011000000B01B00086E
:101BD0000B000000B50000001000000063616C6C99
:101BE000656420604F7074696F6E3A3A756E7772F3
:101BF0006170282960206F6E206120604E6F6E65D5
:101C0000602076616C756500B01B00080B00000059
:101C10001B0000002C000000B01B00080B0000009F
:101C20001D000000270000005374617274204C6F87
:101C30006F700A00281C00080B0000006F010008EC
:101C400004000000040000006B06000865050008A1
:101C50004D060008456E64204C6F6F700A0000004E
:101C6000541C00080900000063616C6C656420600E
:101C7000526573756C743A3A756E77726170282983
:101C800060206F6E20616E20604572726020766108
:101C90006C7565006D010008010000000100000086
:101CA000C9070008B01B00080B0000004D00000031
:101CB0001A0000002F686F6D652F666162696F2FD3
:101CC0002E636172676F2F72656769737472792F03
:101CD0007372632F696E6465782E637261746573C5
:101CE0002E696F2D3666313764323262626131356A
:101CF000303031662F73746D3332663178782D68E9
:101D0000616C2D302E31302E302F7372632F626252
:101D10002E7273617373657274696F6E2066616988
:101D20006C65643A2028504552495F41444452450D
:101D300053535F53544152542E2E3D504552495FE8
:101D4000414444524553535F454E44292E636F6EC0
:101D50007461696E7328266164647229B41C00087A
:101D60005F0000002D000000050000002F686F6D6F
:101D7000652F666162696F2F2E636172676F2F72C4
:101D8000656769737472792F7372632F696E646506
:101D9000782E6372617465732E696F2D36663137E4
:101DA0006432326262613135303031662F73746D66
:101DB0003332663178782D68616C2D302E31302EBB
:101DC000302F7372632F73657269616C2E727300AA
:101DD0006C1D000863000000780100000F00000087
:101DE000617474656D707420746F206469766964C1
:101DF00065206279207A65726F696D706F7373699F
:101E0000626C652062617564207261746500000017
:101E1000F91D0008140000006C1D0008630000009C
:101E200079010000050000006305000804000000BF
:101E3000040000006B060008650500084D06000858
:101E4000617474656D707420746F20646976696460
:101E500065206279207A65726F2F686F6D652F66D5
:101E60006162696F2F2E636172676F2F7265676998
:101E7000737472792F7372632F696E6465782E6341
:101E800072617465732E696F2D3666313764323234
:101E90006262613135303031662F66756769742D45
:101EA000302E332E372F7372632F726174652E724A
:101EB00073000000591E0008580000004B0200008B
:101EC0000100000044697361626C656457726F6E53
:101ED000674175746F52656C6F61642F686F6D65D3
:101EE0002F666162696F2F2E636172676F2F726553
:101EF0006769737472792F7372632F696E64657882
:101F00002E6372617465732E696F2D366631376486
:101F100032326262613135303031662F73746D3325
:101F200032663178782D68616C2D302E31302E304C
:101F30002F7372632F74696D65722F636F756E7482
:101F400065722E7273000000DB1E00086A0000003C
:101F5000000100001300000000000000000000006D
:101F6000617474656D707420746F2064697669643F
:101F700065206279207A65726F2F686F6D652F66B4
:101F80006162696F2F2E636172676F2F7265676977
:101F9000737472792F7372632F696E6465782E6320
:101FA00072617465732E696F2D3666313764323213
:101FB0006262613135303031662F73746D33326651
:101FC0003178782D68616C2D302E31302E302F73A2
:101FD00072632F7263632E7273000000791F000812
:101FE000600000002B0200000D0000000000000057
:101FF000617474656D707420746F206469766964AF
:1020000065206279207A65726F000000791F0008F0
:10201000600000004502000013000000791F000866
:10202000600000006102000020000000791F00082D
:10203000600000006A02000013000000791F000821
:1020400060000000800200001300000061737365EF
:102050007274696F6E206661696C65643A20737989
:1020600073636C6B203C3D2037325F3030305F3023
:1020700030302026262068636C6B203C3D203732B0
:102080005F3030305F3030302026262070636C6B3C
:1020900031203C3D2033365F3030305F30303020EF
:1020A00026265C6E202020202020202070636C6B70
:1020B00032203C3D2037325F3030305F30303020CE
:1020C000262620616463636C6B203C3D2031345FC5
:1020D0003030305F30303000791F00086000000081
:1020E000BD02000009000000696E76616C69642021
:1020F00061726773E82000080C0000006C6962726E
:102100006172792F636F72652F7372632F666D74BE
:102110002F6D6F642E7273696E646578206F7574AD
:10212000206F6620626F756E64733A207468652054
:102130006C656E2069732000570D000800000000D8
:1021400001000000590D0008206275742074686554
:1021500020696E64657820697320000017210008EB
:102160002000000048210008120000003A20000072
:10217000E8200008000000006C21000802000000B8
:102180003030303130323033303430353036303733
:102190003038303931303131313231333134313519
:1021A00031363137313831393230323132323233FF
:1021B00032343235323632373238323933303331E5
:1021C00033323333333433353336333733383339CB
:1021D00034303431343234333434343534363437C3
:1021E00034383439353035313532353335343535A9
:1021F000353635373538353936303631363236338F
:102200003634363536363637363836393730373174
:10221000373237333734373537363737373837395A
:102220003830383138323833383438353836383752
:102230003838383939303931393239333934393538
:102240003936393739383939FC2000081B0000008D
:08225000350100000D00000043
:0400000508000131BD
:00000001FF
