:020000040800F2
:100000000050002031010008837A00088198000820
:10001000837A0008837A0008837A000800000000D1
:10002000000000000000000000000000837A0008CB
:10003000837A000800000000837A0008837A0008B1
:10004000837A0008837A0008837A0008837A00089C
:10005000837A0008837A0008837A0008837A00088C
:10006000837A0008837A0008837A0008837A00087C
:10007000837A0008837A0008837A0008837A00086C
:10008000837A0008837A0008837A0008837A00085C
:10009000837A0008837A0008837A0008837A00084C
:1000A000837A0008837A0008837A0008837A00083C
:1000B000837A0008837A0008837A0008837A00082C
:1000C000837A0008837A0008837A0008837A00081C
:1000D000837A0008837A0008837A0008837A00080C
:1000E000837A0008837A000800000000837A000801
:1000F000837A0008837A0008837A0008837A0008EC
:10010000837A0008837A0008837A0008837A0008DB
:10011000837A0008837A0008837A0008837A0008CB
:10012000837A0008837A0008837A0008837A0008BB
:1001300007F0A8FC084809490022814201D004C008
:10014000FBE707480749084A814202D008CA08C0AD
:10015000FAE700F0CFFA00DE0000002004000020E3
:10016000000000200000002088AC0008F0B503AFBC
:100170002DE9000F87B041F2000B0646C4F2020BD6
:1001800090465846894607F030FA01466FF313014E
:10019000B1F1804F70D138254001C4F2002501240F
:1001A00040F2000A2C505846CFF6F07A07F01FFABA
:1001B00000EA0A01B1F1804F5ED140012C5058464F
:1001C00007F015FA00EA0A01B1F1804F54D140015D
:1001D000002129503046347807F066F901684FF65F
:1001E000FB72CFF6FF02002C01EA020108BF01F109
:1001F00000710160D9E9006407F0E1F90546404665
:1002000007F00AFB66B3B0FBF6F0102840D314F4F5
:100210007F01A86018BF0121C4F307200903022849
:1002200008BF01F50071002818BF01F58061E8687A
:1002300042F20C0220F4B0500844E8602969E0B2B0
:1002400021F4405141EA0030286143F60C00C4F229
:10025000010001681143016007B0BDE8000FF0BD67
:1002600049F6D01049F6BC12C0F60000C0F60002F4
:10027000192107F034FCFEDE49F6FF0049F648126A
:10028000C0F60000C0F60002492107F028FCFEDE9F
:1002900000200121029149F600210590C0F60001DD
:1002A000049049F60820C0F60000019149F60821A3
:1002B000039001A8C0F6000107F0FBFBFEDE7047CB
:1002C000F0B503AF4DF8048D82B000200C468029B4
:1002D000019002D28DF8044038E002202146B4F5A6
:1002E000006F0CD260F39F11C02040EA94108DF88B
:1002F00005108DF804004FF00008012629E060F396
:100300009F11B4F5803F0FD28DF80610E02141EA2D
:1003100014318DF80410A1094FF0010860F39F110A
:100320008DF80510002614E08DF80710A10960F380
:100330009F118DF80610210B60F39F118DF80510A9
:10034000A00C1E2161F3DF008DF8040000264FF0A1
:1003500000089DF8045007F032F901680906FAD543
:10036000802C45601BD39DF8054007F028F90168F3
:100370000906FAD5446096B99DF8064007F01FF9C2
:1003800001680906FAD5B8F1000F446007D19DF85D
:10039000074007F014F901680906FAD54460002007
:1003A00002B05DF8048BF0BD80B56F4682B0006886
:1003B0000A4649F61821019001A8C0F6000107F08D
:1003C00009FF02B080BD9AB1F0B503AF4DF804BD8E
:1003D0008D180C46267807F0F2F801680906FAD560
:1003E00001344660AC42F5D15DF804BBBDE8F04095
:1003F0000020704780B56F4682B0008804230091CA
:1004000001B280EAE132C00BA2EBE1310C2200F034
:1004100070FE02B080BD80B56F4682B000880423B4
:10042000009101B280EAE132C00BA2EBE1310A2275
:1004300000F05FFE02B080BD70477047F0B503AFBB
:100440004DF8048D8CB002AC2421204609F016FA38
:1004500005E0032102684068042940F0968007F017
:10046000AEF80168CA07F4D18A0709D44A0709D44B
:100470000A0709D4890609D404210429EFD084E0AD
:100480000021E7E70121E5E70221E3E740680025D5
:10049000C0B20A2828D10A202946009002A80A22C0
:1004A000012306F045FF00F47F01B1F5003F06D0BF
:1004B000C1035EBF0CB05DF8048BF0BD052007F8EA
:1004C000110C49F67820C0F6000049F65C23009034
:1004D00049F63020C0F60000A7F11102C0F6000373
:1004E0002B2107F034FBFEDE4FF0C008022603E0AC
:1004F0004068C0B20A28CED041B2002902D41F2DD4
:1005000017D80CE0A5F11F0111F1210F11D348EA12
:100510009011615566F39F100A994D1C0A9560551C
:100520000A98451C0A9504E00321026840680429E2
:1005300016D107F044F80168CA07F5D18A0709D433
:100540004A0709D40A0709D48906D1D40421042909
:10055000EFD005E00021E8E70121E6E70221E4E72A
:1005600049F6982007F8111CC0F6000049F68823C8
:10057000009049F63020A7F11102C0F60000C0F645
:1005800000032B2107F0E3FAFEDE49F6A82007F866
:10059000111CC0F60000E9E7F0B503AF4DF8048D7B
:1005A0008CB002AC2421204609F068F905E0032153
:1005B00002684068042940F0968007F000F801685E
:1005C000CA07F4D18A0709D44A0709D40A0709D40B
:1005D000890609D404210429EFD084E00021E7E74B
:1005E0000121E5E70221E3E740680025C0B20A28BF
:1005F00028D10C202946009002A80A22012306F0E7
:1006000097FE00F47F01B1F5003F06D0C1035EBF45
:100610000CB05DF8048BF0BD052007F8110C49F60D
:10062000B820C0F6000049F65C23009049F630205F
:10063000C0F60000A7F11102C0F600032B2107F05D
:1006400086FAFEDE4FF0C008022603E04068C0B222
:100650000A28CED041B2002902D41F2D17D80CE0B1
:10066000A5F11F0111F1210F11D348EA9011615535
:1006700066F39F100A994D1C0A9560550A98451C0F
:100680000A9504E0032102684068042916D106F0A7
:1006900096FF0168CA07F5D18A0709D44A0709D429
:1006A0000A0709D48906D1D404210429EFD005E032
:1006B0000021E8E70121E6E70221E4E749F6C82046
:1006C00007F8111CC0F6000049F68823009049F68F
:1006D0003020A7F11102C0F60000C0F600032B2164
:1006E00007F035FAFEDE49F6D82007F8111CC0F6EF
:1006F0000000E9E780B56F4600F002F8FEDED4D4D2
:1007000080B56F46B6B007F0B8F9044607F0ABF90C
:1007100007F0B6F940F20100C2F200000578002DA2
:1007200004BF01210170E00708BF07F09EF9002D0A
:1007300040F05D8307F0A1F9044607F094F907F053
:100740009FF940F20000C2F200000578002D04BFBE
:1007500001210170E00708BF07F087F9002D40F084
:10076000528306F0D1FE0DF10408404606F0CDFE9E
:1007700013A9B8E87C000DF1BC0908467CC098E8D4
:100780007C007CC048F28040C0F21E001E90012018
:100790001D90484607F042F80DF134087A1E49468C
:1007A000404606F026FF06F0A3FE07F8590C06F0B7
:1007B000FBFE06F0EEFE4146CC4691E87D00494640
:1007C0008CE87D0013A806F0E6FD40F600050B213D
:1007D000C4F201052FAE686861F307106860304607
:1007E00006F0A0FE4FF4165006F081FE29AC02463A
:1007F0003146204606F091FEA7F1590021464246B7
:10080000FFF7B4FC28684FF00051032220F0F000FD
:10081000286040F60440C4F20100C160016862F340
:1008200017510160404606F044FE06F041FE20905C
:1008300020A80A2106F07DFEC1B2022940F0EF8215
:1008400049F6302A49F6683420AD791E0DF1A40826
:100850000022C0F6000AC0F6000440F6444B40F601
:100860004349012016E049F66834309049F6645057
:1008700029910021C0F60000C0F600042F903391AA
:100880004046CDE931A12146324607F0A3FC0022C3
:10089000791E0120309049F66030C0F600002991A1
:1008A0002F90404633922146CDE931A2324607F0DF
:1008B00091FC05E0032102684068042940F083822E
:1008C00006F07DFE0168CA07F4D18A0709D44A07F9
:1008D00009D40A0709D4890609D404210429EFD0D0
:1008E00071E20021E7E70121E5E70221E3E7406843
:1008F000C0B261285ED00DF1A408791E73284FF0B4
:100900000100B0D10022299149F68C31CDE931A204
:1009100049F6683A34460020C0F60001C0F6000AE5
:10092000339001262F91404651462246309607F0DB
:1009300051FCFFF731FEADF89C00781E2890002096
:1009400033900220309049F6A430C0F600005146A2
:100950002F9040F2F530C0F6000022462A9027A8DA
:10096000299028A8CDE9318607F034FC4FF2BD303C
:100970000136CFF6FF700446284606F0FFFDC1B2EF
:100980000229F9D0032940F00A825C452046B8BF0D
:1009900001304C45EFDDB6F57A7FE7D1544649F694
:1009A000302A01202FAE0022C0F6000A0DF1A40863
:1009B000791E6FE7781E2990012049F66834D046E9
:1009C000309049F6E0300DF1A40A0021C0F6000095
:1009D000C0F600042F9033915046CDE93181214675
:1009E000324607F0F7FBFFF7D7FD27F8520C781EC9
:1009F0002890002033900220309049F6F830C0F65D
:100A0000000021462F900120CDE931A040F2F530C1
:100A1000C0F6000032462A90A7F15200299028A87B
:100A200007F0D8FB781E299001200021309049F66C
:100A30003840C0F6000033912F905046CDE9318107
:100A40002146324607F0C6FBFFF7F8FCADF88800F8
:100A5000781E2890002033900220309049F64C40B8
:100A6000C0F6000021462F900120CDE931A040F2D0
:100A70001740C0F6000032462A9022A8299028A8E4
:100A800007F0A8FB781E299001200021309049F63C
:100A90005C40C0F6000033912F905046CDE9318183
:100AA0002146324607F096FBFFF7C8FC27F84E0CAC
:100AB000002033900220309049F67040C0F60000CC
:100AC00021462F900120CDE931A040F21740C0F619
:100AD000000032462A90A7F14E00299028A8A7F1DD
:100AE0000108CDF8A08007F075FBFFF7A7FCADF873
:100AF0008C00002033900220309049F69040C0F6E0
:100B0000000021462F900120CDE931A040F217408E
:100B1000C0F6000032462A9023A8299028A8CDF8D4
:100B2000A08007F057FB37F8522C37F84E1CBDF861
:100B3000880000F07BF927F84A0C0020339003204E
:100B4000309049F6B840C0F60000ADF890102F90F4
:100B5000022040F21741CDE931A024A8C0F60001DF
:100B60002C913246CDE92A10A7F14A00299028A8F5
:100B70002146CDF8A08007F02DFB37F94A0C4DF641
:100B80008051BDF89020CDF8A0804FF0000841437F
:100B9000ADF8942002EBD2335246CDF8B4801BB2AC
:100BA000090CA1EB630127F8461C42F28021CFF625
:100BB000FF71484340F21741C0F600013491000C28
:100BC000A0EB630027F8420C04202A9049F6D84095
:100BD000C0F6000029900320CDE92B60A7F1420068
:100BE000CDE9321025A8CDE93010A7F146002F90AD
:100BF00028A8214607F0EEFA37F9460C0023B0F199
:100C0000FF3FC8BF0123BDF99410002958BF02332C
:100C100037F9422C002A58BF04335E1E052E20D817
:100C2000BDF88C300FF2080404EB8604A74600BF21
:100C300000F00AB800F019B800F025B800F031B89B
:100C400000F03CB800F047B85018C21893B202EB5D
:100C5000D33212B2C1EB6208C0EB6201501006221F
:100C600045E000200021002241E01044C1188BB271
:100C700001EBD3310BB2C2EB6301C0EB63004FEA6F
:100C80006308022233E00A18981A83B200EBD330CB
:100C900003B201EB630002EB63014FEA6308012238
:100CA00025E001445A1893B202EBD33212B2C1EBE1
:100CB0006208C0EB62005110042218E011185A1AA1
:100CC00093B202EBD33212B201EB620800EB620185
:100CD000501005220BE05018191A8BB201EBD331DA
:100CE00009B202EB610800EB61004910032227F80A
:100CF0003E0C002033900220309049F6F840C0F6B8
:100D0000000049F668342F9049F25340C0F60000C5
:100D10002FAE2A90A7F13900299028A8C0F6000428
:100D20000123ADF898102146ADF89C80A7F1010889
:100D300007F8392C3246CDF8A0800DF1A408329383
:100D4000CDF8C48007F046FA002027A92D90042092
:100D50002A9049F61050C0F6000042462990032020
:100D6000CDE92B6040F21740C0F60000A7F1010A60
:100D7000CDE93201A7F13E013490CDE9300126A83A
:100D80002F9028A82146CDF8A0A007F023FA5146BD
:100D900049F6302A00220120C0F6000A7AE58DF8D3
:100DA000BC0049F6C430C0F6000049F6B4330090E8
:100DB00049F630202FAAC0F60000C0F600032B2110
:100DC00006F0C5FEFEDE49F66C5049F68823C0F6F3
:100DD00000008DF8BC10009049F63020C0F60000ED
:100DE0002FAAC0F600032B2106F0B1FEFEDE49F665
:100DF000E82049F61432C0F60000C0F600022B21AC
:100E000006F06DFEFEDE49F6E82049F62432C0F613
:100E10000000C0F600022B2106F061FEFEDE8DF818
:100E2000BC0049F67C50C0F60000BEE7F0B503AF49
:100E30002DE9000749F67B3613B2CFF6FF76B342B1
:100E400007DA4FF480424FF4806C00254FF0000E1B
:100E500000E14CF6BD5ACFF6FF7AAAF5C956B34267
:100E600021DA46F286434FF6E076134449F68C5475
:100E70003340C0F60004AAEB02021B09A2F5C952D6
:100E8000E35E1D1102EA0603AE461B09E35E4FEA6C
:100E9000231C4FF6E0731A4049F68C531209C0F632
:100EA00000039A5AD6E091466FF4C9589A4503DD7B
:100EB00044F66336164403E0984526DDA8EB0206A7
:100EC0004FF6E07E06EA0E069A454FEA161549F6F9
:100ED0008C56C0F60006755BC5F100052DB24FEAD1
:100EE000251C0CDD44F663331344AAEB020202EA2C
:100EF0000E021209B25E4FEA221E7546A0E0984526
:100F00001BDD43F24326941931E0002B07D496B23F
:100F1000B6F5C95F58D841F62116B61A02E041F677
:100F2000211616444FF6E0752E4049F68C553609C9
:100F3000C0F60005AE5F4FEA261C002B16D496B211
:100F4000B6F5C95F4D4605D943F24325AE4280F060
:100F50009780AD1A4FF6E0762E4049F68C55C0F6D4
:100F600000053609AE5F4FEA261E17E054424FF6E1
:100F7000E07649F68C552640C0F6000598454FEAC4
:100F80001616AE5BC6F1000636B24FEA261E03DD2A
:100F900043F24324144428E0002B25D494B2B4F542
:100FA000C95F05D943F24325AC4215D2A5EB02092E
:100FB0004FF6E07349F68C5403EA0903C0F60004C7
:100FC0001B09E35E1D1126E043F24325AE426BD2BE
:100FD00041F62116961B73E744F66335AC4269D29D
:100FE00043F24324141B00E054424FF6E0752C40BA
:100FF00049F68C5598454FEA1414C0F600052C5B51
:10100000C4F1000424B24FEA241502DDA8EB020368
:1010100016E0002B3CD493B2B3F5C95F03D841F678
:1010200021139A1A35E743F24324A34203D241F62F
:101030002113D31A04E044F66334A3422CD2A31A3A
:101040004FF6E0721A4049F68C53C0F600031209BD
:101050009A5A524200B209B28601890106FB0CF08D
:1010600012B2121101FB0EF35143000CA0EB13401E
:1010700006FB05F3090C01EB1341BDE80007F0BDC9
:1010800044F66335AE421BD243F24326941B6EE70F
:1010900041F621131A44FCE646F28644A34215D2D7
:1010A00044F66333D21AF4E644F66335AE4210D206
:1010B000AE1A05E746F28645AC4213D2AC1A94E765
:1010C00046F28645AE4211D2AC1A50E74FF4804248
:1010D000C0E746F28645AE42BFF4B3AE44F663368F
:1010E000961B1FE74FF480420025B3E74FF4804280
:1010F000ABE6F0B503AF2DE9000FADB09B4605465A
:10110000102A04D032B94FF0000A0C460CE000243B
:101110008A4609E002F00F008BB223FA00F4504235
:1011200000F00F0001FA00FAD7F808905FFA8BF090
:101130000428CDE9065B50D2584606F0B4F80646BE
:10114000204606F0D6F8002E00F0D883814650469F
:1011500006F0D6F8A6F1010B80465844B0FBF6F530
:10116000B86807F0C0FB8D4238BF294601280BEB59
:10117000090008BF0D46B0FBF6F108A82A4605F0A5
:1011800033FDB9F1090F78D2204606F0C3F8079C69
:101190000546204606F087F80646204606F08BF8FE
:1011A000814608A805F050FD002900F07B82431815
:1011B00011F0030C06F0070B00F05A82EEB205EABC
:1011C000090526FA0BFE1E4606F8015DBCF1010F6B
:1011D00040F0EA81754633464AE202902046049286
:1011E00006F087F80546504606F08AF80646284677
:1011F00006F068F88046484607F075FB012803D0E2
:10120000049806F05FF8064608A84146324605F005
:10121000EBFC092D1AD2204606F07CF8044608A8FB
:1012200005F012FD002958D0461E0D464FF000096A
:10123000204606F052F80446C8B250EA090071553B
:1012400018BF01208144013DF2D148E008A805F013
:10125000FBFC002941D0461E0D464FF000092046F8
:1012600006F059F80446C8B250EA0900715518BF93
:1012700001208144013DF2D131E0079D284606F06E
:1012800012F80646284606F016F8814608A805F02A
:10129000DBFC002900F0068200EB010C11F0030ECC
:1012A00006F00F0B00F0E8806646A3B204EA0904DA
:1012B00006F8014D23FA0BF3BEF1010F00F0B681E1
:1012C000664623FA0BF403EA090306F8023DBEF171
:1012D000020F40F0A4812346A8E14FF00009B8684E
:1012E000ABF1050407F0FFFA049E80460394092E33
:1012F00066D2B9F101004FF0000646F1000BB8F1DB
:10130000000F08BF41460D1A38BF354648451FFA41
:101310008AF028BF0D46B8F1000F4FEA102008BF31
:101320000D46E4B2022C28BF0D46012C88BF0126D1
:1013300005F0F0FF8246B8F1000F18BF56EA0B0027
:1013400003D00998A84288BF099508A805F098FC21
:101350000029059100F037818146B8F1000F00F0B7
:101360008D80022C80F0F68000240BE019F804B088
:10137000BBF1000F18BF4FF0010B05983446B04287
:1013800000F021815FFA8AF0661C00EB80004FEAD2
:10139000400AC109504609F8041005F0A8FFC0B280
:1013A0000A28C0F00D815FEACB70DFD0013D00F06C
:1013B00007814FF0010B05983446B042E2D102E1BB
:1013C000B9F101024FF0000040F1000BB8F1000F3D
:1013D00008BF41468D1A38BF05464A4528BF0D460D
:1013E000B8F1000F08BF0D46E4B2022C28BF0D462D
:1013F000012C88BF0120B8F1000F18BF50EA0B0084
:1014000003D00998A84288BF099508A805F038FCC0
:101410000029059100F091808146B8F1000F5DD060
:10142000022C80F0AC8000260AE019F806B0BBF16F
:10143000000F18BF4FF0010B05982646A0427CD044
:101440001FFA8AF0741C00EB80004FEA400AC10BBF
:10145000504609F8061005F069FF80B20A286BD3E0
:101460005FEACB70E1D0013D66D04FF0010B0598EB
:101470002646A042E4D160E02346D6E05FFA8AF037
:1014800000EB80004FEA400AC1095FFA8AF40A2C97
:1014900089F800101ED3504605F029FFC0B20A2873
:1014A00018D3049A802102F00700082A21FA00F0DC
:1014B00000EB80004FEA400808BF4FF005085FFAD4
:1014C00088F5A54206D8504605F011FFC0B2A842E3
:1014D00080F0B4810025681C099074E01FFA8AF03E
:1014E00000EB80004FEA400AC10B1FFA8AF50A2D73
:1014F00089F800101ED3504605F018FF80B20A2864
:1015000018D306F00F004FF40041102E21FA00F01E
:1015100000EB80004FEA400B08BF4FF0050B1FFAAD
:101520008BF6AE4206D8504605F000FF80B2B042BE
:1015300080F0B38100256C1C09940FFA8AF0B0F199
:10154000FF3F4FF000051FFA8AF0C8BF0125B0F534
:10155000004444E000245FFA8AF000EB80004FEA88
:10156000400AC109504609F80410013405F0BFFED5
:10157000C0B20A2826D30598A042ECD123E000246B
:101580001FFA8AF000EB80004FEA400AC10B504678
:1015900009F80410013405F0C9FE80B20A28CBD343
:1015A0000598A042ECD1C8E71E462EFA0BF50EEACC
:1015B000090E06F802EDBCF1020F52D1334657E096
:1015C000099600E009944FFA8AF0B0F1FF3F4FF01E
:1015D00000055FFA8AF0C8BF0125B0F1800418BF8A
:1015E00001240398DDF81C80BE68C0B2012807D82A
:1015F00002980638B0FA80F0410908A805F060FBAF
:101600000096002D18BF4FF0FF34069A08A84146F7
:10161000234605F0C7FB2DB0BDE8000FF0BD09EA79
:1016200004060CF8036D24FA0BF36646042939D33B
:1016300099B221FA0BF109EA010421FA0BF121FA1E
:101640000BF509EA050206F8042D09EA030225FA5A
:101650000BF3864201EA0901B470F2707170E7D1B0
:1016600020E025FA0BF605EA090503F8035D354687
:10167000042917D3E9B221FA0BF101EA090621FA8C
:101680000BF121FA0BF404EA090203F8042D05EA30
:10169000090224FA0BF5834201EA09019E70DA700F
:1016A0005970E7D1B8F1090F2DD21FFA8AF0000A5C
:1016B00005F030FEDDF81C800646404605F0F3FDDF
:1016C000054608A805F0DCFAD7F808E0002943D061
:1016D0006B4211F0030C05F0070203F007033FD043
:1016E00006FA02F4F6B2DE40054605F8016BBCF1DD
:1016F000010F42D0E6B29440DE40BCF1020F4670CA
:1017000036D1851C39E0DDF81C80404605F0CBFD64
:10171000044608A805F0B4FAD7F808E0F1B163422E
:1017200011F0030C04F00F0203F00F031CD01FFA9A
:101730008AF50AFA02F625FA03F4054605F8014B84
:10174000BCF1010F45D0B5B29640DD40BCF1020FAF
:10175000457039D1851C3CE034462AE0564652E0BB
:10176000054604290CD224E00546042934D24AE077
:10177000E6B2C51CDE40944086702646042918D384
:101780000844291F3446E6B2DE4001F8046F04FA2B
:1017900002F6F5B29640DD404D70F5B2DD40964060
:1017A0008D70F5B206FA02F40E1DDD408642CD7052
:1017B000E9D161B2B1F1FF3F4FF00000E1B2C8BF23
:1017C0000120B1F1800328E0B5B29640DD4085707C
:1017D000C51CB246042916D30844291F5646B5B283
:1017E0009640DD4001F8045FB5B2DD4096404D7093
:1017F000B5B2DD4096408D70B5B2DD409640CD70FB
:101800000D1D8542EBD131B2B1F1FF3F4FF0000029
:10181000B1B2C8BF0120B1F5004318BF01230028B1
:10182000CDF800E018BF4FF0FF3308A84146069AF4
:1018300005F0B8FA2DB0BDE8000FF0BD05980128FD
:101840003FF4C1AE01255FFA8AF000EB80004FEA59
:10185000400AC1095FFA8AF40A2C09F80510FFF45E
:101860003AAE504605F043FDC0B209287FF633AECC
:1018700008EB88004FEA40085FFA88F6A6423FF678
:101880002AAE504605F033FDC0B2B042FFF423AE9D
:1018900005980135A842D6D195E6059801283FF470
:1018A0004CAE01254FF6FE780AEA080000EB8000F6
:1018B0004FEA400AC10B1FFA8AF60A2E09F80510F2
:1018C000FFF439AE504605F031FD80B209287FF6AD
:1018D00032AE0BEB8B004FEA400B1FFA8BF4B44295
:1018E0003FF629AE504605F021FD80B2A042FFF43C
:1018F00022AE05980135A842D6D11EE649F6907071
:1019000049F67C72C0F60000C0F60002192106F00C
:10191000E6F8FEDE00684AF248120B464AF2701101
:10192000C0F60001C0F60002007851F8201052F80D
:101930002020184606F0CBBF7047D4D4F0B503AFD3
:101940002DE9000FB1B0002A05900F9310460A92BE
:10195000029100F08F810022481C09928A460022E1
:101960000A990E924FF0020800224FF0010B0C92E0
:101970004FF0000E002200250B924FF000090222CA
:10198000079200220392089203469AF800000F9AE9
:10199000ABF1010CA0F12B06452E00F2C480DFE86C
:1019A00016F06500C20076005500C200C200C200F9
:1019B000C200C200C200C200C200C200C200C20017
:1019C000C200C200C200C200C200C2004E00C2007B
:1019D000C200C200C2004600C200C200C200C20073
:1019E000C200C200C200C200C200C200AF00C200FA
:1019F000C200C200C200C200C200C200C200C200D7
:101A0000C200C200C200C200C2008700C200C20001
:101A1000C200C200C2004600C200C200C200C20032
:101A2000C200C200C200C200C200C200AF000A2A47
:101A300064D8012440F20456944034425ED0012D13
:101A400000F070810125CDF834C0F1E0012D00F0E7
:101A500091810E98012800F0B881012000250C909A
:101A6000CDF818B0CDF804C00E90E1E0012D78D18A
:101A700007980125023818BF012040EA0900C00775
:101A800040F012834FF0000900200790D0E0012DB4
:101A90007CD10798023818BF012040EA0900C0072E
:101AA0004FF00100079040F07C814FF0000938E0D2
:101AB000B868002840F05C810E9A681EB0FA80F089
:101AC000561EB6FA86F640097609064346EA0E0621
:101AD000F60700F044816E1E18BF01260E9A541EB0
:101AE00018BF01240B9A20431043C0071CBF46EACD
:101AF00009005FEAC07040F09B8030E1502812D1AD
:101B0000102A10D8012440F204169440C0F20106B5
:101B1000344208D0012D00F005810120CDF834C0F9
:101B20000890012584E0022A04BF00F0FE04302C56
:101B300011D0082A04BF00F0F804302C0ED0A0F118
:101B40003004E6B20A2E36D2102A18BF0A2A7BD1F8
:101B5000012D44D17BE0012D41D1EAE7012D3ED199
:101B6000EDE7B8F1020018BF012040EA0E00C007FF
:101B700040F017810E98012800F013810020002505
:101B80004FF0000E0E904FF0000851E0B8F1020047
:101B90004FF0010818BF012040EA0E00C00740F0D6
:101BA0008C820E98012800F08882002000254FF0DA
:101BB000000E0E903CE0102A40F0DA80A0F16104A3
:101BC000E4B2062C02D2012D09D1D3E0A0F14704E2
:101BD000E4B2FA2CC0F0CC80012D00F0C9800E9A3E
:101BE000012A10D130284FF001020C984FF0010665
:101BF0000B9218BF30460C90069818BF58460690B6
:101C000001200E9014E030384FF0010E18BF012073
:101C1000099A511E18BF0121084004980A9918BF5B
:101C2000604604904FF0000018BF012209920E9008
:101C30005945184618BF01302FD00BF1010B002B6E
:101C40009A467FF4A1AE28E0012D40F0B4800398BD
:101C50000A2280FB0205B5EBE07F40F0A782079ADD
:101C6000D50718BF7642801980F1A08203904FF00B
:101C7000010956E700200A9908904FF002080390E6
:101C80004FF00009002000250B904FF0000E0020BF
:101C90000C9000200E90002009905FEACE7004BFE7
:101CA0000B985FEAC07029D0681E18BF012040EA77
:101CB0000900C0072CD00998CDF82C80E0B3019E14
:101CC0000E98DDF83C90DDE902CA0028DDF818E046
:101CD000304603D10D98002D00F0D481884204993C
:101CE00000F240838842C0F049830CEB010888422F
:101CF0004AD14FF0000B0022002015E10599022087
:101D000081F848000320087031B0BDE8000FF0BD35
:101D10000599022081F848000720087031B0BDE81D
:101D2000000FF0BD0599022081F8480008200870D6
:101D300031B0BDE8000FF0BD49F6CC70DDF83C9045
:101D4000DDF80CA0C0F60000DDF818E0DDE9016C5C
:101D5000D0E9001380681290CDE91013EBE00599EB
:101D6000022081F84800087031B0BDE8000FF0BDD6
:101D7000012D20D10599022081F848000620087025
:101D800031B0BDE8000FF0BD451AC943084405F065
:101D90000304032823D200224FF0000B0023404607
:101DA00085E00599022081F848000120087031B0D3
:101DB000BDE8000FF0BD0599022081F84800002021
:101DC000087031B0BDE8000FF0BD0599022081F820
:101DD00048000420087031B0BDE8000FF0BD25F0C8
:101DE00003064FF0000A4FF0000B00234046049416
:101DF0000795CDF8248010F8048B51465D4610F805
:101E0000039CB8F15F0F10F8012C10F802CC0D9272
:101E100018BF0131B9F15F0F0C4618BF0134BCF196
:101E20005F0FA64618BF0EF1010E5F2A724618BF5B
:101E30000132BAF1000F08BF1D46B8F15F0F03F180
:101E4000010308BF5D4618BF0023002929469246BA
:101E500008BF1946B9F15F0F03F1010308BF294616
:101E600018BF0023002C0C4608BF1C46BCF15F0FB6
:101E700008BF0C4603F10101A34618BF0021BEF1C3
:101E8000000F08BF8B460D9B5F2B01F1010308BFBC
:101E9000A34618BF0023043EADD1DDF83C90DDE938
:101EA000016CDDF82480DDE906E5DDE903A4A4B3D7
:101EB000067811465F2E18BF0131002A5A4608BF26
:101EC0001A465F2E03F1010318BF934618BF002383
:101ED000012C20D046780A465F2E18BF0132002917
:101EE000594608BF19465F2E03F1010318BF8B4600
:101EF00018BF0023022C0FD0807811465F2818BF2E
:101F00000131002A5A4608BF1A4601335F2818BF1C
:101F1000934618BF00230A46019E9D42C0F03A82B4
:101F2000E81A834500F24282A0EB0B00119008EB07
:101F30000B00129210900E9849F6CC71C0F6000179
:101F40000025012814D10C980024012840F0F080CD
:101F50000A98864500F23682701C8645C0F03E82A3
:101F60008444864506D1D6464FF0000A0020D8E0CA
:101F70000024DDE0AEEB0009AEEB0600023809F00C
:101F80000306032804D2D6464FF0000A614663E0F8
:101F900029F0030BCDF80CA0CDF830904FF00009DC
:101FA0004FF0000A61460A96CDF834C011F8042BB0
:101FB000484611F803CC5F2A11F8013C11F8028C55
:101FC0000E9318BF0130BCF15F0F054618BF0135F5
:101FD000B8F15F0FAE4618BF0EF1010E5F2B7646CB
:101FE000534618BF0136B9F1000F08BF23465F2AD8
:101FF00004F1010208BF534618BF0022002818460A
:10200000B14608BF1046BCF15F0F08BF184602F189
:102010000102034618BF0022002D08BF1346B8F185
:102020005F0F08BF034602F101009A4618BF002067
:10203000BEF1000F08BF82460E9A441C5F2A08BFFB
:102040009A4618BF0024BBF1040BAFD13546DDF82A
:102050000CE0DDE90C9C0A9E002E5AD00A78284636
:1020600053465F2A18BF0130002D08BF23465F2A60
:1020700004F1010418BF9A4618BF0024012E26D18E
:10208000054646E004988142C0F0C0810CEB000395
:102090000A1A10A8194603F06CFB49F6CC7100250A
:1020A000C0F60001002443E00599022081F84800B1
:1020B0000D7031B0BDE8000FF0BD0599022081F828
:1020C000480081F8008031B0BDE8000FF0BD4A78CB
:1020D00005465F2A18BF01350028504608BF204634
:1020E0005F2A04F1010418BF824618BF0024022EA3
:1020F0000FD08878294652465F2818BF0131002D3D
:1021000008BF224601340D465F2818BF924618BF0B
:102110000024A145C0F03E81A9EB0400824500F2F5
:102120004581DDF83C90A0EB0A040CEB0A01F24675
:102130000898C00709D0B9F1100F45D0B9F1080FC0
:1021400050D0B9F1020F40F0558153464FF00009CD
:1021500010AE0DF1AC0C45CE8CE845002EA81BAEA0
:1021600032C02BA92EAA304603F063FE1B98E8B1BB
:102170000B980DF1A00B36CEB9F1000F00F0010C59
:1021800013A836C096E8360036C09BE809080E90C2
:10219000279EDDE9230525990D9126990F91CDE91B
:1021A0000BB30DD083B330240146B3E00599022070
:1021B00081F848000920087031B0BDE8000FF0BD7B
:1021C0000346AB46B246ACE04FEAEA700AEB9070C9
:1021D00020F00302AAEB020202F00309D31703EB7B
:1021E000A003B5E745F25650C5F255508AFB0002F0
:1021F00002EBD27000EB4002BAEB020900EBE9738C
:1022000048BF09F10309A3E74A46CDF820C095B3BA
:1022100090F800A041192B1FA5F1010EAC1E4FF044
:10222000000C0A94EC1E0994E6451ED000EB0C0944
:1022300099F801405F2C5FD10A9C644515D099F84C
:1022400002405F2C5BD1099C64450ED099F8034095
:102250005F2C57D1634508D099F804400CF1040C69
:102260005F2CE1D000EB0C0150E0DDF820C000292C
:10227000914654464ED1C6B30F9CB31E4FF0000C8E
:102280000A93A1190691311F94F800A00791711EBD
:10229000F31E0993614521D00F9C04EB0C0E9EF8B0
:1022A0000190B9F15F0F30D10A9B9146634515D07B
:1022B0009EF802405F2C0FD1099B63450ED09EF81B
:1022C00003405F2C08D1079C644507D09EF804406A
:1022D0000CF1040C5F2CDDD0014618E00699544641
:1022E000DDF820C00029014614D15946BBF1000F8A
:1022F00018BF014630240DE009F1010106E009F1A3
:10230000020103E009F1030100E001469146DDF816
:1023100020C05446002908BF30240346AB46B246CD
:10232000A0460DF14C0E059ABEE87200104672C030
:102330009EE8720072C00D9890620F98C2E90B0A75
:102340000E9850630C9890630B9882F848C082F8FE
:102350004480C2F84090C2E9083BD06331B0BDE888
:10236000000FF0BD49F6A9704AF24802C0F600001D
:10237000C0F60002232105F0B2FBFEDE49F6A9708B
:102380004AF25802C0F60000C0F60002232105F010
:10239000A6FBFEDE4AF2C8204AF24832C0F6000030
:1023A000C0F60002232105F09AFBFEDE4AF2C820A7
:1023B0004AF25832C0F60000C0F60002232105F0B0
:1023C0008EFBFEDE49F6A9704AF26802C0F60000F4
:1023D000C0F60002232105F082FBFEDE49F6A9705B
:1023E0004AF27802C0F60000C0F60002232105F090
:1023F00076FBFEDE4AF288004AF2B002C0F6000028
:10240000C0F60002282105F06AFBFEDE49F6A9703D
:102410004AF23802C0F60000C0F60002232105F09F
:102420005EFBFEDE80B56F4684B00A4603A90390CA
:102430004AF2D0000423C0F60000CDE900314AF290
:10244000C00149F6A34302901046C0F60001C0F651
:1024500000030F2206F056FA04B080BDF0B503AFBA
:102460002DE9000F93B001468068D1E905264FF0B1
:1024700000093044CB6910441844202888BF4FF02D
:1024800001090DD9A0F1200203A804F0BCF91298AB
:1024900000900E980290119EDDE90BEB0F9805E07D
:1024A000D1E900EBD1E903100093029149F69914A8
:1024B00001900023C1F69914002018E0013E4FF06E
:1024C000300ABEF1000F00F0BF80AAF13002A04236
:1024D00000EB80004FF0000188BF0121D2B212EB67
:1024E000400041EA090143F1000241EA0209002EDD
:1024F000E4D1BBF1000F33D09EF800A00EEB0B012E
:10250000ABF10103ABF1020CABF10308ABF1040436
:102510000026B34218D00EEB060255785F2D60D12D
:10252000B44511D095785F2D60D1B0450CD0D578E9
:102530005F2D62D1B44207D0127904365F2AE8D009
:10254000B644ABEB060B5EE049F699144FF000037E
:10255000C1F6991421B14FF0000B8E460026B4E766
:10256000019AAAB3029D531E911ED41E05EB020CC4
:10257000A2F1040895F800A00026B3421AD0029AEE
:1025800095196A785F2A45D1B14213D0AA785F2A9B
:1025900047D1B4420ED0EA785F2A48D1B04509D07D
:1025A0002A7904365F2AE8D00299314402910199D0
:1025B000891B41E049F69914BCF1000F4FF000036C
:1025C000C1F6991404D000210026CDE9011C78E75A
:1025D0000099C9B300994FF0300A002601390091E3
:1025E0006FE7F1438B4402F1010E0CE0ABEB060107
:1025F00002F1020EA1F1020B05E0ABEB060102F1C4
:10260000030EA1F1030B49F6991400260023C1F62D
:1026100099145AE7019AF1430A44691C0192029104
:102620000BE0A91C02910199891B023904E0E91C05
:1026300002910199891B0339019149F699140026E9
:102640000023C1F699143CE709F0010113B0BDE87D
:10265000000FF0BDF0B503AF2DE9000FA7B00DF1ED
:10266000300891460A460146009340464B46FFF724
:1026700065F99DF87800022804D19DF830004FF4E8
:102680000031EFE00A901FA8B8E87800014678C151
:1026900098E87800BA6878C1149909911599CDF82D
:1026A0002C9007911C9B0B999DF874B0DDE916A541
:1026B000DDE91864DDE91A980693CDF800B000F062
:1026C000D7F805900998CDF800B0D7F80CB0CDE94F
:1026D000035ACDE90EA5DDF82CA05A46069BCDF88D
:1026E0000880CDF84C80C846CDE9114981460C9050
:1026F0000CA808915146019434461096079E0D96F9
:1027000000F016F9059B82B2002A184618BF08434C
:102710000899002A01F0010100F08980BBF1000F47
:1027200040F0958013F0010200F09180B8F1000FA5
:1027300006D0A8F101033024B9F1000F68D186E07A
:102740007EB34A4609EB060899F80020751EA6F1EB
:10275000020CA6F1030E07920022331F0893954244
:1027600016D009EB020673785F2B14D194450FD075
:10277000B3785F2B0FD196450AD0F3785F2B0AD13F
:10278000089B934204D0337904325F2BE7D002E0F8
:10279000B8F1000F05D0049A0023079C013A049277
:1027A00036E05CB3039A231F651EA4F1020E02EB10
:1027B0000408A4F1030C147800220893954216D063
:1027C000039B9E1873785F2B14D196450FD0B37876
:1027D0005F2B0FD194450AD0F3785F2B0AD1089B69
:1027E000934204D0337904325F2BE7D002E0B8F192
:1027F000000F03D0019A013A019205E0029A32B328
:10280000029A3024013A02920023B9F1000F1ED03F
:10281000A4F130065FFA8AF2F6B2B6EB520F16D187
:10282000049A019E32441A44029BDA420FD10BF003
:102830000F02012303FA02F283B21A4493B29342C5
:10284000BB6818BF0121002B0CBF012110460A9B59
:10285000002900F47F414FEA034202F1807208BF71
:102860001A041144C0B2084327B0BDE8000FF0BD00
:10287000F0B503AF4DF8048D82B09046BA68B8F158
:10288000090F0AD20092424601F0E0FB01F001017B
:10289000000202B05DF8048BF0BD7BB9D0F808C02F
:1028A000D0E90556C46966442E446542AE4205D15E
:1028B0000021002002B05DF8048BF0BD02290CD08D
:1028C000082912D0102919D1194600F08EFD01F007
:1028D0000101B8F1100F18D123E000F060F801F009
:1028E0000101B8F1100F10D11BE0194600F036FAC3
:1028F00001F00101B8F1100F07D112E001F0E2F888
:1029000001F00101B8F1100F0BD008F00F0283B2F3
:1029100033FA02F218BF0121C8F1000202F00F02DF
:102920009040002918BF012102B05DF8048BF0BD72
:10293000B0B502AF82B0092A08D2BD68009501F097
:10294000D3FB00F00100C9B202B0B0BDD0F808C09E
:10295000D0E905E46444C5697444EC4203D1012024
:10296000002102B0B0BD022909D008290CD01029DD
:1029700010D111461A4600F05FFF02B0B0BD1146FB
:1029800000F0E4F802B0B0BD11461A4600F0E1FBD9
:1029900002B0B0BD114601F085F902B0B0BDF0B58E
:1029A00003AF2DE9000F95B001468068D1E90532EB
:1029B0001044CE6918443044019010280DD9A0F17C
:1029C000100205A803F01FFF1498029010980490BD
:1029D000139ADDE90DBA119805E0D1E900BAD1E901
:1029E000031002960491039000200BE0013A4FF08F
:1029F000300CBBF1000F00F0A080ACF13001C9B287
:102A000001EB4000002AF1D1BAF1000F30D09BF861
:102A100000C00BEB0A09AAF10101AAF10203AAF115
:102A20000302AAF104080025A9421AD00BEB0506FF
:102A300096F801E0BEF15F0F56D1AB4211D0B478E9
:102A40005F2C56D1AA420CD0F4785F2C58D1A845FF
:102A500007D0367904355F2EE6D0AB44AAEB050AE1
:102A600054E0B9F1000F03D04FF0000ACB464DE01F
:102A7000039A82B3049E511E931ED51E06EB0208D4
:102A8000A2F1040E96F800C0002291421BD0049CD3
:102A9000144466785F2E3BD1934214D0A6785F2E03
:102AA0003DD195420FD0E6785F2E3FD196450AD0B2
:102AB000247904325F2CE8D00499114404910399DD
:102AC000891A03910EE0B8F1000F04D00021002212
:102AD000CDE903188DE7029979B302994FF0300CD4
:102AE00001390291002284E7E9438A4406F1010B8F
:102AF0000CE0AAEB050106F1020BA1F1020A05E0C8
:102B0000AAEB050106F1030BA1F1030A002274E709
:102B1000D143039A0A44611C03920491E2E7A11C89
:102B200004910399891A02390391DBE7E11C0491AE
:102B30000399891A03390391D4E7019A0021102AD5
:102B400088BF012115B0BDE8000FF0BDF0B503AF9F
:102B50002DE9000F85B08B46816803914169D0E96A
:102B600000AED0E90389D0E906C0019100210290AE
:102B7000CDF800B0BCF1000F1ED03020ACF1010C3C
:102B800004904D464046BAF1000F534676468046C3
:102B9000A94600F0C8800498BBF1000FA0F13000F6
:102BA00000F0AB80C0B200EB4101ABF1010B9A46E3
:102BB000B646BCF1000FE0D1BEF1000F4BD09AF841
:102BC00000000AEB0E030490002600200EEB000527
:102BD000012D1AD00AEB060462785F2A18D1022D63
:102BE0001BD0A2785F2A1BD1032D1ED0E2785F2A6A
:102BF0001ED1042D21D02279043604385F2AE5D075
:102C0000AAEB00030EEB000619E06E1EBBB922E032
:102C1000AAEB00006E1E431C11E0AE1E7BB91AE049
:102C2000AAEB0000AE1E831C09E0EE1E3BB912E0C9
:102C3000AAEB0000EE1EC31C01E02E1F5BB103983F
:102C40004FF0000C013803900498BBF1000FA0F185
:102C50003000A7D151E0B9F1000F45D008EB0900D1
:102C600098F8002000260023049209EB0305012DAB
:102C70001AD008EB060462785F2A18D1022D1BD007
:102C8000A2785F2A1BD1032D1ED0E2785F2A1ED1C5
:102C9000042D21D022790436043B5F2AE5D0A8EB2D
:102CA000030009EB030519E0013DB8B91CE0A8EBEE
:102CB0000300013D013011E0023D78B914E0A8EBBA
:102CC0000300023D023009E0033D38B90CE0A8EBF7
:102CD0000300033D033001E0043D28B1019A4FF0A9
:102CE000000C013A01924EE70298E0B102984FF0D1
:102CF000000C01380290302042E700061BD00398F8
:102D0000019A1044029A6044D04208BF11F00100B9
:102D100011D088B2411C88B288420CD0002005B086
:102D2000BDE8000FF0BD0BF00F008140012005B0A1
:102D3000BDE8000FF0BD009B8AB203F00F0022FA3D
:102D400000F0A3F11002B0FA80F0B2FA82F240096A
:102D50005209104305B0BDE8000FF0BDF0B503AF58
:102D60002DE9000F9BB085680646D0E905C0303AD2
:102D70002B18D6F81C90634413EB090F0DD10029D2
:102D8000C1F10301D0B201F00F0108BFD020C8404B
:102D900000211BB0BDE8000FF0BD039203EB090A50
:102DA0004AF6AB23C1F11202CAF6AA230891A2FB8C
:102DB00003230021BAEB530F88BF01215C08BAEB53
:102DC000530F079110D9AAEB04020BA8314603F068
:102DD0001AFDDDE91909DDE9172CDDE9133EDDF8FF
:102DE00058801599059104E00595D6E9003ED6E98D
:102DF000038200280A920490CDF8189000F0DC803D
:102E0000A0F1010B3022CDF82490002B00F0958129
:102E10009946059904986144014406980144A2F139
:102E20003000A142C0B21AD10D2200216243A24556
:102E300088BF0121089BD21A033202F00F0230FA38
:102E400002F218BF01221143079108E0ABF1010B18
:102E50004FF0300CACF13001C9B201EBC000BBF156
:102E6000000FF3D1BEF1000F2ED099F800C009EB8E
:102E70000E0BAEF10101AEF10202AEF10306AEF1AE
:102E8000040A0025A94218D009EB050463785F2BDA
:102E900058D1AA4211D0A3785F2B58D1AE420CD0A2
:102EA000E3785F2B5AD1AA4507D0237904355F2BED
:102EB000E8D0A944AEEB050E56E0BBF1000F03D0FD
:102EC0004FF0000ED9464FE00A9B5BB398F800C064
:102ED00008EB030A591E9A1EDE1EA3F1040B0025FF
:102EE000A94219D008EB050463785F2B3FD1AA42B1
:102EF00012D0A3785F2B40D1AE420DD0E3785F2B88
:102F000041D1AB4508D0237904355F2BE8D00A9B2B
:102F100008EB050A5B1B0DE00A9BBAF1000F01D01C
:102F2000002307E00999A1B309994FF0300CC2467C
:102F300001390991B9F1000F2BD00A934FF0000B22
:102F4000D04687E7E9438E4404F101090CE0AEEB7B
:102F5000050104F10209A1F1020E05E0AEEB050145
:102F600004F10309A1F1030E4FF0000B72E70A9B75
:102F7000E94304F1010A0B44DCE70A9904F1020A6F
:102F8000491B8B1ED6E70A9904F1030A491BCB1E85
:102F9000D0E7089A002A3FD002F00F01C2F10302E5
:102FA00002F0070288400399C9B2D140084407994A
:102FB0001BB0BDE8000FF0BDBEF1000FCDF808A0BA
:102FC0003ED0CDF800C003EB0E09AEF10105AEF125
:102FD0000201AEF1030BAEF1040C1A78184600237F
:102FE00001929D421DD0C61872785F2A6DD1994218
:102FF00017D0B2785F2A6DD19B4512D0F2785F2A44
:103000006FD19C450DD0327904335F2AE9D000EBB3
:103010000309AEEB030E6AE007991BB0BDE8000F91
:10302000F0BDDDF808A0B9F1000FDDF800C00346DF
:103030000A9A05D006984FF0000E4FF0000B5DE0A5
:10304000BAB3009308EB0200531E911EA2F10309CC
:10305000A2F1040B98F8002000250192AB4219D090
:1030600008EB050672785F2A4BD1A94212D0B278DC
:103070005F2A4DD1A9450DD0F2785F2A4ED1AB45DC
:1030800008D0327904355F2AE8D00A98A844401B5A
:103090000A9049E0DDF808A0009B50B1DDF81890D7
:1030A00000214FF0000BCDF824900A918046019A40
:1030B000ABE6DDF81890B9F1000F3ED0A9F101019F
:1030C000099130224FF0000B9FE6D9438E4406F160
:1030D00001090CE0AEEB030106F10209A1F1020EB9
:1030E00005E0AEEB030106F10309A1F1030EDDF8E3
:1030F00008A04FF0000BDDF800C006980990019A77
:1031000087E606F101080A98E94308440A900BE0B3
:103110000A9806F10208411B023904E00A9806F1F8
:103120000308411B03390A91DDF808A04FF0000B9A
:10313000DDE90032DDF8189065E64AF208204AF22F
:10314000F812C0F60000C0F60002282104F0C7FC07
:10315000FEDEF0B503AF2DE9000F86B08A46C2F15E
:10316000030104910026816803914169D0E900E3DD
:10317000D0E90389D0E906B001910290CDF800A012
:10318000CDF814A0BBF1000F17D01D46B246ABF12D
:10319000010B30214C464646B046BEF1000FF446C6
:1031A000A146564600F00281049B032B56D1A1F1A3
:1031B0003004059999425ED2C9E0002B6ED09EF88A
:1031C00000A00EEB030C002400215D18012D19D086
:1031D0000EEB040042785F2A1AD1022D1ED08278AD
:1031E0005F2A21D1032D25D0C2785F2A28D1042D52
:1031F0004FD00079043404395F28E6D0AEEB010CDF
:103200005D1822E0013D5146BCF1000F1ED145E0A2
:10321000AEEB0100013D00F1010C16E0023D51460C
:10322000BCF1000F12D139E0AEEB0100023D00F11C
:10323000020C0AE0033D5146BCF1000F06D12DE01F
:10324000AEEB0100033D00F1030C514603984FF033
:10325000000B01380390049B032BA8D003F0070058
:103260004FF0FF3202FA00F001F1500222EA0004AE
:10327000059999426BD3E0B200EBC6060320C91A48
:103280000591E64604902B46BBF1000F7FF47DAF1D
:1032900093E7043D5146BCF1000FD7D11D46B2461D
:1032A000B9F1000F49D098F800C008EB09060023D7
:1032B000002109EB0104012C1AD008EB030042782D
:1032C0005F2A19D1022C1CD082785F2A1DD1032CD1
:1032D00020D0C2785F2A21D1042C2AD0007904336F
:1032E00004395F28E5D0A8EB010609EB010419E0D9
:1032F000013C6146BEB920E0A8EB0100013C461C40
:1033000010E0023C614676B917E0A8EB0100023CF0
:10331000861C07E0033C61462EB90EE0A8EB0100D5
:10332000033CC61C614601984FF0000B0138019028
:1033300032E7043C6146002EF5D102985646A8B308
:10334000029830214FF0000B0138029022E7C1F1C2
:10335000030201F00F0002F00702E3B206FA00F0E8
:10336000012623FA02F20244C1F1020000F0070034
:1033700006FA00F0034224D00138204000060AD1AA
:103380000398019B0299184458444942884208BF57
:1033900012F0010015D090B2421C90B2904210D0B1
:1033A0000020114606B0BDE8000FF0BD059800F002
:1033B0000F0006FA00F20120114606B0BDE8000F2A
:1033C000F0BD009B91B203F00F0021FA00F0A3F1D1
:1033D0001001B0FA80F0B1FA81F1400949090843BF
:1033E000114606B0BDE8000FF0BDF0B503AF2DE902
:1033F000000F9BB000F1140E846803469EE8404124
:1034000004EB0800304410EB0E0F0FD1A2F1300096
:103410000029C1F10301C0B201F00F0108BFD020A3
:10342000C84000211BB0BDE8000FF0BDC1F1130A78
:1034300000EB0E050020B5EB9A0F88BF01204FEA84
:103440009A09B5EB9A0F06900791049240F22081F9
:10345000A5EB09020BA8194603F0D5F90DF15C0E96
:10346000DDE91323DDF858C09EE85041159805901A
:10347000B8F1000F00F01681A8F1010B3021CDF852
:1034800020E0002A00F0CC810A9201F00F003F29D1
:1034900088BF0930059931444144714449451ED1E2
:1034A00000214D4588BF01211E46079B0AF00C02F2
:1034B0001A443346C2F1040202F00F0230FA02F25B
:1034C00018BF01221143069109E0ABF1010B002165
:1034D0004FF0300E0EF00F02114401EB0010BBF163
:1034E000000FF2D1E3B30A9E591ECDF824C09A1EF4
:1034F00006EB030BDD1E96F800E09C46043BA1465C
:103500000026B14221D00A9C04EB060898F801A0DD
:10351000BAF15F0F67D1B24217D098F802405F2C22
:1035200069D1B54211D098F803405F2C6AD1B342FB
:103530000BD098F8044004365F2CE2D00A99634619
:10354000ACEB060331440A9162E06346DDF824C027
:10355000BBF1000F4C4603D00023CDF828B076E035
:10356000B4B39CF800E00CEB040B611EA21EE51E38
:10357000A4F104089A46A1460026B1421DD00CEBE6
:1035800006035C785F2C47D1B24216D09C785F2C42
:103590004CD1B54211D0DC785F2C50D1B0450CD065
:1035A0001B7904365F2BE8D04C46B444A9EB0604E3
:1035B00053460A9900294AD151E0BBF1000F4C460D
:1035C000534605D00024DC460A9900293FD146E045
:1035D0000899002943D008994FF0300E013908911D
:1035E0000A99A1BB3BE06346F14301EB0C0308F1F0
:1035F00001010A910CE008F102010A91ACEB06010D
:103600008B1E05E008F103010A91ACEB0601CB1E0D
:10361000DDF824C04C461AE04C46F14301EB0904A6
:1036200003F1010C53460A9989B918E0A9EB060188
:1036300003F1020C8C1E53460A9941B90FE0A9EB25
:10364000060103F1030CCC1E53460A9939B14FF021
:10365000000B0021BEF13F0F88BF09213AE7079B0D
:10366000002B4CD0049AD1B23F29C3F1040102F0DF
:103670000F0201F0070188BF093222FA01F103F0BD
:103680000F029040084406991BB0BDE8000FF0BD42
:10369000D3E900200594D3E903C40346B8F1000F31
:1036A0007FF4EAAE09920395CDE90169BBB3D01866
:1036B000591E9D1EA3F1030BA3F104090A901E4697
:1036C00010780023009099421ED00998184442783F
:1036D0005F2A74D19D4217D082785F2A75D19B45AD
:1036E00012D0C2785F2A75D199450DD00079043384
:1036F0005F28E8D0099818440A90F31A6EE00699FA
:103700001BB0BDE8000FF0BD0A983346039DDDE90C
:103710000169099A18B100234FF0000B63E0002CF7
:1037200043D060460CEB0405611EA4F10209A4F12C
:10373000030B2646043C0A939CF8000000230090EB
:10374000994221D00CEB030042785F2A4FD1994572
:103750001AD082785F2A50D19B4515D0C2785F2A53
:1037600050D19C4210D000790433099A5F28E7D0E9
:1037700034469C44F41A9DE842024FF0000BCDF809
:1037800020E00A9B039D7CE634462846002D039DDD
:10379000DDE90169DDE9092307D04FF0000BCDF821
:1037A00020E00024844600996BE6BEF1000F37D07C
:1037B000AEF10100089030214FF0000B61E6D943D3
:1037C00033468B1901300A9008E002300A90F01A53
:1037D000831E03E003300A90F01AC31E039D4FF0CE
:1037E000000BDDE90169CDF820E000994DE6344693
:1037F000D9438C1900F1010C08E000F1020CF01A19
:10380000841E03E000F1030CF01AC41E9DE842027E
:103810004FF0000BCDF820E0039DDDE9092330E6F1
:103820004AF208204AF2F812C0F60000C0F6000280
:10383000282104F054F9FEDEF0B503AF2DE9000FA6
:1038400086B0C2F1040B826803924269D0E900CECF
:10385000D0E90389D0E906A00091059100210192E9
:103860000290BAF1000F18D0AAF1010A30204C469C
:103870004646BCF1000F65467346B046A14600F0CF
:103880000281BBF1040F56D100F00F043F2888BF1E
:103890000934059E5E455FD2C8E0BEF1000F6DD0D1
:1038A0000CEB0E050E469CF800000023002104904E
:1038B0000EEB0104012C1AD00CEB030042785F2AB6
:1038C00019D1022C1CD082785F2A1DD1032C20D064
:1038D000C2785F2A21D1042C4CD0007904330439FA
:1038E0005F28E5D0ACEB01050EEB010319E0631E88
:1038F0003146BDB942E0ACEB0100631E451C10E04F
:10390000A31E314675B939E0ACEB0100A31E851C3E
:1039100007E0E31E31462DB930E0ACEB0100E31EB9
:10392000C51C314603984FF0000A013803900498F3
:10393000BBF1040FA8D002463F2A0BF0070200F0AB
:103940000F004FF0FF3488BF093004FA02F220EA7A
:103950000204059E5E4569D3A6EB0B06059604EBB3
:1039600001114FF0040BAC469E46BAF1000F7FF4F4
:103970007BAF92E7231F3146002DD3D1B9F1000F61
:103980004CD008EB09060D4698F8000000230021F2
:10399000049009EB0104012C1AD008EB03004278D3
:1039A0005F2A19D1022C1CD082785F2A1DD1032CEA
:1039B00020D0C2785F2A21D1042C2BD00079043387
:1039C00004395F28E5D0A8EB010609EB010419E0F2
:1039D000013C2946BEB921E0A8EB0100013C461C90
:1039E00010E0023C294676B918E0A8EB0100023C41
:1039F000861C07E0033C29462EB90FE0A8EB010026
:103A0000033CC61C294601984FF0000A013801907A
:103A100004982EE7043C2946002EF4D1029890B376
:103A200002984FF0000A013802901FE7C6F1040225
:103A300006F00F0002F00702012301FA00F024FA59
:103A400002F20244C6F1030000F0070003FA00F09E
:103A5000044223D0013804420AD103980199084452
:103A6000029950444942884208BF12F0010015D023
:103A700090B2421C90B2904210D00020114606B085
:103A8000BDE8000FF0BD059800F00F0001FA00F24C
:103A90000120114606B0BDE8000FF0BD009B91B2B9
:103AA00003F00F0021FA00F0A3F11001B0FA80F04A
:103AB000B1FA81F1400949090843114606B0BDE851
:103AC000000FF0BDF0B503AF2DE9000F93B0014634
:103AD0008068D1E905254FF0000B2844CB691044DC
:103AE0001844102888BF4FF0010B0DD9A0F1100227
:103AF00003A802F088FE129800900E980290119D83
:103B0000DDE90BEA0F9805E0D1E900EAD1E90310FD
:103B100000930291002141F6991301901CE0013DB0
:103B20004FF03009BEF1000F00F0B68000EB8002CC
:103B3000A9F1300180B25200C9B292B211448AB2E6
:103B4000521A18BF012298424FF0000088BF01208E
:103B500040EA0B0040EA020B0846002DDFD1BAF123
:103B6000000F2FD09EF800900EEB0A01AAF101037E
:103B7000AAF10204AAF1030CAAF104080025AB4241
:103B800018D00EEB050256785F2E58D1AC4211D0FA
:103B900096785F2E58D1AC450CD0D6785F2E5AD18E
:103BA000A84507D0127904355F2AE8D0AE44AAEBC5
:103BB000050A56E041F6991321B14FF0000A8E46EE
:103BC0000025B3E7019A8AB3029D531E941ED11EAD
:103BD00005EB020CA2F1040895F800900025AB4219
:103BE0001AD0029A561972785F2A3ED1AC4213D08D
:103BF000B2785F2A40D1A9420ED0F2785F2A41D133
:103C0000A84509D0327904355F2AE8D002992944C1
:103C100002910199491B3AE0BCF1000F41F699135A
:103C200004D000210025CDE9011C7BE7009999B360
:103C300000994FF0300900250139009172E7E943FE
:103C40008A4402F1010E0CE0AAEB050102F1020E1A
:103C5000A1F1020A05E0AAEB050102F1030EA1F1B0
:103C6000030A002541F6991360E7019AE9430A44E3
:103C7000711C019202910BE0B11C02910199491B48
:103C8000023904E0F11C02910199491B03390191A9
:103C9000002541F6991345E70BF0010113B0BDE88B
:103CA000000FF0BDF0B503AF2DE9000F9FB08146C6
:103CB00080680591D9E9051B5844D9F81C200844AF
:103CC000049200EB020ABAF1060F07D8DAF10601F6
:103CD00013D0012914D14FF00A0840E007AE49463D
:103CE0000622304602F08FFD2ECE17A84FF00108B5
:103CF0002EC096E82E002EC038E04FF001082EE0CE
:103D000001200A22CB0702FB02F308BF012204298B
:103D100002FB00F020D38A0703FB03F258BF012304
:103D2000082903FB00F014D34B0702FB02F358BF32
:103D30000122102902FB00F00ED30A0703FB03F255
:103D400058BF01231F2903FB00F04FEA1113194646
:103D5000D8D800FB02F802E01A4600FB03F84946F7
:103D600017A86CC96CC091E86C006CC017A907A8B3
:103D700078C9024678C291E8780078C2FEF76EFBF7
:103D800000FB08F0059EBAF1060FC6F1100202F022
:103D90001F024FEAC02121FA02F220D843F609514E
:103DA0000A4406F01F0147F6112322FA01F1994255
:103DB0002ED84DF68360C4F21B30A2FB000347F6F9
:103DC0001220590B01FB10204FF6FE72002808BF8D
:103DD00002EA533101201FB0BDE8000FF0BD4DF6DF
:103DE0008360C4F21B30A2FB000147F612204B0B8C
:103DF00003FB10204FF6FE72002808BF02EA513381
:103E0000102E029311D09EB900204FF400421DE005
:103E100080F4F420002180F490703043B0FA80F0F8
:103E200040091FB0BDE8000FF0BD01201A460DE0AB
:103E3000C6F10F00012100F00F0001FA00F07142FD
:103E400001F00F0103FA01F10A180020D9E900ACD2
:103E5000D9E9033106930391BBF1000F29D0ABF1EF
:103E6000010B4FF03009BAF1000F00F0C98092B297
:103E7000002A114618BF01210143C90700F0C9807B
:103E800002EB82014A0091B24B1D99B2C91A18BFC8
:103E90000121014001EB1246A9F13001CDB2B5423A
:103EA000C0F0B180C00718BF1A460020B542D3D970
:103EB000AFE0BCF1000F35D09AF800900AEB0C0B84
:103EC000ACF10104ACF10208ACF103056646ACF1BB
:103ED000040C00239C421DD00AEB030E9EF8011037
:103EE0005F2963D1984515D09EF802105F2964D1EF
:103EF0009D420FD09EF803105F2964D19C4509D0E4
:103F00009EF8041004335F29E4D0B4469A44A6EB2B
:103F1000030C5DE0BBF1000FB44603D04FF0000C82
:103F2000DA4655E0039DBDB306996C1ECDF804C07A
:103F3000A5F1020B01EB0508A5F1030E91F8009025
:103F4000A5F1040C00239C421AD00699CE18717872
:103F50005F2940D19B4513D0B1785F2941D19E455F
:103F60000ED0F1785F2941D19C4509D031790433D5
:103F70005F29E8D00699ED1A0395194406913AE0B5
:103F8000DDF804C0B8F1000F06D000214FF0000B9F
:103F90000391CDF8188066E7049989B304994FF02E
:103FA00030094FF0000B013904915CE7B446D94366
:103FB00001EB060C0EF1010A0AE0F11A0EF1020AF9
:103FC000A1F1020C04E0F11A0EF1030AA1F1030CB5
:103FD0004FF0000B4BE7D9430D44711C039506913C
:103FE00009E0B11C0691E91A023903E0F11C0691BF
:103FF000E91A03390391DDF804C04FF0000B32E7F2
:104000000298C00705D1012002991FB0BDE8000F3A
:10401000F0BD029880B2411C88B2884206D00020D0
:104020004FF6FF711FB0BDE8000FF0BD059A02F01A
:104030000F03103AB2FA82F2D840B0FA80F0520977
:10404000400910431FB0BDE8000FF0BDF0B503AF4D
:104050004DF8048D90466BB900F11406826870CE5D
:104060002A4476422244B24204D1002100205DF865
:10407000048BF0BD02290BD0BA6808290ED0102994
:1040800028D1194600F07FFDB8F1000F0CD126E0D1
:1040900000F058F8B8F1000F06D120E0194600F002
:1040A0002DFAB8F1000F1AD001F00101B8F1080F94
:1040B0000DD0C8F1000208F0070302F0070200FA71
:1040C00002F2C0B2D8400143104618BF01215DF88A
:1040D000048BF0BD01F0C5F8B8F1000FE4D1002069
:1040E00001215DF8048BF0BDB0B502AFD0F808C077
:1040F000D0E905E46444C5697444EC4202D101206E
:104100000021B0BD02290AD008290ED0102913D1F0
:1041100011461A4600F05FFF00F00100B0BD1146E5
:1041200000F0E5F800F00100B0BD11461A4600F0BD
:10413000DFFB00F00100B0BD114601F07CF900F09A
:104140000100B0BDF0B503AF2DE9000F95B00146F9
:104150008068D1E905321044CE691844304401909A
:1041600008280DD9A0F1080205A802F04CFB14980C
:10417000029010980490139ADDE90DBA119805E0A9
:10418000D1E900BAD1E9031002960491039000200E
:1041900009E0013A4FF0300CBBF1000F00F09E80B7
:1041A0000CEB40003038002AF3D1BAF1000F30D0C8
:1041B0009BF800C00BEB0A09AAF10101AAF1020366
:1041C000AAF10302AAF104080025A9421AD00BEBB8
:1041D000050696F801E0BEF15F0F56D1AB4211D053
:1041E000B4785F2C56D1AA420CD0F4785F2C58D109
:1041F000A84507D0367904355F2EE6D0AB44AAEB4C
:10420000050A54E0B9F1000F03D04FF0000ACB4685
:104210004DE0039A82B3049E511E931ED51E06EBF9
:104220000208A2F1040E96F800C0002291421BD0B1
:10423000049C144466785F2E3BD1934214D0A67838
:104240005F2E3DD195420FD0E6785F2E3FD1964547
:104250000AD0247904325F2CE8D0049911440491E7
:104260000399891A03910EE0B8F1000F04D00021E0
:104270000022CDE903188FE7029979B302994FF034
:10428000300C01390291002286E7E9438A4406F1A5
:10429000010B0CE0AAEB050106F1020BA1F1020AE9
:1042A00005E0AAEB050106F1030BA1F1030A0022C8
:1042B00076E7D143039A0A44611C03920491E2E732
:1042C000A11C04910399891A02390391DBE7E11CCF
:1042D00004910399891A03390391D4E7019A0021C3
:1042E000082A88BF012115B0BDE8000FF0BDF0B568
:1042F00003AF2DE9000F85B08B46816803914169BA
:10430000D0E900AED0E90389D0E906C001910021CF
:104310000290CDF800B0BCF1000F1DD03020ACF100
:10432000010C04904D464046BAF1000F53467646C4
:104330008046A94600F0C7800498BBF1000FA0F1A9
:10434000300000F0AA8000EB4101ABF1010B9A466E
:10435000B646BCF1000FE1D1BEF1000F4BD09AF888
:1043600000000AEB0E030490002600200EEB00056F
:10437000012D1AD00AEB060462785F2A18D1022DAB
:104380001BD0A2785F2A1BD1032D1ED0E2785F2AB2
:104390001ED1042D21D02279043604385F2AE5D0BD
:1043A000AAEB00030EEB000619E06E1EBBB922E07B
:1043B000AAEB00006E1E431C11E0AE1E7BB91AE092
:1043C000AAEB0000AE1E831C09E0EE1E3BB912E012
:1043D000AAEB0000EE1EC31C01E02E1F5BB1039888
:1043E0004FF0000C013803900498BBF1000FA0F1CE
:1043F0003000A8D151E0B9F1000F45D008EB090019
:1044000098F8002000260023049209EB0305012DF3
:104410001AD008EB060462785F2A18D1022D1BD04F
:10442000A2785F2A1BD1032D1ED0E2785F2A1ED10D
:10443000042D21D022790436043B5F2AE5D0A8EB75
:10444000030009EB030519E0013DB8B91CE0A8EB36
:104450000300013D013011E0023D78B914E0A8EB02
:104460000300023D023009E0033D38B90CE0A8EB3F
:104470000300033D033001E0043D28B1019A4FF0F1
:10448000000C013A01924FE70298E0B102984FF018
:10449000000C01380290302043E700061BD003983F
:1044A000019A1044029A6044D04208BF11F0010002
:1044B00011D0C8B2411CC8B288420CD0002005B04F
:1044C000BDE8000FF0BD0BF007008140012005B0F2
:1044D000BDE8000FF0BD009BCAB203F0070022FA4E
:1044E00000F0A3F10802B0FA80F0B2FA82F24009BB
:1044F0005209104305B0BDE8000FF0BDF0B503AFA1
:104500002DE9000F9BB085680646D0E905C0303A1A
:104510002B18D6F81C90634413EB090F0ED1002919
:10452000C1F1030101F0070108BF6FF02F02D0B203
:10453000C84000211BB0BDE8000FF0BD039203EBA3
:10454000090A4AF6AB23C1F10A02CAF6AA23089166
:10455000A2FB03230021BAEB530F88BF01215C08A3
:10456000BAEB530F079110D9AAEB04020BA83146FE
:1045700002F049F9DDE91909DDE9172CDDE9133EFF
:10458000DDF858801599059104E00595D6E9003EBF
:10459000D6E9038200280A920490CDF8189000F022
:1045A000DA80A0F1010B3022CDF82490002B00F02E
:1045B0009381994605990498614401440698014401
:1045C000A2F13000A14219D10021A24588BF0121EA
:1045D000089B04EB8402D21AC3B2033202F0070232
:1045E00033FA02F218BF01221143079106E0ABF142
:1045F000010B4FF0300C0CEBC0003038BBF1000F5A
:10460000F5D1BEF1000F2ED099F800C009EB0E0BCA
:10461000AEF10101AEF10202AEF10306AEF1040A01
:104620000025A94218D009EB050463785F2B58D107
:10463000AA4211D0A3785F2B58D1AE420CD0E378B8
:104640005F2B5AD1AA4507D0237904355F2BE8D0D8
:10465000A944AEEB050E56E0BBF1000F03D04FF0BE
:10466000000ED9464FE00A9B5BB398F800C008EBF8
:10467000030A591E9A1EDE1EA3F1040B0025A9424F
:1046800019D008EB050463785F2B3FD1AA4212D002
:10469000A3785F2B40D1AE420DD0E3785F2B41D1A0
:1046A000AB4508D0237904355F2BE8D00A9B08EB93
:1046B000050A5B1B0DE00A9BBAF1000F01D0002335
:1046C00007E00999A1B309994FF0300CC2460139AE
:1046D0000991B9F1000F2BD00A934FF0000BD0468F
:1046E00089E7E9438E4404F101090CE0AEEB0501D2
:1046F00004F10209A1F1020E05E0AEEB050104F19F
:104700000309A1F1030E4FF0000B74E70A9BE94384
:1047100004F1010A0B44DCE70A9904F1020A491B7F
:104720008B1ED6E70A9904F1030A491BCB1ED0E77A
:10473000089A002A3FD002F00701C2F1030202F0FA
:10474000070288400399C9B2D140084407991BB0B9
:10475000BDE8000FF0BDBEF1000FCDF808A03ED0BF
:10476000CDF800C003EB0E09AEF10105AEF1020178
:10477000AEF1030BAEF1040C1A7818460023019237
:104780009D421DD0C61872785F2A6DD1994217D00C
:10479000B2785F2A6DD19B4512D0F2785F2A6FD133
:1047A0009C450DD0327904335F2AE9D000EB030930
:1047B000AEEB030E6AE007991BB0BDE8000FF0BD39
:1047C000DDF808A0B9F1000FDDF800C003460A9A31
:1047D00005D006984FF0000E4FF0000B5DE0BAB325
:1047E000009308EB0200531E911EA2F10309A2F1EF
:1047F000040B98F8002000250192AB4219D008EB79
:10480000050672785F2A4BD1A94212D0B2785F2A8E
:104810004DD1A9450DD0F2785F2A4ED1AB4508D0D5
:10482000327904355F2AE8D00A98A844401B0A90E0
:1048300049E0DDF808A0009B50B1DDF81890002198
:104840004FF0000BCDF824900A918046019AADE616
:10485000DDF81890B9F1000F3ED0A9F101010991DE
:1048600030224FF0000BA1E6D9438E4406F1010936
:104870000CE0AEEB030106F10209A1F1020E05E026
:10488000AEEB030106F10309A1F1030EDDF808A068
:104890004FF0000BDDF800C006980990019A89E6F8
:1048A00006F101080A98E94308440A900BE00A98C7
:1048B00006F10208411B023904E00A9806F10308D8
:1048C000411B03390A91DDF808A04FF0000BDDE928
:1048D0000032DDF8189067E64AF2A0204AF29022F2
:1048E000C0F60000C0F60002282103F0F8F8FEDE52
:1048F000F0B503AF2DE9000F86B08A46C2F103017F
:1049000004910026816803914169D0E900E3D0E970
:104910000389D0E906B001910290CDF800A0CDF84E
:1049200014A0BBF1000F17D01D46B246ABF1010B2E
:1049300030214C464646B046BEF1000FF446A14633
:10494000564600F00181049B032B56D1A1F130049F
:10495000059999425ED2C8E0002B6DD09EF800A068
:104960000EEB030C002400215D18012D19D00EEB75
:10497000040042785F2A1AD1022D1ED082785F2A65
:1049800021D1032D25D0C2785F2A28D1042D4ED005
:104990000079043404395F28E6D0AEEB010C5D18D1
:1049A00022E0013D5146BCF1000F1ED144E0AEEBC8
:1049B0000100013D00F1010C16E0023D5146BCF141
:1049C000000F12D138E0AEEB0100023D00F1020C05
:1049D0000AE0033D5146BCF1000F06D12CE0AEEBDE
:1049E0000100033D00F1030C514603984FF0000B0A
:1049F00001380390049B032BA8D003F007004FF06D
:104A0000FF3202FA00F001F1500222EA0004059997
:104A100099426AD30320C91A059104EBC606049093
:104A2000E6462B46BBF1000F7FF47EAF94E7043DD2
:104A30005146BCF1000FD8D11D46B246B9F1000F66
:104A400049D098F800C008EB09060023002109EBC3
:104A50000104012C1AD008EB030042785F2A19D117
:104A6000022C1CD082785F2A1DD1032C20D0C27862
:104A70005F2A21D1042C2AD00079043304395F281D
:104A8000E5D0A8EB010609EB010419E0013C614601
:104A9000BEB920E0A8EB0100013C461C10E0023C3E
:104AA000614676B917E0A8EB0100023C861C07E0DE
:104AB000033C61462EB90EE0A8EB0100033CC61C86
:104AC000614601984FF0000B0138019033E7043C38
:104AD0006146002EF5D102985646A8B302983021BF
:104AE0004FF0000B0138029023E7C1F1030201F0FF
:104AF000070002F00702E3B206FA00F0012623FAEB
:104B000002F20244C1F1020000F0070006FA00F0D0
:104B1000034224D00138204000060AD10398019BAB
:104B20000299184458444942884208BF12F00100D3
:104B300015D0D0B2421CD0B2904210D00020114605
:104B400006B0BDE8000FF0BD059800F0070006FABA
:104B500000F20120114606B0BDE8000FF0BD009B39
:104B6000D1B203F0070021FA00F0A3F10801B0FA76
:104B700080F0B1FA81F1400949090843114606B0B5
:104B8000BDE8000FF0BDF0B503AF2DE9000F9BB0FD
:104B900000F1140E846803469EE8404104EB0800CF
:104BA000304410EB0E0F10D10029A2F13000C1F1FA
:104BB000030108BF6FF02F0001F00701C0B2C84029
:104BC00000211BB0BDE8000FF0BDC1F10B0A00EBE6
:104BD0000E050020B5EB9A0F88BF01204FEA9A0915
:104BE000B5EB9A0F06900791049240F22081A5EB55
:104BF00009020BA8194601F006FE0DF15C0EDDE975
:104C00001323DDF858C09EE8504115980590B8F17F
:104C1000000F00F01681A8F1010B3021CDF820E043
:104C2000002A00F0CC810A9201F00F003F2988BFD2
:104C30000930059931444144714449451ED1002150
:104C40004D4588BF01211E46079B0AF004021A4405
:104C50003346C2F1040202F0070230FA02F218BF32
:104C600001221143069109E0ABF1010B00214FF045
:104C7000300E0EF00F0242EA00100844BBF1000FA4
:104C8000F2D1E3B30A9E591ECDF824C09A1E06EB5A
:104C9000030BDD1E96F800E09C46043BA14600266F
:104CA000B14221D00A9C04EB060898F801A0BAF1A1
:104CB0005F0F67D1B24217D098F802405F2C69D1DC
:104CC000B54211D098F803405F2C6AD1B3420BD0A3
:104CD00098F8044004365F2CE2D00A996346ACEBA6
:104CE000060331440A9162E06346DDF824C0BBF15B
:104CF000000F4C4603D00023CDF828B076E0B4B3C3
:104D00009CF800E00CEB040B611EA21EE51EA4F152
:104D100004089A46A1460026B1421DD00CEB0603BA
:104D20005C785F2C47D1B24216D09C785F2C4CD176
:104D3000B54211D0DC785F2C50D1B0450CD01B7936
:104D400004365F2BE8D04C46B444A9EB0604534626
:104D50000A9900294AD151E0BBF1000F4C46534655
:104D600005D00024DC460A9900293FD146E0089985
:104D7000002943D008994FF0300E013908910A9963
:104D8000A1BB3BE06346F14301EB0C0308F10101D9
:104D90000A910CE008F102010A91ACEB06018B1EAE
:104DA00005E008F103010A91ACEB0601CB1EDDF82A
:104DB00024C04C461AE04C46F14301EB090403F1D0
:104DC000010C53460A9989B918E0A9EB060103F1D1
:104DD000020C8C1E53460A9941B90FE0A9EB06015B
:104DE00003F1030CCC1E53460A9939B14FF0000B66
:104DF0000021BEF13F0F88BF09213AE7079B002B36
:104E00004CD0049AD1B23F29C3F1040102F00F0241
:104E100001F0070188BF093222FA01F103F007020D
:104E20009040084406991BB0BDE8000FF0BDD3E9DF
:104E300000200594D3E903C40346B8F1000F7FF4C2
:104E4000EAAE09920395CDE90169BBB3D018591EAA
:104E50009D1EA3F1030BA3F104090A901E461078CE
:104E60000023009099421ED00998184442785F2A86
:104E700074D19D4217D082785F2A75D19B4512D09C
:104E8000C2785F2A75D199450DD0007904335F2827
:104E9000E8D0099818440A90F31A6EE006991BB0FE
:104EA000BDE8000FF0BD0A983346039DDDE90169B6
:104EB000099A18B100234FF0000B63E0002C43D097
:104EC00060460CEB0405611EA4F10209A4F1030B7A
:104ED0002646043C0A939CF8000000230090994267
:104EE00021D00CEB030042785F2A4FD199451AD0AC
:104EF00082785F2A50D19B4515D0C2785F2A50D165
:104F00009C4210D000790433099A5F28E7D03446D8
:104F10009C44F41A9DE842024FF0000BCDF820E0CB
:104F20000A9B039D7CE634462846002D039DDDE95F
:104F30000169DDE9092307D04FF0000BCDF820E02F
:104F40000024844600996BE6BEF1000F37D0AEF125
:104F50000100089030214FF0000B61E6D943334641
:104F60008B1901300A9008E002300A90F01A831E73
:104F700003E003300A90F01AC31E039D4FF0000BAC
:104F8000DDE90169CDF820E000994DE63446D943CA
:104F90008C1900F1010C08E000F1020CF01A841EDB
:104FA00003E000F1030CF01AC41E9DE842024FF02A
:104FB000000BCDF820E0039DDDE9092330E64AF23D
:104FC000A0204AF29022C0F60000C0F6000228217C
:104FD00002F085FDFEDEF0B503AF2DE9000F86B0CF
:104FE000C2F1040B826803924269D0E900CED0E995
:104FF0000389D0E906A00091059100210192029059
:10500000BAF1000F18D0AAF1010A30204C464646EA
:10501000BCF1000F65467346B046A14600F0028120
:10502000BBF1040F56D100F00F043F2888BF0934AC
:10503000059E5E455FD2C8E0BEF1000F6DD00CEB5F
:105040000E050E469CF800000023002104900EEB94
:105050000104012C1AD00CEB030042785F2A19D10D
:10506000022C1CD082785F2A1DD1032C20D0C2785C
:105070005F2A21D1042C4CD00079043304395F28F5
:10508000E5D0ACEB01050EEB010319E0631E3146E0
:10509000BDB942E0ACEB0100631E451C10E0A31E4D
:1050A000314675B939E0ACEB0100A31E851C07E061
:1050B000E31E31462DB930E0ACEB0100E31EC51C08
:1050C000314603984FF0000A013803900498BBF171
:1050D000040FA8D002463F2A0BF0070200F00F0091
:1050E0004FF0FF3488BF093004FA02F220EA0204CC
:1050F000059E5E4569D3A6EB0B06059604EB0111F0
:105100004FF0040BAC469E46BAF1000F7FF47BAF24
:1051100092E7231F3146002DD3D1B9F1000F4CD0B7
:1051200008EB09060D4698F80000002300210490C2
:1051300009EB0104012C1AD008EB030042785F2A26
:1051400019D1022C1CD082785F2A1DD1032C20D0CB
:10515000C2785F2A21D1042C2BD000790433043982
:105160005F28E5D0A8EB010609EB010419E0013C3A
:105170002946BEB921E0A8EB0100013C461C10E025
:10518000023C294676B918E0A8EB0100023C861CD7
:1051900007E0033C29462EB90FE0A8EB0100033CD1
:1051A000C61C294601984FF0000A01380190049866
:1051B0002EE7043C2946002EF4D1029890B30298C1
:1051C0004FF0000A013802901FE7C6F1040206F012
:1051D000070002F00702012301FA00F024FA02F2AC
:1051E0000244C6F1030000F0070003FA00F0044295
:1051F00023D0013804420AD1039801990844029946
:1052000050444942884208BF12F0010015D0D0B284
:10521000421CD0B2904210D00020114606B0BDE82A
:10522000000FF0BD059800F0070001FA00F2012020
:10523000114606B0BDE8000FF0BD009BD1B203F0EF
:10524000070021FA00F0A3F10801B0FA80F0B1FAEA
:1052500081F1400949090843114606B0BDE8000F35
:10526000F0BDF0B503AF2DE9000F93B001468068A3
:10527000D1E905264FF0000A3044CB6910441844A8
:10528000082888BF4FF0010A0DD9A0F1080203A831
:1052900001F0B9FA129800900E980290119EDDE983
:1052A0000BB90F9805E0D1E900B9D1E903100093DB
:1052B0000291002101901CE0013E4FF03008BBF14B
:1052C000000F00F0B28000EB8002A8F13001C0B204
:1052D0005200C9B2D2B21144CAB2521A18BF012246
:1052E00019284FF0000088BF012040EA0A0040EA78
:1052F000020A0846002EDFD1B9F1000F30D09BF82A
:1053000000800BEB0902A9F10103A9F10204A9F144
:105310000301A9F1040C0026B3421CD00BEB060ECE
:105320009EF801505F2D57D1B44214D09EF8025020
:105330005F2D56D1B1420ED09EF803505F2D57D14C
:10534000B44508D09EF8045004365F2DE4D0B34431
:10535000A9EB060952E01AB14FF0000993464DE05F
:10536000019A82B3029D531E941ED11E05EB020CBE
:10537000A2F1040E95F800800026B3421BD0029AD9
:1053800095196A785F2A3BD1B44214D0AA785F2A73
:105390003DD1B1420FD0EA785F2A3FD1B6450AD05D
:1053A0002A7904365F2AE8D00299314402910199A2
:1053B000891B01910EE0BCF1000F04D000210026F2
:1053C000CDE9011C7BE7009979B300994FF03008D3
:1053D00001390091002672E7F14389440EF1010B77
:1053E0000CE0A9EB06010EF1020BA1F1020905E0A8
:1053F000A9EB06010EF1030BA1F10309002662E7F8
:10540000019AF1430A44691C01920291E2E7A91C46
:1054100002910199891B02390191DBE7E91C029194
:105420000199891B03390191D4E70AF0010113B0F6
:10543000BDE8000FF0BDF0B503AF2DE9000F9FB040
:105440000546806805910DF11C0AD5E9051B5844F5
:10545000EA690844049200EB0208B8F1030F0AD984
:1054600050462946032201F0CEF9514617A85CC9DF
:105470004FF0010913E0D8F1030004D0012805D151
:105480004FF00A0908E04FF0010905E04FF47A797E
:10549000C00708BF4FF06409294617A85CC95CC063
:1054A00091E85C005CC017A851465CC85CC190E8FC
:1054B0005C0050465CC1FEF705FB00FB09F0059E51
:1054C000B8F1030FC6F1080202F00F024FEA801193
:1054D00089B221FA02F214D9500848F21331484334
:1054E000FA236FF00101840D04FB1322120408BF9C
:1054F00001EA9054082E02942BD06EBB002080222B
:1055000038E07D3206F00F0193B223FA01F1FA2957
:1055100013D290B248F213314008FA2348436FF097
:105520000106810D01FB1322120408BF06EA905107
:1055300001201FB0BDE8000FF0BD80B2002180F453
:10554000FA703043B0FA80F040091FB0BDE8000F98
:10555000F0BD012022460DE0C6F10700012100F058
:10556000070001FA00F0714201F0070104FA01F1AD
:105570000A180020D5E900ACD5E903310693039160
:10558000BBF1000F29D0ABF1010B4FF03009BAF19C
:10559000000F00F0C980D2B2002A114618BF0121C5
:1055A0000143C90700F0C98002EB82014A00D1B271
:1055B0004B1DD9B2C91A18BF0121014001EB1225B8
:1055C000A9F13001CCB2AC42C0F0B180C00718BF25
:1055D0001A460020AC42D3D9AFE0BCF1000F35D061
:1055E0009AF800900AEB0C0BACF10106ACF1020842
:1055F000ACF103056446ACF1040C00239E421DD0BF
:105600000AEB030E9EF801105F2963D1984515D06F
:105610009EF802105F2964D19D420FD09EF80310BE
:105620005F2964D19C4509D09EF8041004335F299A
:10563000E4D0A4469A44A4EB030C5DE0BBF1000F58
:10564000A44603D04FF0000CDA4655E0039DBDB3ED
:1056500006996E1ECDF804C0A5F1020B01EB0508FA
:10566000A5F1030E91F80090A5F1040C00239E42D1
:105670001AD00699CC1861785F2940D19B4513D088
:10568000A1785F2941D19E450ED0E1785F2941D1B3
:105690009C4509D0217904335F29E8D00699ED1A99
:1056A0000395194406913AE0DDF804C0B8F1000F03
:1056B00006D000214FF0000B0391CDF8188066E76B
:1056C000049989B304994FF030094FF0000B013968
:1056D00004915CE7A446D94301EB040C0EF1010AE6
:1056E0000AE0E11A0EF1020AA1F1020C04E0E11A4B
:1056F0000EF1030AA1F1030C4FF0000B4BE7D94365
:105700000D44611C0395069109E0A11C0691E91A5C
:10571000023903E0E11C0691E91A03390391DDF82F
:1057200004C04FF0000B32E70298C00705D10120FA
:1057300002991FB0BDE8000FF0BD0298C0B2411C35
:10574000C8B2884205D00020FF211FB0BDE8000F7D
:10575000F0BD059A02F00703083AB2FA82F2D84087
:10576000B0FA80F05209400910431FB0BDE8000FA5
:10577000F0BDF0B503AF2DE9000F87B06AB102F0BC
:105780000304042A0FD24FF0000A4FF000084FF034
:10579000000E8B46002C69D1A8E04FF000084FF0B6
:1057A000000A0023A8E0049022F0030000254FF037
:1057B00000084FF0000E8B46CDE9014203911BF823
:1057C000049B2C460EF101031BF803CCB9F15F0FCB
:1057D0001BF8021C1BF8012C0591069218BF01341E
:1057E000BCF15F0F264618BF01365F29314618BF4E
:1057F00001315F2A8A4618BF0AF1010A002D454689
:1058000008BF7546B9F15F0F08BF454618BF0023B2
:10581000002C2C4608BF1C46BCF15F0F08BF2C466D
:1058200003F10102234618BF0022002E08BF1346D1
:10583000059E55465F2E08BF234602F10106984695
:1058400018BF0026002908BFB046069906F1010ED0
:105850005F2908BF984618BF4FF0000E0438AED13C
:10586000DDE90310DDE90142002C3FD09BF8005038
:10587000564643465F2D18BF0136BAF1000F08BFE8
:1058800073465F2D0EF1010E18BF984618BF4FF0FA
:10589000000E012C01D1B24628E09BF80150B2461F
:1058A00043465F2D18BF0AF1010A002E08BF734658
:1058B0005F2D0EF1010E18BF984618BF4FF0000E75
:1058C000022C13D09BF80250534646465F2D18BF5A
:1058D0000133BAF1000F08BF76460EF1010E9A4669
:1058E0005F2D18BFB04618BF4FF0000E72450DD3A4
:1058F000A2EB0E03984515D801EB0802A3EB0803B1
:1059000080E80C0407B0BDE8000FF0BD4AF2C820E3
:105910004AF24832C0F60000C0F60002232102F02D
:10592000DEF8FEDE4AF2C8204AF25832C0F6000025
:10593000C0F60002232102F0D2F8FEDEF0B503AF7C
:105940002DE9000F89B0D1E900C9B9F1000F50D09D
:10595000A9F101030CF101054FF000081646644659
:105960002478AE465F2C02D108F1010801E0013E27
:105970000CD0002BA3F10103754618BF013503D0ED
:10598000BEF1000F7446EBD10133CEBB9044CDE99C
:10599000011CC8455ED8C3F1000900247646B34611
:1059A00019EB040643D01EF804105F293FD10BF118
:1059B000010A5D1E711C3FD00EEB040C9CF8011017
:1059C0005F2939D10BF1020A9D1EB11C34D09CF81D
:1059D00002105F2930D1DD1EF11C2BD09CF8031082
:1059E00004340BF10406043B5F29D8D00BF1030A01
:1059F00022E00023E6464FF000081646002EC5D0F0
:105A00000020012104914AF28C310790C0F6000178
:105A100006904AF29430C0F6000003914AF29431A5
:105A2000059003A8C0F6000102F043F8FEDE1D4613
:105A3000DA4601E00CF1030A0199029BC0E9003843
:105A40008968C0E9022A891AC0E9045109B0BDE891
:105A5000000FF0BD4AF2C8204AF26832C0F60000DA
:105A6000C0F60002232102F03AF8FEDEF0B503AFE3
:105A70002DE9000F87B091E81044BAF1000F0490AF
:105A800000F0A78094F800C0A34600210691AAF177
:105A90000106AAF10204AAF10309AAF104080021EF
:105AA0008E4233D00BEB01035D785F2D14D18C4215
:105AB0002CD09D785F2D13D1894527D0DD785F2DBF
:105AC00013D1884522D01D7904315F2DE8D00BEB2E
:105AD0000104AAEB01010CE0C9435C1C514408E03D
